:0300000002039F59
:0C039F00787FE4F6D8FD7581200203E6AB
:10042B00900021E0FD7C007F107E001206AC900056
:10043B001DE0FCA3E0FDE4FFFE1206AC900013E010
:10044B00FCA3E0FD7F027E001206AC90001BE0FCDB
:10045B00A3E0FD7F047E001206AC900015E0FCA328
:10046B00E0FD7F067E001206AC900019E0FCA3E0D5
:10047B00FD7F087E001206AC900017E0FCA3E0FDA8
:10048B007F0A7E001206AC900022E0FCA3E0FD7F09
:10049B000C7E001206AC90001FE0FD7C007F127EEC
:0404AB00000206AC99
:1005F50020801190001FE0700590002004F090000D
:100605001F7401F030801290001FE0B401069000C5
:10061500207401F0E490001FF0208403C29122D2DF
:02062500912220
:1002FA007FF47E0112068512056812079B1206D149
:10030A007F647E00120716B2B7D3900029E09414D6
:10031A00900028E094004010900027E024FFF0901D
:10032A000026E034FFF0800E900027E004F070060B
:10033A00900026E004F0900026E0FEA3E0FFC394BC
:10034A0001EE9400500A900026E4F0A304F0801213
:10035A00D3EF9432EE94004009900026E4F0A3749F
:10036A0032F01205F5900001E060167F047E00125B
:10037A0006F612017C7F027E001206F6E490000166
:10038A00F0900020E0700302030A12042BE49000AC
:05039A0020F002030A3F
:10071600EF1FAC0670011E4C6010900033E004F031
:0A07260070EE900032E004F080E66F
:0107300022A6
:08068500900030EEF0A3EFF04D
:10068D00E4FBFAD3900031E09B900030E09A400EED
:0E069D007FDE7E011207160BBB00010A80E50E
:0106AB00222C
:1000460090002F7401F07F0A7E001206857FC87E1D
:100056000012074AEF64EE6003020171FFFE120709
:100066004AEF7F00FEC007C0060F7E0012074AEF68
:10007600FDD0E0FFD0E04D90001DCFF0A3EFF07F64
:10008600027E0012074AEF7F00FEC007C0067F030C
:100096007E0012074AEFFDD0E0FFD0E04D9000133E
:1000A600CFF0A3EFF07F047E0012074AEF7F00FE39
:1000B600C007C0067F057E0012074AEFFDD0E0FFAD
:1000C600D0E04D90001BCFF0A3EFF07F067E00122C
:1000D600074AEF7F00FEC007C0067F077E001207B3
:1000E6004AEFFDD0E0FFD0E04D900015CFF0A3EF32
:1000F600F07F087E0012074AEF7F00FEC007C006A9
:100106007F097E0012074AEFFDD0E0FFD0E04D9058
:100116000019CFF0A3EFF07F0A7E0012074AEF7FA7
:1001260000FEC007C0067F0B7E0012074AEFFDD017
:10013600E0FFD0E04D900017CFF0A3EFF07F0C7EEC
:100146000012074AEF7F00FEC007C0067F0D7E0043
:1001560012074AEFFDD0E0FFD0E04D900022CFF02D
:10016600A3EFF090002F7401F08005E490002FF0CB
:0501760090002FE0FFE6
:01017B002261
:100568009000217401F0120046EF704190001D04C4
:10057800F0A37490F09000137401F0A37490F090BD
:10058800001BE4F0A374B4F0900015E4F0A374C861
:10059800F0900019E4F0A37464F0900017E4F0A35D
:1005A80074C8F0900022748CF0A374A0F0E490005A
:0605B8001FF0A304F02275
:10017C0090002F7401F07F0A7E00120685E4FFFECA
:10018C0012076290001DE0FDE4FFFE1207319000A3
:10019C001DA3E0FD7F017E00120731900013E0FDEE
:1001AC007F027E00120731900013A3E0FD7F037ED7
:1001BC000012073190001BE0FD7F047E0012073116
:1001CC0090001BA3E0FD7F057E0012073190001507
:1001DC00E0FD7F067E00120731900015A3E0FD7F45
:1001EC00077E00120731900019E0FD7F087E001297
:1001FC000731900019A3E0FD7F097E0012073190B2
:10020C000017E0FD7F0A7E00120731900017A3E073
:10021C00FD7F0B7E00120731900022E0FD7F0C7EEB
:10022C0000120731900022A3E0FD7F0D7E00120723
:10023C00317DEE7FC87E00120731E4900020F090F3
:04024C00002FE0FFA0
:01025000228B
:10077700AE071FEE600DE4FCFD0DED70010C4C6043
:03078700EF80F60A
:01078A00224C
:0D07AA00E4F5C7F5C5F5C675C380F5C4229A
:10074A0075C78375C5018FC4EEF5C375C65A75C6DC
:07075A00A500AFC21207AABF
:010761002275
:1007310075C78375C5028FC4EEF5C3AF058FC2754A
:09074100C65A75C6A5000207AAFC
:1007620075C78375C5038FC4EEF5C375C65A75C6C2
:05077200A5000207AA2A
:1005BE00C100410001004F0003FFFFFFFFFFFFFFDF
:1005CE00FFFFFFFFFFFFFFFF41001200410002008F
:0405DE0041000000D8
:0F079B00759A50759CFD438E1475AF01D2AF2235
:030043000206278B
:10062700C0E0C0F0C083C082C0D075D008E59A3062
:10063700E008539AFEAF9B1204AFE59A30E10553E9
:0F0647009AFDC201D0D0D082D083D0F0D0E03263
:07078B007F5A1207927FA5BF
:090792002001FDEFD201F59B22CC
:10000E00900034EBF0A3EAF0A3E9F0900034E0FBAB
:10001E00A3E0FAA3E0F91206566017900034A3E4A9
:10002E0075F00112066FA9F0FA120656FF1207922A
:03003E0080D92244
:1006AC00AB07AA0612078B7F051207927F821207EF
:1006BC0092EAFF120792AF03120792ECFF12079215
:0506CC00AF05020792DA
:1006F600AD07AC0612078B7F041207927F801207A4
:10070600927F03120792ECFF120792AF050207923F
:1004AF00900012E01460111460161460242403707D
:1004BF0047EF645A70488012EFB4A502800C803960
:1004CF00900000EFF0E4900002F0900012E004F0D2
:1004DF0022900002E02403F582E43400F583EFF06C
:1004EF00900002E004F0900000E0FF900002E0C3F3
:0F04FF009F400B120251800100E4900012F02286
:10025100900007E0FEA3E0FDEDFF9000207401F0A7
:10026100900005E0FD700590001D8040EDB4020591
:100271009000138037900005E0FDB4040590001B49
:10028100802AEDB406059000158021900005E0FD5F
:10029100B408059000198014EDB40A059000178088
:1002A1000B900005E0FDB40C10900022EEF0A3EFDE
:1002B100F09000017401F0803DED6414603890000D
:1002C10005E0FFB41612C29090001DE0FDA3E0907E
:1002D1000028CDF0A3ED8014EFB4181AD29090004D
:1002E1001DE0FFA3E0900028CFF0A3EFF0900026DF
:0802F100E4F0A37432F0D20026
:0102F90022E2
:0405E200410037009D
:0100030022DA
:0E05E60042002D000042002B000041002A14AC
:0100040022D9
:03000B0002050EDD
:10050E00C0E0C0F0C083C082C0D075D008758A8BA1
:10051E00758CFC90002474FFF5F012066F45F07098
:10052E002ED3900029E09400900028E09400401013
:10053E00D2A6A3E024FFF0900028E034FFF0B2A68C
:10054E00900026E0FFA3E0900024CFF0A3EFF0D0C0
:0A055E00D0D082D083D0F0D0E0327C
:1006D100438E80758901758A8B758CFCD28CD2A969
:1006E100D2AFE4900024F0A3F0A3F0A37432F0E4BD
:0506F100A3F0A3F022BC
:1003AB000202FAE493A3F8E493A34003F68001F26C
:1003BB0008DFF48029E493A3F85407240CC8C33353
:1003CB00C4540F4420C8834004F456800146F6DF22
:1003DB00E4800B01020408102040809005BEE47EEF
:1003EB00019360BCA3FF543F30E509541FFEE49317
:1003FB00A360010ECF54C025E060A840B8E493A3DE
:10040B00FAE493A3F8E493A3C8C582C8CAC583CA08
:10041B00F0A3C8C582C8CAC583CADFE9DEE780BEC0
:0105F4000006
:10065600BB010689828A83E0225002E722BBFE02A2
:09066600E32289828A83E49322D5
:10066F00A3F8E0C5F025F0F0E5821582700215833E
:06067F00E0C838F0E8229B
:00000001FF
