:03000000020251A8
:0C025100787FE4F6D8FD75812002029849
:1002DD00900021E0FD7C007F107E001205B790009C
:1002ED001DE0FCA3E0FDE4FFFE1205B7900013E056
:1002FD00FCA3E0FD7F027E001205B790001BE0FC21
:10030D00A3E0FD7F047E001205B7900015E0FCA36D
:10031D00E0FD7F067E001205B7900019E0FCA3E01A
:10032D00FD7F087E001205B7900017E0FCA3E0FDED
:10033D007F0A7E001205B7900022E0FCA3E0FD7F4E
:10034D000C7E001205B790001FE0FD7C007F127E31
:04035D00000205B7DE
:1005000020801190001FE0700590002004F0900002
:100510001F7401F030801290001FE0B401069000BB
:10052000207401F0E490001FF0208403C29122D2D5
:02053000912216
:10048A007FF47E011205901204341206817F647E85
:10049A00001205FC120500900001E060167F047E40
:1004AA00001205DC12017C7F027E001205DCE4905A
:1004BA000001F0900020E060D41202DDE4900020F8
:0304CA00F080CAF5
:1005FC00EF1FAC0670011E4C601090002DE004F053
:0A060C0070EE90002CE004F080E690
:0106160022C1
:0805900090002AEEF0A3EFF049
:10059800E4FBFAD390002BE09B90002AE09A400EEF
:0E05A8007FDE7E011205FC0BBB00010A80E520
:0105B6002222
:100046009000297401F07F0A7E001205907FC87E19
:1000560000120630EF64EE6003020171FFFE120625
:1000660030EF7F00FEC007C0060F7E00120630EF9D
:10007600FDD0E0FFD0E04D90001DCFF0A3EFF07F64
:10008600027E00120630EF7F00FEC007C0067F0327
:100096007E00120630EFFDD0E0FFD0E04D90001359
:1000A600CFF0A3EFF07F047E00120630EF7F00FE54
:1000B600C007C0067F057E00120630EFFDD0E0FFC8
:1000C600D0E04D90001BCFF0A3EFF07F067E00122C
:1000D6000630EF7F00FEC007C0067F077E001206CF
:1000E60030EFFDD0E0FFD0E04D900015CFF0A3EF4C
:1000F600F07F087E00120630EF7F00FEC007C006C4
:100106007F097E00120630EFFDD0E0FFD0E04D9073
:100116000019CFF0A3EFF07F0A7E00120630EF7FC2
:1001260000FEC007C0067F0B7E00120630EFFDD032
:10013600E0FFD0E04D900017CFF0A3EFF07F0C7EEC
:1001460000120630EF7F00FEC007C0067F0D7E005E
:10015600120630EFFDD0E0FFD0E04D900022CFF048
:10016600A3EFF09000297401F08005E4900029F0D7
:05017600900029E0FFEC
:01017B002261
:100434009000217401F0120046EF704190001D04F9
:10044400F0A37490F09000137401F0A37490F090F2
:10045400001BE4F0A374B4F0900015E4F0A374C896
:10046400F0900019E4F0A37464F0900017E4F0A392
:1004740074C8F0900022748CF0A374A0F0E490008F
:060484001FF0A304F022AA
:10017C009000297401F07F0A7E00120590E4FFFEC6
:10018C0012064890001DE0FDE4FFFE1206179000D9
:10019C001DA3E0FD7F017E00120617900013E0FD09
:1001AC007F027E00120617900013A3E0FD7F037EF2
:1001BC000012061790001BE0FD7F047E001206174C
:1001CC0090001BA3E0FD7F057E0012061790001522
:1001DC00E0FD7F067E00120617900015A3E0FD7F60
:1001EC00077E00120617900019E0FD7F087E0012B2
:1001FC000617900019A3E0FD7F097E0012061790E8
:10020C000017E0FD7F0A7E00120617900017A3E08E
:10021C00FD7F0B7E00120617900022E0FD7F0C7E06
:10022C0000120617900022A3E0FD7F0D7E0012063F
:10023C00177DEE7FC87E00120617E4900020F09028
:04024C000029E0FFA6
:01025000228B
:10065D00AE071FEE600DE4FCFD0DED70010C4C605E
:03066D00EF80F625
:010670002267
:0D069000E4F5C7F5C5F5C675C380F5C422B5
:1006300075C78375C5018FC4EEF5C375C65A75C6F7
:07064000A500AFC2120690F5
:010647002290
:1006170075C78375C5028FC4EEF5C3AF058FC27565
:09062700C65A75C6A50002069032
:1006480075C78375C5038FC4EEF5C375C65A75C6DD
:05065800A50002069060
:10000300C100410001004F0003FFFFFFFFFFFFFF9F
:10001300FFFFFFFFFFFFFFFF41001200410002004F
:040023004100000098
:0F068100759A50759CFD758E1475AF01D2AF221E
:0300430002053281
:10053200C0E0C0F0C083C082C0D075D008E59A3058
:10054200E008539AFEAF9B1203D5E59A30E10553BA
:0F0552009AFDC201D0D0D082D083D0F0D0E03259
:070671007F5A1206787FA5F5
:090678002001FDEFD201F59B22E7
:1004CD0090002EEBF0A3EAF0A3E9F090002EE0FBF4
:1004DD00A3E0FAA3E0F9120561601790002EA3E4E2
:1004ED0075F00112057AA9F0FA120561FF1206786E
:0304FD0080D92281
:1005B700AB07AA061206717F051206787F8212061C
:1005C70078EAFF120678AF03120678ECFF12067876
:0505D700AF05020678EB
:1005DC00AD07AC061206717F041206787F801206F6
:1005EC00787F03120678ECFF120678AF05020678C6
:1003D500900012E014601114601614602424037058
:1003E50047EF645A70488012EFB4A502800C80393B
:1003F500900000EFF0E4900002F0900012E004F0AD
:1004050022900002E02403F582E43400F583EFF046
:10041500900002E004F0900000E0FF900002E0C3CD
:0F0425009F400B120361800100E4900012F0224F
:10036100900007E0FEA3E0FDEDFF9000207401F096
:10037100900005E0FD700590001D8033EDB402058D
:10038100900013802A900005E0FDB4040590001B45
:10039100801DEDB406059000158014900005E0FD68
:1003A100B408059000198007EDB40A10900017EE0B
:1003B100F0A3EFF09000017401F08015900005E0CA
:1003C100B40C0E900022EEF0A3EFF0900001740146
:0303D100F0D20067
:0103D4002206
:040027004100310063
:01003A0022A3
:0E002B0042002700004200250000410024147E
:01003B0022A2
:10025D0002048AE493A3F8E493A34003F68001F229
:10026D0008DFF48029E493A3F85407240CC8C333A2
:10027D00C4540F4420C8834004F456800146F6DF71
:10028D00E4800B0102040810204080900003E47EFE
:10029D00019360BCA3FF543F30E509541FFEE49366
:1002AD00A360010ECF54C025E060A840B8E493A32D
:1002BD00FAE493A3F8E493A3C8C582C8CAC583CA58
:1002CD00F0A3C8C582C8CAC583CADFE9DEE780BE10
:0100390000C6
:10056100BB010689828A83E0225002E722BBFE0298
:09057100E32289828A83E49322CB
:10057A00A3F8E0C5F025F0F0E58215827002158334
:06058A00E0C838F0E82291
:00000001FF
