:03000000020BCF21
:0C0BCF00787FE4F6D8FD758120020C163A
:10031E00900025E0FD7C00E4FFFE120E3F900012DF
:10032E00E07012900025E06003B402047F028007A3
:10033E00E4FFFE80047F087E00120E6490001AE037
:10034E00FD7C007F017E00120E3F90001CE0FD7CC4
:10035E00007F027E00120E3F90001DE0FD7C007FAC
:10036E00037E00120E3F90001EE0FD7C007F047E97
:10037E0000120E3F90001FE0FD7C007F057E0012F4
:10038E000E3F900020E0FD7C007F067E00120E3FA7
:10039E00900021E0FD7C007F077E00120E3F900052
:1003AE0022E0FD7C007F087E00120E3F900023E0CD
:1003BE00FD7C007F097E00120E3F900024E0FD7C44
:1003CE00007F0A7E00120E3F900000E0FD7C007F51
:1003DE000B7E00120E3F90000BE0FD7C007F0C7E2A
:1003EE0000120E3F90000CE0FD7C007F0D7E00128F
:1003FE000E3F90000DE0FD7C007F0E7E00120E3F42
:10040E0090000EE0FD7C007F0F7E00120E3F9000EC
:10041E000FE0FD7C007F107E00120E3F900013E077
:10042E00FD7C007F117E00120E3F900014E0FD7CDB
:10043E00007F127E00120E3F900015E0FD7C007FC3
:10044E00137E00120E3F900016E0FD7C007F147E9E
:10045E0000120E3F900017E0FD7C007F157E00120B
:10046E000E3F900018E0FD7C007F167E00120E3FBE
:10047E00900019E0FD7C007F177E00120E3F900069
:10048E0001E0FCA3E0FD7F187E00120E3F900003FA
:10049E00E0FCA3E0FD7F197E00120E3F900005E008
:1004AE00FCA3E0FD7F1A7E00120E3F900007E0FCD9
:1004BE00A3E0FD7F1B7E00120E3F900009E0FCA31F
:1004CE00E0FD7F1C7E00120E3F900010E0FCA3E0CA
:0804DE00FD7F237E00020E3FAA
:10069A0020801190001CE0700590001B04F090006F
:1006AA001C7401F030801290001CE0B40106900026
:1006BA001B7401F0E490001CF020811190001DE0F1
:1006CA00700590001B04F090001D7401F030811237
:1006DA0090001DE0B4010690001B7401F0E4900044
:1006EA001DF020821190001EE0700590001B04F09E
:1006FA0090001E7401F030821290001EE0B40106D0
:10070A0090001B7401F0E490001EF0208311900009
:10071A001FE0700590001B04F090001F7401F03078
:10072A00831290001FE0B4010690001B7401F0E4EC
:10073A0090001FF0208411900020E0700590001BAB
:10074A0004F09000207401F0308412900020E0B48C
:10075A00010690001B7401F0E4900020F02085113E
:10076A00900021E0700590001B04F09000217401B4
:10077A00F0308512900021E0B4010690001B74014C
:10078A00F0E4900021F0208611900022E07005909C
:10079A00001B04F09000227401F0308612900022AF
:1007AA00E0B4010690001B7401F0E4900022F020EE
:1007BA008711900023E0700590001B04F09000233D
:1007CA007401F0308712900023E0B4010690001BF8
:1007DA007401F0E4900023F020A011900024E0704E
:1007EA000590001B04F09000247401F030A01290D0
:1007FA000024E0B4010690001B7401F0E490002488
:10080A00F020A111900000E0700590001B04F09008
:10081A0000007401F030A112900000E0B4010690CB
:0B082A00001B7401F0E4900000F022BD
:100A6B00E4900039F0A3F07FF47E01120E18120C03
:100A7B005B120F09900001E0FEA3E0FF120E8490C1
:100A8B000027E060227F0A7E00120E641209749028
:100A9B000027E0B402067F047E008003E4FFFE1211
:100AAB000E64E4900027F0B2A6120B22900039E0FE
:100ABB0004F0E0B40A2AE4F0900044E004F070067D
:100ACB00900043E004F090003AE004F0E0B40A1028
:100ADB00E4F0900042E004F07006900041E004F076
:100AEB0090001BE0600812031EE490001BF09000C6
:100AFB001AE06004C2958002D29512069A900025E6
:100B0B00E064036003020A7F900012E06003020AB4
:070B1B007F120046020A7F71
:100E8400EF1FAC0670011E4C601090003FE004F0B0
:0A0E940070EE90003EE004F080E6EE
:010E9E002231
:080E180090003CEEF0A3EFF0A6
:100E2000E4FBFAD390003DE09B90003CE09A400E3A
:0E0E30007FDE7E01120E840BBB00010A80E5FE
:010E3E002291
:1008350090003B7401F07F0A7E00120E187FC87E7F
:1008450000120EB8EF64EE6003020969FFFE120E96
:10085500B8900013EFF07F017E00120EB8900014DF
:10086500EFF07F027E00120EB8900015EFF07F03C7
:100875007E00120EB8900016EFF07F047E00120E77
:10088500B8900017EFF07F057E00120EB8900018A3
:10089500EFF07F067E00120EB8900019EFF07F147E
:1008A5007E00120EB8EF7F00FEC007C0067F157EE2
:1008B50000120EB8EFFDD0E0FFD0E04D900001CF63
:1008C500F0A3EFF07F167E00120EB8EF7F00FEC09A
:1008D50007C0067F177E00120EB8EFFDD0E0FFD0EF
:1008E500E04D900003CFF0A3EFF07F187E00120ECD
:1008F500B8EF7F00FEC007C0067F197E00120EB854
:10090500EFFDD0E0FFD0E04D900005CFF0A3EFF074
:100915007F1A7E00120EB8EF7F00FEC007C0067F6B
:100925001B7E00120EB8EFFDD0E0FFD0E04D900029
:1009350007CFF0A3EFF07F1C7E00120EB8EF7F000B
:10094500FEC007C0067F1D7E00120EB8EFFDD0E089
:10095500FFD0E04D900009CFF0A3EFF090003B747D
:0E09650001F08005E490003BF090003BE0FFC5
:010973002261
:100C5B009000257401F0E490001AF0900012F090CF
:100C6B00001CF0A3F0A3F0A3F0A3F0A3F0A3F0A358
:100C7B00F0A3F0900000F090000BF0A3F0A3F0A312
:100C8B00F0A3F0120835EF70379000137428F0A31F
:100C9B00F0A3F0A3F0A3F0A3F0A3F0900001E4F015
:100CAB00A3740AF0A3E4F0A3740FF0A3E4F0A3740D
:100CBB0014F0A3E4F0A37419F0A3E4F0A3741EF0F2
:0D0CCB00E4900010F0A3F090001B04F02254
:1009740090003B7401F07F0A7E00120E18E4FFFE23
:10098400120ED0900013E0FDE4FFFE120E9F9000C3
:1009940014E0FD7F017E00120E9F900015E0FD7FA4
:1009A400027E00120E9F900016E0FD7F037E00126F
:1009B4000E9F900017E0FD7F047E00120E9F9000B2
:1009C40018E0FD7F057E00120E9F900019E0FD7F68
:1009D400067E00120E9F900001E0FD7F147E00123F
:1009E4000E9F900001A3E0FD7F157E00120E9F90E4
:1009F4000003E0FD7F167E00120E9F900003A3E02B
:100A0400FD7F177E00120E9F900005E0FD7F187E8B
:100A140000120E9F900005A3E0FD7F197E00120EC8
:100A24009F900007E0FD7F1A7E00120E9F90000742
:100A3400A3E0FD7F1B7E00120E9F900009E0FD7F66
:100A44001C7E00120E9F900009A3E0FD7F1D7E0016
:100A5400120E9F7DEE7FC87E00120E9FE490001B55
:060A6400F090003BE0FFF2
:010A6A002269
:100EE500AE071FEE600DE4FCFD0DED70010C4C60CE
:030EF500EF80F695
:010EF80022D7
:0D0F1800E4F5C7F5C5F5C675C380F5C42224
:100EB80075C78375C5018FC4EEF5C375C65A75C667
:070EC800A500AFC2120F18D4
:010ECF002200
:100E9F0075C78375C5028FC4EEF5C3AF058FC275D5
:090EAF00C65A75C6A500020F1811
:100ED00075C78375C5038FC4EEF5C375C65A75C64D
:050EE000A500020F183F
:10000300C100410027004F0029FFFFFFFFFFFFFF53
:10001300FFFFFFFFFFFFFFFF410038004100280003
:040023004100260072
:0F0F0900759A50759CFD758E1475AF01D2AF228D
:03004300020DBAF1
:100DBA00C0E0C0F0C083C082C0D075D008E59A30C8
:100DCA00E008539AFEAF9B120CD8E59A30E105531E
:0F0DDA009AFDC201D0D0D082D083D0F0D0E032C9
:070EF9007F5A120F007FA5D4
:090F00002001FDEFD201F59B2256
:100D8700900045EBF0A3EAF0A3E9F0900045E0FB03
:100D9700A3E0FAA3E0F9120DE96017900045A3E478
:100DA70075F001120E02A9F0FA120DE9FF120F00F9
:030DB70080D922BE
:100E3F00AB07AA06120EF97F05120F007F82120F61
:100E4F0000EAFF120F00AF03120F00ECFF120F00AA
:050E5F00AF05020F00C9
:100E6400AD07AC06120EF97F04120F007F80120F3B
:100E7400007F03120F00ECFF120F00AF05020F00FA
:100CD800900038E014601114601614602424037026
:100CE80047EF645A70488012EFB4A502800C80392F
:100CF800900026EFF0E4900028F0900038E004F02F
:100D080022900028E02429F582E43400F583EFF0EE
:100D1800900028E004F0900026E0FF900028E0C34F
:0F0D28009F400B1204E6800100E4900038F02297
:100D370020900890000B7401F08005E490000BF000
:100D470020910890000C7401F08005E490000CF0ED
:100D570020A40890000D7401F08005E490000DF0C8
:100D670020A50890000E7401F08005E490000EF0B5
:100D770020940790000F7401F022E490000FF022F6
:1004E60090002DE0FEA3E0FDEDFF90001B7401F0EF
:1004F60090002BE0FD7017900025E06003B4020623
:1005060090002502059BE4900025F0020697EDB4C5
:10051600011390001AE0700504F0020697E49000BB
:100526001AF002069790002BE0FDB4110A90001312
:10053600EFF0900027805EEDB4120A900014EFF001
:10054600900027805090002BE0FDB4130A90001510
:10055600EFF0900027803EEDB4140A900016EFF0FD
:10056600900027803090002BE0FDB4150A9000170C
:10057600EFF0900027801EEDB4160A900018EFF0F9
:10058600900027801090002BE0FDB4170E90001904
:10059600EFF09000277401F0020697EDB41805906D
:1005A6000001802A90002BE0FDB41905900003801D
:1005B6001DEDB41A05900005801490002BE0FDB4E3
:1005C6001B059000078007EDB41C11900009EEF0A2
:1005D600A3EFF09000277402F002069790002BE03C
:1005E600FFB41D0AE4900010F0A3F0020697EFB4E2
:1005F6001E1890000BE06007E4F0D2900206979078
:10060600000B7401F0C29002069790002BE0FFB435
:100616001F1690000CE06006E4F0D2918073900003
:100626000C7401F0C2918069EFB4201690000DE0C1
:100636006006E4F0D2A4805990000D7401F0C2A4C3
:10064600804F90002BE0FFB4211690000EE060066C
:10065600E4F0D2A5803B90000E7401F0C2A5803173
:10066600EFB4221690000FE06006E4F0D2948021E9
:1006760090000F7401F0C294801790002BE0B42410
:1006860010E4900012F0900041F0A3F0D296120D03
:0306960037D20058
:01069900223E
:04002700410048004C
:100B2200900048E014602014602A147003020BC184
:100B320024036003020BCD30A20630A303020BCEC6
:100B42009000487401F02230A20320A3789000485C
:100B52007402F02220A234900025E0B4012D740327
:100B6200F09000407401F0E490000BF090000CF063
:100B720090000DF090000EF090000FF0D290D29104
:100B8200D2A4D2A5D29490001B04F020A32A9000F4
:100B9200257401F0E490000BF090000CF090000D31
:100BA200F090000EF090000FF0D290D291D2A4D229
:100BB200A5D29490001B04F09000487403F02230F8
:0D0BC200A20A30A307E4900048F0220022B0
:0E002B0042004300004200410000410040142A
:10004600900040E014B41000400302031D900061CC
:1000560075F003A4C58325F0C583730200910200E1
:10006600CB0200E502010A02012802014D02016BE2
:100076000201990201B80201E602020502023302F8
:1000860002560202820202AA0202E790001CE0B4B3
:10009600011890001EE0B40111900020E0B4010A9E
:1000A600900022E0B401030202B1900005E0FEA335
:1000B600E0FFD3900042E09F900041E09E50030293
:1000C600031D02018DD3900044E09428900043E084
:1000D6009400500302031DC29090000B02024E9042
:1000E600001DE0B401030202B1900001E0FEA3E0AE
:1000F600FFD3900042E09F900041E09E5003020330
:100106001D020227900013E0FFD3900044E09F9069
:100116000043E09400500302031DC29190000C02BC
:10012600024E90001FE0B401030202B1900003E00A
:10013600FEA3E0FFD3900042E09F900041E09E5076
:100146000302031D0201DA900014E0FFD39000447D
:10015600E09F900043E09400500302031DC2A49068
:10016600000D02024E900021E0B401030202B1909C
:100176000005E0FEA3E0FFD3900042E09F9000411F
:10018600E09E500302031D9000127401F090000DD2
:100196000202DD900015E0FFD3900044E09F90003E
:1001A60043E09400500302031DD291E490000C0238
:1001B600029E90001EE0B401030202B1900003E02B
:1001C600FEA3E0FFD3900042E09F900041E09E50E6
:1001D6000302031D9000127401F090000C0202DD70
:1001E600900016E0FFD3900044E09F900043E09417
:1001F60000500302031DD290E490000B02029E9071
:10020600001CE0B401030202B1900001E0FEA3E08D
:10021600FFD3900042E09F900041E09E500302030E
:100226001D9000127401F090000B0202DD90001781
:10023600E0FFD3900044E09F900043E09400500319
:1002460002031DC2A590000E7401F090001B804DA4
:10025600900023E0B401028052900007E0FEA3E084
:10026600FFD3900042E09F900041E09E50030203BE
:100276001D9000127401F090000E805B900018E053
:10028600FFD3900044E09F900043E09400500302A7
:10029600031DD2A5E490000EF090001B04F0E4903C
:1002A6000041800B900022E0B4010EE4900043F080
:1002B600A3F0900040E004F022900007E0FEA3E0E7
:1002C600FFD3900042E09F900041E09E404990009D
:1002D600127401F090000E04F0C29690001B14F008
:1002E60022900019E0FFD3900044E09F900043E085
:1002F60094004023D2A4E490000DF090001B04F07B
:10030600900040F0E4A3F0A3F0900011E004F07038
:0803160006900010E004F02243
:100BDB00020A6BE493A3F8E493A34003F68001F2BB
:100BEB0008DFF48029E493A3F85407240CC8C3331B
:100BFB00C4540F4420C8834004F456800146F6DFEA
:100C0B00E4800B0102040810204080900003E47E76
:100C1B00019360BCA3FF543F30E509541FFEE493DE
:100C2B00A360010ECF54C025E060A840B8E493A3A5
:100C3B00FAE493A3F8E493A3C8C582C8CAC583CAD0
:100C4B00F0A3C8C582C8CAC583CADFE9DEE780BE88
:0100390000C6
:100DE900BB010689828A83E0225002E722BBFE0208
:090DF900E32289828A83E493223B
:100E0200A3F8E0C5F025F0F0E582158270021583A3
:060E1200E0C838F0E82200
:00000001FF
