:0300000002148B5C
:0C148B00787FE4F6D8FD7581210214D2B0
:1019B500E49000DAF0A3F07FF47E01121DE4121F1B
:1019C500E912129F7F647E00121EA19000DBE004E5
:1019D500F070069000DAE004F0D39000DBE0941D8F
:1019E5009000DAE09400400A1215A0E49000DAF0C5
:1019F500A3F0121907121D59121BFE120E9B121F7E
:031A0500B880C1E5
:101EA100EF1FAC0670011E4C60109000FFE004F0C3
:0A1EB10070EE9000FEE004F080E601
:011EBB002204
:081DE4009000FCEEF0A3EFF00B
:101DEC00E4FBFAD39000FDE09B9000FCE09A400EDF
:0E1DFC007FDE7E01121EA10BBB00010A80E5F6
:011E0A0022B5
:1011D6004100110041002000410000004100710063
:1011E60042000100006050002100000000000000E5
:1011F60000000000000000000000000000000000E9
:1012060000000000000000000000000000000000D8
:1012160000000000000000000000000000000000C8
:1012260000000000000000000000000000000000B8
:1012360000000000000000000042001E0000420006
:1012460017FFFF41000D0042000300004200190095
:101256000041001B0041001D0042007327104100A1
:061266000E00410014001F
:091FD200C29690000E7401F02289
:0E1F7F00E4FFFE0FBF00010EEF64284E70F568
:011F8D002231
:101F5D00900003E07004A3E064027003C2A022C2EB
:021F6D009022C0
:071EBC00F0A3E4F0A304F021
:101EC300900003E07004A3E064027003D2A022D266
:021ED30090225B
:101E320090001BE0B4010C90001DE0B40105D2A19A
:101E4200D2A622900003E07004A3E064027003D2E1
:051E5200A122D2A6222E
:101E570090001BE0B4010C90001DE0B40105B2A195
:101E6700B2A622900003E07004A3E064027003B2FC
:051E7700A122B2A62229
:1013490090011212031800000000900116120318F0
:1013590000000000900001E0FEA3E0FFEE60030240
:1013690013EDEF24FD600A04707A900072E00480A6
:1013790005900072E014F0900019E0FEA3E0FFE48C
:10138900FCFD7BB4FAF9F81201B590011212030CB5
:10139900900007E0FEA3E0FFE4FCFD900112E0F8F5
:1013A900A3E0F9A3E0FAA3E0FB1201B5E47BA07A7C
:1013B9008CF9F812024090011612030C900112E008
:1013C900FCA3E0FDA3E0FEA3E0FF90007512030C6F
:1013D900900116E0FCA3E0FDA3E0FEA3E0FF90006E
:0413E9000912030CD6
:0113ED0022DD
:101BFE0090000EE06035E4F0900014F0900001E0EB
:101C0E007004A3E064027005121F5D800F90000146
:101C1E00E07004A3E064037012121EC3900015E07E
:0C1C2E00FCA3E0FD7F327E00121DB722F7
:100D4100900014E06003020E9A900001E0FEA3E01F
:100D5100FFEE6003020E9AEF24FE60461460432406
:100D6100026003020E9A900003E07004A3E06401A4
:100D71007019900003F0A37402F0900001E4F0A355
:100D810004F0D2A074FFFDFC020E33900003E0706A
:100D910004A3E064026003020E9A90007204F00260
:100DA1000E83900003E07004A3E0640170409000A2
:100DB1001BE0B40125D290C2A0900003E4F0A3741B
:100DC10002F0900001E4F0A37402F090001D14F011
:100DD100900073E0FCA3E0FD80589000147401F0D2
:100DE10090000DF0900003E4F0A37402F022900053
:100DF10003E07004A3E064026003020E9A90001BFA
:100E0100E06401705C900001E07004A3E064027092
:100E110028D2A090001DF0900003F0A37402F0907E
:100E21000001E4F0A37403F0C297900073E0FCA307
:100E3100E0FD7F327E00021DB7900001E07004A347
:100E4100E06403705490001BF090007904F0A3F06B
:100E5100E4900003F0A3F0900001F0A3F0D297809A
:100E610032900001E0FEA3E0FF64024E70089000A2
:100E710072E004F0800CEF64034E7006900072E0A3
:100E810014F0E490000DF0900003F0A3F090000145
:0A0E9100F0A3F0120003121FDB2291
:061FE900121F8E021E7C97
:070003009000207401F022BF
:071FDB009000007401F022E8
:061FEF00E4900020F02246
:061FF500E4900000F02260
:061FFB00900020E0FF222F
:06200100900000E0FF2248
:0D1FAB00900072E0B401037F01227F00224C
:100FC400E49000F1F0A3F0A3F0A3F090000112016B
:100FD4003CFE90000212013CFDEDFF9000F1EEF0AA
:100FE400A3EFF090000312013C640160030210E8D7
:100FF40090000412013CFE90000512013CFDEDFF3F
:101004009000F3EEF0A3EFF09000F1E0FEA3E0FF18
:101014004E6024EF64024E601EEF64044E6018EFCD
:1010240064064E6012EF64084E600CEF640A4E6072
:1010340006EF640C4E700B9000F3E0FCA3E0FD029D
:101044000BD59000F1E0FEA3E0FFC3EE6480948131
:101054004014D3EF9450EE648094815009A3E0FCD3
:10106400A3E0FD0218AE9000F1E0FEA3E0FF640EE1
:101074004E600CEF641E4E6006EF642E4E700B90B3
:1010840000F3E0FCA3E0FD021A089000F1E0FEA3E7
:10109400E0FF64144E600CEF64164E6006EF6418B3
:1010A4004E70119000F1E0FEA3E0FFA3E0FCA3E08A
:1010B400FD021A5B9000F1E0FEA3E0FF64F04E60D5
:1010C40012EF64F24E600CEF64F44E6006EF64F6C7
:1010D4004E70119000F1E0FEA3E0FFA3E0FCA3E05A
:0410E400FD121AA53A
:0110E80022E5
:101AA5009000F5EEF0A3EFF064F04E70047F028035
:101AB5002E9000F5E07004A3E064F270047F0780C7
:101AC5001E9000F5E07004A3E064F470047F0880C4
:101AD5000E9000F5E07004A3E064F670067F07FE43
:061AE50012000E020003D6
:101A0800E49000F5F0A3F0EF640E4E70089000F536
:101A1800F0A3F08018EF641E4E6006EF642E4E703F
:101A28000C9000F5E4F0A37402F0121B769000719C
:101A3800E06012E4F07F04FE12000E7FE87E0312DD
:101A48001DE41209C39000F5E0FEA3E0FF12000EAA
:031A580002000386
:101A5B009000F7ECF0A3EDF09000F5EEF0A3EFF0B3
:101A6B0064144E7003021D899000F5E07004A3E02E
:101A7B00641670047F03800E9000F5E07004A3E001
:101A8B00641870067F02FE0213EE9000F7E0FFA3CE
:0A1A9B00E09000F7CFF0A3EFF02277
:101D8900900001E07002A3E0702390000DE0701D47
:101D9900900072E064016015900001E4F0A3041260
:0E1DA9001EBC74FFFDFC7F327E00121DB722AF
:1013EE00E4FDFC900001E07002A3E0600302148AA9
:1013FE0090000DE0600302148AD296E490000EF085
:10140E00EF64024E7033900072E02401FDE433FC71
:10141E00D3ED9428EC648094805061ED9401EC64DB
:10142E008094804057900001E4F0A37402F0A3E48E
:10143E00F0A304F0121F5D8031EF64034E702B9009
:10144E000072E024FFFDE434FFFCC3ED9401EC6474
:10145E008094804027ED9428EC64809480501D90F9
:10146E000001E4F0A37403121EBC1216A89000151E
:0C147E00E0FCA3E0FD7F327E00121DB7F1
:01148A00223F
:101C3A0090001BE064016033121FABEF602D90002F
:101C4A001B7401F0900003E4F0A304F0900001E497
:101C5A00F0A37402F0C290E490001DF0900073E0CB
:0C1C6A00FCA3E0FD7F327E00121DB722BB
:1017F800208011900079E0700590002004F090009E
:10180800797401F0308012900079E0B401069000FC
:10181800207401F0E4900079F020811190007AE0C2
:10182800700590002004F090007A7401F030811265
:1018380090007AE0B401069000207401F0E4900072
:0B1848007AF0208403C29122D291228A
:101D5900900001E07004A3E064017023900003E0A7
:101D69007004A3E064017005208014800F900003C3
:101D7900E07004A3E064027006208103121FE222CE
:101AEB00E4900015F0A3F0900005F0A3F090001225
:101AFB00F0A3F090007512031800000000E49000B2
:101B0B000FF0A3F090000912031800000000E490FE
:101B1B000007F0A3F0900072F0900000F09000200E
:061B2B00F0900011F02211
:10129F00E49000DCF0A3F0FF121AEB121F7F12078D
:1012AF0074EF600302133D90001504F0A37490F0E7
:1012BF009000057401F0A37490F0900012E4F0A375
:1012CF0074B4F090007512031800008CA090000FFA
:1012DF00E4F0A37464F0900007E4F0A374C8F0A3E3
:1012EF00120318000000C89000727401F0E490001F
:1012FF00DCF0A3F09000DCE0FEA3E0FFC39428EE47
:10130F00648094805025EF25E0FFEE33FE74212F8B
:10131F00F58274003EF583E4F0A3F09000DDE00465
:10132F00F070D19000DCE004F080C91209C3121BE9
:0A133F0076120003120E9B021F7FBE
:101F0600EF25E0FFEE33FE741F2FF58274003EF5D9
:071F160083E0FEA3E0FF22BF
:04151700AB07AA066E
:10151B00E49000E2F0A3F0FFFEFDFCA31203180021
:10152B00000000EB25E0FFEA33FE741F2FF58274F9
:10153B00003EF583E0FFA3E09000E2CFF0A3EFF0D5
:10154B00900012E0FEA3E0FFE4FCFD7B64FAF9F8E7
:10155B001201B5C006C00790000FE0FEA3E0FBAA86
:10156B0006E4F9F8D007D0061202409000E412030B
:10157B000C9000E2E0FEA3E0FFE4FCFDA3E0F8A387
:10158B00E0F9A3E0FAA3E0FB1201B5E47B0AFAF958
:04159B00F812024000
:01159F002229
:0810E9009000E2EEF0A3EFF02D
:1010F100E4FBFAA312031800000000E49000E8F0FA
:10110100A3F0A3F0A3F0A3120318000000009000C5
:10111100E2E07004A3E064017005FFFEFDFC227AA9
:10112100007B01D39000E3E09B9000E2E09A402233
:10113100AF03AE02121F069000EAEEF0A3EFF090AB
:1011410000E9E02FF09000E8E03EF00BBB00010A5F
:1011510080D1900012E0FEA3E0FFE4FCFD7B64FA85
:10116100F9F81201B5C006C00790000FE0FEA3E038
:10117100FBAA06E4F9F8D007D0061202409000EC71
:1011810012030C9000E8E0FEA3E0FFE4FCFD9000F8
:10119100ECE0F8A3E0F9A3E0FAA3E0FB1201B5A8A3
:1011A10004A905AA06AB07900007E0FEA3E0FFE44F
:1011B100FCFD1201B57B407A7E7905780012024070
:1011C1009000E412030C9000E4E0FCA3E0FDA3E036
:0411D100FEA3E0FF9A
:0111D50022F7
:100E9B00121FFBEF7003020FC3900072E0FF7E0086
:100EAB00121F06900015EEF0A3EFF0900072E0FF1A
:100EBB007E0012151790007512030C900072E0FF64
:100ECB007E001210E990000912030C900015E0FC53
:100EDB00A3E0FDE4FFFE121BBA900005E0FCA3E0CB
:100EEB00FD7F027E00121BBA900012E0FCA3E0FD16
:100EFB007F047E00121BBA900007E0FCA3E0FD7F8D
:100F0B00067E00121BBA90000FE0FCA3E0FD7F08E9
:100F1B007E00121BBA900009E0FCA3E0FDA3E0FEEB
:100F2B00A3E0FF9000E412030C7F0A7E001216244C
:100F3B00900075E0FCA3E0FDA3E0FEA3E0FF9000B2
:100F4B00E412030C7F0E7E00121624900072E0FD5B
:100F5B007C007F207E00121BBA121FABEFFD7C00C2
:100F6B007F227E00121BBAE49000DEF0A3F090000B
:100F7B00DEE0FEA3E0FFC39428EE6480948050353E
:100F8B00EF25E0FDEE33FCE42DFFEC3401FEA3F086
:100F9B00A3EFF074212DF58274003CF583E0FCA3E4
:100FAB00E0FD121BBA9000DFE004F070069000DE4B
:080FBB00E004F080B9121FEF01
:010FC300220B
:0D1FB800122001EF60061209C3121FF5226E
:10077400E49000DEF0A3F0A3F0A3F0A3F07F0AFE60
:10078400121DE47FC87E00121EEEEF64EE600302C9
:1007940009BDFFFE121EEEEF7F00FEC007C0060F6C
:1007A4007E00121EEEEFFDD0E0FFD0E04D9000156C
:1007B400CFF0A3EFF07F027E00121EEEEF7F00FE6B
:1007C400C007C0067F037E00121EEEEFFDD0E0FFDF
:1007D400D0E04D900005CFF0A3EFF07F047E00122F
:1007E4001EEEEF7F00FEC007C0067F057E00121ECE
:1007F400EEEFFDD0E0FFD0E04D900012CFF0A3EF7C
:10080400F07F067E00121EEEEF7F00FEC007C006DA
:100814007F077E00121EEEEFFDD0E0FFD0E04D908A
:100824000007CFF0A3EFF07F087E00121EEEEF7FEB
:1008340000FEC007C0067F097E00121EEEEFFDD049
:10084400E0FFD0E04D90000FCFF0A3EFF07F0C7EDF
:1008540000121EEEEF7F00FEC006C0077F0B7E0075
:10086400121EEE7E00EF7810C333CE33CED8F9FDDE
:10087400D0E02DFFD0E03EFEC006C0077F0D7E0015
:10088400121EEEEFFDD0E02DFFD0E03400FEC007D5
:10089400C0067F0A7E00121EEE7E00EF7818C33376
:1008A400CE33CED8F9FDD0E04EFED0E04DFFE4FCCF
:1008B400FD90000912030C7F107E00121EEEEF7FE4
:1008C40000FEC006C0077F0F7E00121EEE7E00EF02
:1008D4007810C333CE33CED8F9FDD0E02DFFD0E06D
:1008E4003EFEC006C0077F117E00121EEEEFFDD053
:1008F400E02DFFD0E03400FEC007C0067F0E7E006E
:10090400121EEE7E00EF7818C333CE33CED8F9FD35
:10091400D0E04EFED0E04DFFE4FCFD9000751203E4
:100924000C7F127E00121EEE900072EFF09000E039
:10093400E4F0A37414F0E49000DEF0A3F09000E07F
:10094400E0FEA3E0FF121EEEEF7F00FEC007C0062C
:100954009000E1E02401FF9000E0E03400FE121E6C
:10096400EEEFFDD0E0FCD0E04DFD9000DFE025E0AF
:10097400FF9000DEE033FE74212FF58274003EF513
:1009840083ECF0A3EDF09000E1E02402F09000E0AD
:10099400E03400F09000DFE004F070069000DEE048
:1009A40004F0C39000DFE094289000DEE0648094BB
:0E09B40080408A9000E27401F09000E2E0FFC3
:0109C2002212
:1009C300E49000F7F0A3F0A3F0A3F0A3F07F0AFEF6
:1009D300121DE4E4FFFE121F34900015E0FDE4FF56
:1009E300FE121ED5900015A3E0FD7F017E00121EAE
:1009F300D5900005E0FD7F027E00121ED590000514
:100A0300A3E0FD7F037E00121ED5900012E0FD7F60
:100A1300047E00121ED5900012A3E0FD7F057E0028
:100A2300121ED5900007E0FD7F067E00121ED590B2
:100A33000007A3E0FD7F077E00121ED590000FE0A4
:100A4300FD7F087E00121ED590000FA3E0FD7F09F5
:100A53007E00121ED5900009E0FCA3E0FDA3E0FE9A
:100A6300A3E0FF78181202F9E4AD077F0AFE121E15
:100A7300D5900009E0FCA3E0FDA3E0FEA3E0FF782E
:100A8300101202F9E4AD077F0BFE121ED590000988
:100A9300E0FCA3E0FDA3E0FEA3E0FF78081202F967
:100AA300E4AD077F0CFE121ED5900009E0FCA3A362
:100AB300A3E0FFE4AD077F0DFE121ED5900075E0A5
:100AC300FCA3E0FDA3E0FEA3E0FF78181202F9E423
:100AD300AD077F0EFE121ED5900075E0FCA3E0FD6E
:100AE300A3E0FEA3E0FF78101202F9E4AD077F0F45
:100AF300FE121ED5900075E0FCA3E0FDA3E0FEA36B
:100B0300E0FF78081202F9E4AD077F10FE121ED54C
:100B1300900075E0FCA3A3A3E0FFE4AD077F11FE03
:100B2300121ED5900072E0FD7F127E00121ED5903A
:100B330000F9E4F0A37414F0E49000F7F0A3F0904C
:100B430000F7E0FCA3E0FDC39428EC64809480509C
:100B530070ED25E0FFEC33FE74212FF58274003E27
:100B6300F583E0FD9000F9E0FEA3E0FF121ED590AF
:100B730000FAE02401FF9000F9E03400FEC006C053
:100B8300079000F8E025E0FF9000F7E033FE7421C2
:100B93002FF58274003EF583A3E0FDD007D0061243
:100BA3001ED59000FAE02402F09000F9E03400F042
:100BB3009000F8E004F070069000F7E004F0020BF8
:100BC300427DEE7FC87E00121ED59000FB7401F0BB
:010BD300FF22
:010BD40022FE
:100BD5009000F7ECF0A3EDF09000F5EEF0A3EFF048
:100BE5004E7020900015E0FEA3E0FF9000F7E0FCBA
:100BF500A3E0FD6F7002EC6E7003020D40900015CE
:100C0500020CAC9000F5E0FEA3E0FF64024E701FFD
:100C1500900005E0FCA3E0FD9000F7E0FAA3E0FBFF
:100C25006D7002EA6C7003020D40900005804FEF75
:100C350064044E701F900012E0FEA3E0FF9000F7E1
:100C4500E0FCA3E0FD6F7002EC6E7003020D4090B6
:100C5500001280539000F5E0FEA3E0FF64064E709D
:100C650023900007E0FCA3E0FD9000F7E0FAA3E085
:100C7500FB6D7002EA6C7003020D40900007EAF00C
:100C8500A3EB8027EF64084E702590000FE0FEA3CC
:100C9500E0FF9000F7E0FCA3E0FD6F7002EC6E70E2
:100CA50003020D4090000FECF0A3EDF0020D3A9019
:100CB50000F5E07004A3E0640A70389000F7E0FEE8
:100CC500A3E0FFEE3395E0FDFC900009E0F8A3E01A
:100CD500F9A3E0FAA3E0FBC31202E8605E9000F717
:100CE500E0FEA3E0FFEE3395E0FDFC900009120362
:100CF5000C80429000F5E07004A3E0640C703C9019
:100D050000F7E0FEA3E0FFEE3395E0FDFC900075F3
:100D1500E0F8A3E0F9A3E0FAA3E0FBC31202E86060
:100D25001A9000F7E0FEA3E0FFEE3395E0FDFC909E
:0C0D3500007512030C9000717401F02294
:0418AE00AB05AA04D8
:1018B2007E007C007D021201699000F5EEF0A3EF3C
:1018C200F0E025E0FF9000F5E033FE74212FF58271
:1018D20074003EF583E0FEA3E06B7002EE6A6024C2
:1018E200AD039000F6E025E0FF9000F5E033FE74D2
:1018F200212FF58274003EF583EAF0A3EDF090000B
:04190200717401F00B
:0119060022BE
:101B76007D277C00ED25E0FFEC33FE74212FF582F6
:101B860074003EF583E0FEA3E04E700BED1D700180
:101B96001CBCFFE0BDFFDDED2401FEE43C90001E11
:101BA600F0A3CEF0900021E0FFA3E0900073CFF009
:031BB600A3EFF0AA
:011BB9002209
:1016A800900001E0FEA3E0FF64024E701D900072FE
:1016B800E025E0241FF582E43400F583E0FDA3E093
:1016C8009000F9CDF0A3EDF08021EF64034E701B7C
:1016D800900072E025E0241DF582E43400F583E0F3
:1016E800FFA3E09000F9CFF0A3EFF09000F9E0FE3F
:1016F800A3E0FFE4FCFD7BFF7AFFF9F8C31202D2F6
:1017080070069000F9F0A3F09000F9E0FEA3E0FF66
:10171800900015EEF0A3EFF0900019EEF0A3EFF0B3
:01172800229E
:101F4900AE071FEE600DE4FCFD0DED70010C4C6059
:031F5900EF80F620
:011F5C002262
:0D1FC500E4F5C7F5C5F5C675C380F5C42267
:101EEE0075C78375C5018FC4EEF5C375C65A75C621
:071EFE00A500AFC2121FC5D1
:011F050022B9
:101ED50075C78375C5028FC4EEF5C3AF058FC2758F
:091EE500C65A75C6A500021FC50E
:101F340075C78375C5038FC4EEF5C375C65A75C6D8
:051F4400A500021FC50D
:101CEE0025733D25640D0A00000000000000000071
:101CFE0000000000000000000000000000000000D6
:101D0E0000000000000000000000000000000000C5
:0A1D1E0000000000000000000000BB
:10126C00C1094F0102FFFFFFFFFFFFFFFFFFFFFF61
:10127C00FFFFFFFF4101110041010100410100008E
:0F1F8E00759A50759CFD438E1475AF01D2AF222A
:030043000219603F
:10196000C0E0C0F0C083C082C0D075D000C000C04D
:0D19700001C002C003C004C005C006C007CE
:10197D00E49000F0F053AFFEE59A30E00A539AFE82
:0D198D00AF9B1218538003539AFD43AF0126
:10199A00D007D006D005D004D003D002D001D000A1
:0B19AA00D0D0D082D083D0F0D0E0324B
:101F1D0053AFFE539AFD8F9BAE9AEE5402FE60F8BE
:061F2D00539AFD43AF01D1
:011F3300228B
:0B1C760090012AEBF0A3EAF0A3E9F0D4
:101C8100E4FF53AFFE539AFD90012AE0FBA3E0FA73
:101C9100A3E0F98F8275830012013C600DF59BE58D
:101CA1009A30E1FB539AFD0F80DE539AFD43AF0159
:011CB1002210
:101B3100900120EBF0A3EAF0A3E9F0A3ECF0A3ED10
:011B4100F0B3
:101B4200E4FDFCD3900124E09DEC6480F890012335
:101B5200E0648098401D900120E0FBA3E0FAA3E03E
:101B6200F98D828C8312013CFF121F1D0DBD0001F5
:031B72000C80D014
:011B7500224D
:1017290090007BEBF0A3EAF0A3E9F0A3ECF0A3EDC2
:01173900F0BF
:10173A00E4FE78807C007D017BFF7A1C79F67F329B
:10174A001201169000B574FFF0A3741CF0A374EE96
:10175A00F090007BE0F9A3E0FAA3E09000B8C9F0AA
:10176A00A3EAF0A3E9F090007EE0FFA3E09000BBBB
:10177A00CFF0A3EFF07B017A0079801204747B0129
:0B178A007A007980AD07AC06021B312D
:10185300900111E0146011146016146022240370C7
:1018630043EF645A70448010EFB4A502800A8035B8
:10187300900100EFF0E4A3F0900111E004F0229056
:101883000101E02402F582E43401F583EFF09001D5
:1018930001E004F0900100E0FFA3E0C39F400B12BE
:0B18A3001F6F800100E4900111F02293
:101F6F007B017A0179027D0F7C00120FC4D2092206
:101CB200759850AE038E9CEFB40105438780800B6C
:101CC200EF700553877F80037FFF22EDB401054348
:101CD2008E04800BED7005538EFB80037FFE224342
:0C1CE2008E01438E10D2ACD2AF7F0022E6
:0E1F9D00C2ACC2998F993099FDC299D2AC2284
:0B1D280090012DEBF0A3EAF0A3E9F01E
:101D3300E4FFC2AC90012DE0FBA3E0FAA3E0F98F2E
:101D43008275830012013C600AF5993099FDC299AE
:051D53000F80E1D2AC9D
:011D58002268
:04128C0041013000EC
:1015A000900130E0146020146033146060240370F4
:1015B0007130820C308309308506308603208763C2
:1015C0009001307401F02230820C3083093085069E
:1015D0003086032087469001307402F02220820476
:1015E0007F0280052083097F037E001213EE8016A0
:1015F000208505121C3A800E208605121D89800662
:10160000208703121FD29001307403F0223083131D
:1016100030821030850D30860A308707E490013023
:04162000F022002292
:0E129000420128000042012600004101251401
:01000A0022D3
:03000B0002179544
:10179500C0E0C0F0C083C082C0D075D008758A8B08
:1017A500758CFC90011A74FFF5F012019F45F070DD
:1017B50037D390011FE0940090011EE0940040167D
:1017C500121E3290011FE024FFF090011EE034FF4D
:1017D500F0121E578003120D4190011CE0FFA3E09B
:1017E50090011ACFF0A3EFF0D0D0D082D083D0F003
:0317F500D0E0320F
:101E7C00438E80758901758A8B758CFCD28CD2A9A6
:101E8C00D2AFE490011AF0A3F0A3F0A37432F0E403
:051E9C00A3F0A3F022F9
:10190700D390011FE0941490011EE09400401090C2
:10191700011DE024FFF090011CE034FFF0800E90E1
:10192700011DE004F0700690011CE004F090011C1A
:10193700E0FEA3E0FFC39401EE9400500990011C60
:10194700E4F0A304F022D3EF9432EE940040099020
:09195700011CE4F0A37432F0223B
:071FE200C28CC2A9020D41EF
:101DB700C28CC2A9D3EF9400EE9400400890011C96
:101DC700EEF0A3EFF0D3ED9400EC9400400AAF05DA
:0D1DD70090011EECF0A3EFF0D28CD2A922F7
:101624009000E2EEF0A3EFF07F5A121F1D7FA51287
:101634001F1D7F07121F1D7F82121F1D9000E2E0F5
:10164400FF121F1D9000E2A3E0FF121F1D9000E493
:10165400E0FCA3E0FDA3E0FEA3E0FF78181202F98A
:10166400E4121F1D9000E4E0FCA3E0FDA3E0FEA350
:10167400E0FF78101202F9E4121F1D9000E4E0FC70
:10168400A3E0FDA3E0FEA3E0FF78081202F9E41250
:101694001F1D9000E4E0FCA3E0FDA3E0FEA3E0FF37
:0416A400E4021F1D20
:101BBA009000E2EEF0A3EFF0A3ECF0A3EDF07F5A71
:101BCA00121F1D7FA5121F1D7F05121F1D7F821266
:101BDA001F1D9000E2E0FF121F1D9000E2A3E0FF2C
:101BEA00121F1D9000E4E0FF121F1D9000E4A3E005
:041BFA00FF021F1DAA
:10000E009000F7EEF0A3EFF07F5A121F1D7FA5129E
:10001E001F1D7F04121F1D7F80121F1D7F03121FC5
:10002E001D9000F7E0FF121F1D9000F7A3E0FF02E6
:02003E001F1D84
:101497000219B5E493A3F8E493A34003F68001F29D
:1014A70008DFF48029E493A3F85407240CC8C33356
:1014B700C4540F4420C8834004F456800146F6DF25
:1014C700E4800B01020408102040809011D6E47ECE
:1014D700019360BCA3FF543F30E509541FFEE4931A
:1014E700A360010ECF54C025E060A840B8E493A3E1
:1014F700FAE493A3F8E493A3C8C582C8CAC583CA0C
:10150700F0A3C8C582C8CAC583CADFE9DEE780BEC3
:01129E00004F
:10004600E709F608DFFA8046E709F208DFFA803E9C
:1000560088828C83E709F0A3DFFA8032E309F60889
:10006600DFFA8078E309F208DFFA807088828C83F1
:10007600E309F0A3DFFA806489828A83E0A3F608A5
:10008600DFFA805889828A83E0A3F208DFFA804C7F
:1000960080D280FA80C680D4806980F28033801056
:1000A60080A680EA809A80A880DA80E280CA8033BF
:1000B60089828A83ECFAE493A3C8C582C8CCC58337
:1000C600CCF0A3C8C582C8CCC583CCDFE9DEE78007
:1000D6000D89828A83E493A3F608DFF9ECFAA9F086
:1000E600EDFB2289828A83ECFAE0A3C8C582C8CCDC
:1000F600C583CCF0A3C8C582C8CCC583CCDFEADEF5
:10010600E880DB89828A83E493A3F208DFF980CC56
:1001160088F0EF60010E4E60C388F0ED2402B4044F
:100126000050B9F582EB2402B4040050AF232345F6
:0601360082239000967385
:10013C00BB010CE58229F582E5833AF583E0225078
:10014C0006E92582F8E622BBFE06E92582F8E222C2
:0D015C00E58229F582E5833AF583E49322DC
:10016900C2D5EC30E709B2D5E4C39DFDE49CFCEEB1
:1001790030E715B2D5E4C39FFFE49EFE120374C3B2
:10018900E49DFDE49CFC800312037430D507C3E4AD
:060199009FFFE49EFE2220
:10019F00A3F8E0C5F025F0F0E58215827002158313
:0601AF00E0C838F0E82270
:1001B500E88FF0A4CC8BF0A42CFCE98EF0A42CFCE9
:1001C5008AF0EDA42CFCEA8EF0A4CDA8F08BF0A467
:1001D5002DCC3825F0FDE98FF0A42CCD35F0FCEBC6
:1001E5008EF0A4FEA9F0EB8FF0A4CFC5F02ECD398B
:0F01F500FEE43CFCEAA42DCE35F0FDE43CFC22F8
:1002040075F008758200EF2FFFEE33FECD33CDCCB1
:1002140033CCC58233C5829BED9AEC99E582984034
:100224000CF582EE9BFEED9AFDEC99FC0FD5F0D611
:10023400E4CEFBE4CDFAE4CCF9A88222B800C1B93B
:100244000059BA002DEC8BF084CFCECDFCE5F0CB79
:10025400F97818EF2FFFEE33FEED33FDEC33FCEBB2
:1002640033FB10D703994004EB99FB0FD8E5E4F96D
:10027400FA227818EF2FFFEE33FEED33FDEC33FC5A
:10028400C933C910D7059BE99A4007EC9BFCE99A4E
:10029400F90FD8E0E4C9FAE4CCFB2275F010EF2F93
:1002A400FFEE33FEED33FDCC33CCC833C810D70793
:1002B4009BEC9AE899400AED9BFDEC9AFCE899F8CE
:0E02C4000FD5F0DAE4CDFBE4CCFAE4C8F92261
:1002D200EB9FF5F0EA9E42F0E99D42F0EC6480C8A3
:0602E20064809845F02243
:1002E800EB9FF5F0EA9E42F0E99D42F0E89C45F06C
:0102F80022E3
:1002F900E8600FECC313FCED13FDEE13FEEF13FFE3
:03030900D8F12206
:0C030C00ECF0A3EDF0A3EEF0A3EFF02264
:10031800A8828583F0D083D08212032F12032F1274
:10032800032F12032FE473E493A3C583C5F0C58399
:10033800C8C582C8F0A3C583C5F0C583C8C582C82F
:010348002292
:10040F00E51024B5F582E43400F583E00510229061
:10041F0000B23007039000B5E475F0011203C90272
:10042F0003492000E97F2ED2008018EF540F24904B
:10043F00D43440D4FF30040BEF24BFB41A00500360
:10044F002461FFE511600215110514E51470020512
:10045F001330070E9000B2E475F0011203C9EF02DA
:10046F000362021E0B7403D2078003E4C207F51068
:10047F009000B21203E0E4F511F513F514E51160E5
:10048F00077F2012045280F57512FFC201C200C20D
:10049F0002C203C205C206C20812041EFF700D304D
:1004AF0007057F00120463AF14AE1322B4255FC299
:1004BF00D5C20412041EFF24D0B40A00501A75F0DE
:1004CF000A781130D50508B6FF0106C6A426F62016
:1004DF00D5047002D20380D924CFB41A00EF500490
:1004EF00C2E5D204020664D20180C6D20080C0D217
:1004FF000280BCD2D580BAD20580B47F20120452BC
:10050F002002077401B5110040F112040FFF12040D
:10051F005202048CD208D206809512040FFB1204EB
:10052F000FFA12040FF94A4B700679357A077BFFE1
:10053F0020022EE511602A7E008E82758300120143
:10054F003C60060EEE651270F0C2D5EBC0E0EAC05B
:10055F00E0E9C0E0EE1206ABD0E0F9D0E0FAD0E06F
:10056F00FB120349FF60AAEBC0E0EAC0E0E9C0E07C
:10057F00120452D0E02401F9D0E03400FAD0E0FBAD
:10058F00E5120460DCD512D980877BFF7A0679A744
:10059F00D202809C791080027908C206C2088008B6
:1005AF00D2D5790A8004790AC2D5E512047002F512
:1005BF0012E4FAFDFEFF12040FFC7B082001131258
:1005CF00040FFD7B1030000A12040FFE12040FFF00
:1005DF007B20EC3382D592D55013C3E43000069FB5
:1005EF00FFE49EFEE42001039DFDE49CFCE4CBF8B8
:1005FF00C201EC700CCFCECDCCE824F8F870F380AC
:10060F0017C3EF33FFEE33FEED33FDEC33FCEB336B
:10061F00FB994002FB0FD8E9EB300105F8D0E0C49D
:10062F0048B201C0E00AEC4D4E4F78207B0070C2FB
:10063F00EAB5120040BCC0E01206ADD0F0D0E02009
:10064F000104C4C0E0C4B201C0F012043BD0F0D525
:10065F00F0EB02048C1203E905295305A35804FAA1
:10066F004C04F64205A74F05AF4405AF49050F43AC
:08067F0005B5550599460599E2
:100687004505994707555004FE2D05022E05252BD4
:10069700050623052320073E2A04BE480000051D42
:1006A7003F3F3F00790AA2D5200314300509B9104E
:1006B700020404B9080104A2D5200602500104204F
:1006C70002689202B511005034C0E07F2030031950
:1006D7007F30A20272067205500F120704C202C2CF
:1006E70006C205C2087F30800F300503E9C0E0125B
:1006F7000452300503D0E0F9D0E0B511CC3005172E
:100707007F30B9100C1204527F583004077F78806D
:1007170003B908031204523002057F2D0204527FE9
:10072700202008F87F2B2006F322920280CF286E24
:10073700756C6C2900D20112040F3001F8C20178E0
:100747001130D50108F60204BE2D50434958120452
:100757000F2403B405004001E490075093120443AB
:0D076700743A120443D2037511040205A375
:10034900BB010689828A83E0225002E722BBFE02B2
:09035900E32289828A83E49322E5
:10036200BB010689828A83F0225002F722BBFE017A
:02037200F32274
:10037400BC000BBE0029EF8DF084FFADF022E4CC6D
:10038400F875F008EF2FFFEE33FEEC33FCEE9DEC36
:10039400984005FCEE9DFE0FD5F0E9E4CEFD22ED7C
:1003A400F8F5F0EE8420D21CFEADF075F008EF2FC6
:1003B400FFED33FD4007985006D5F0F222C398FDB7
:0503C4000FD5F0EA2254
:1003C900F8E0FBA3A3E0F925F0F0E58215827002BD
:0703D9001583E0FA38F02261
:0903E000EBF0A3EAF0A3E9F0221E
:1003E900D083D082F8E4937012740193700DA3A3A3
:1003F90093F8740193F5828883E4737402936860B7
:06040900EFA3A3A380DFB6
:101E0B00EFB40A07740D121E16740A309811A899B4
:101E1B00B8130CC2983098FDA899C298B811F63037
:071E2B0099FDC299F599220F
:00000001FF
