:0300000002039E5A
:0C039E00787FE4F6D8FD7581200203E5AD
:10042A00900021E0FD7C007F107E001206AB900058
:10043A001DE0FCA3E0FDE4FFFE1206AB900013E012
:10044A00FCA3E0FD7F027E001206AB90001BE0FCDD
:10045A00A3E0FD7F047E001206AB900015E0FCA32A
:10046A00E0FD7F067E001206AB900019E0FCA3E0D7
:10047A00FD7F087E001206AB900017E0FCA3E0FDAA
:10048A007F0A7E001206AB900022E0FCA3E0FD7F0B
:10049A000C7E001206AB90001FE0FD7C007F127EEE
:0404AA00000206AB9B
:1005F40020801190001FE0700590002004F090000E
:100604001F7401F030801290001FE0B401069000C6
:10061400207401F0E490001FF0208403C29122D2E0
:02062400912221
:1002FA007FF47E0112068412056712079A1206D04D
:10030A007F647E00120715D3900029E0949690002E
:10031A0028E094004010900027E024FFF090002687
:10032A00E034FFF0800E900027E004F070069000A1
:10033A0026E004F0900026E0FEA3E0FFC3940CEE52
:10034A009400500B900026E4F0A3740CF08012D3B2
:10035A00EF9432EE94004009900026E4F0A3743240
:10036A00F01205F4900001E060167F047E00120688
:10037A00F512017C7F027E001206F5E4900001F07E
:10038A00900020E0700302030A12042AE49000207D
:04039A00F002030A60
:10071500EF1FAC0670011E4C6010900033E004F032
:0A07250070EE900032E004F080E670
:01072F0022A7
:08068400900030EEF0A3EFF04E
:10068C00E4FBFAD3900031E09B900030E09A400EEE
:0E069C007FDE7E011207150BBB00010A80E510
:0106AA00222D
:1000460090002F7401F07F0A7E001206847FC87E1E
:1000560000120749EF64EE6003020171FFFE12070A
:1000660049EF7F00FEC007C0060F7E00120749EF6A
:10007600FDD0E0FFD0E04D90001DCFF0A3EFF07F64
:10008600027E00120749EF7F00FEC007C0067F030D
:100096007E00120749EFFDD0E0FFD0E04D9000133F
:1000A600CFF0A3EFF07F047E00120749EF7F00FE3A
:1000B600C007C0067F057E00120749EFFDD0E0FFAE
:1000C600D0E04D90001BCFF0A3EFF07F067E00122C
:1000D6000749EF7F00FEC007C0067F077E001207B4
:1000E60049EFFDD0E0FFD0E04D900015CFF0A3EF33
:1000F600F07F087E00120749EF7F00FEC007C006AA
:100106007F097E00120749EFFDD0E0FFD0E04D9059
:100116000019CFF0A3EFF07F0A7E00120749EF7FA8
:1001260000FEC007C0067F0B7E00120749EFFDD018
:10013600E0FFD0E04D900017CFF0A3EFF07F0C7EEC
:1001460000120749EF7F00FEC007C0067F0D7E0044
:10015600120749EFFDD0E0FFD0E04D900022CFF02E
:10016600A3EFF090002F7401F08005E490002FF0CB
:0501760090002FE0FFE6
:01017B002261
:100567009000217401F0120046EF704190001D04C5
:10057700F0A37490F09000137401F0A37490F090BE
:10058700001BE4F0A374B4F0900015E4F0A374C862
:10059700F0900019E4F0A37464F0900017E4F0A35E
:1005A70074C8F0900022748CF0A374A0F0E490005B
:0605B7001FF0A304F02276
:10017C0090002F7401F07F0A7E00120684E4FFFECB
:10018C0012076190001DE0FDE4FFFE1207309000A5
:10019C001DA3E0FD7F017E00120730900013E0FDEF
:1001AC007F027E00120730900013A3E0FD7F037ED8
:1001BC000012073090001BE0FD7F047E0012073018
:1001CC0090001BA3E0FD7F057E0012073090001508
:1001DC00E0FD7F067E00120730900015A3E0FD7F46
:1001EC00077E00120730900019E0FD7F087E001298
:1001FC000730900019A3E0FD7F097E0012073090B4
:10020C000017E0FD7F0A7E00120730900017A3E074
:10021C00FD7F0B7E00120730900022E0FD7F0C7EEC
:10022C0000120730900022A3E0FD7F0D7E00120724
:10023C00307DEE7FC87E00120730E4900020F090F5
:04024C00002FE0FFA0
:01025000228B
:10077600AE071FEE600DE4FCFD0DED70010C4C6044
:03078600EF80F60B
:01078900224D
:0D07A900E4F5C7F5C5F5C675C380F5C4229B
:1007490075C78375C5018FC4EEF5C375C65A75C6DD
:07075900A500AFC21207A9C1
:010760002276
:1007300075C78375C5028FC4EEF5C3AF058FC2754B
:09074000C65A75C6A5000207A9FE
:1007610075C78375C5038FC4EEF5C375C65A75C6C3
:05077100A5000207A92C
:1005BD00C100410001004F0003FFFFFFFFFFFFFFE0
:1005CD00FFFFFFFFFFFFFFFF410012004100020090
:0405DD0041000000D9
:0F079A00759A50759CFD438E1475AF01D2AF2236
:030043000206268C
:10062600C0E0C0F0C083C082C0D075D008E59A3063
:10063600E008539AFEAF9B1204AEE59A30E10553EB
:0F0646009AFDC201D0D0D082D083D0F0D0E03264
:07078A007F5A1207917FA5C1
:090791002001FDEFD201F59B22CD
:10000E00900034EBF0A3EAF0A3E9F0900034E0FBAB
:10001E00A3E0FAA3E0F91206556017900034A3E4AA
:10002E0075F00112066EA9F0FA120655FF1207912D
:03003E0080D92244
:1006AB00AB07AA0612078A7F051207917F821207F2
:1006BB0091EAFF120791AF03120791ECFF1207911A
:0506CB00AF05020791DC
:1006F500AD07AC0612078A7F041207917F801207A7
:10070500917F03120791ECFF120791AF0502079144
:1004AE00900012E01460111460161460242403707E
:1004BE0047EF645A70488012EFB4A502800C803961
:1004CE00900000EFF0E4900002F0900012E004F0D3
:1004DE0022900002E02403F582E43400F583EFF06D
:1004EE00900002E004F0900000E0FF900002E0C3F4
:0F04FE009F400B120251800100E4900012F02287
:10025100900007E0FEA3E0FDEDFF9000207401F0A7
:10026100900005E0FD700590001D8040EDB4020591
:100271009000138037900005E0FDB4040590001B49
:10028100802AEDB406059000158021900005E0FD5F
:10029100B408059000198014EDB40A059000178088
:1002A1000B900005E0FDB40C10900022EEF0A3EFDE
:1002B100F09000017401F0803DED6414603890000D
:1002C10005E0FFB41612C29090001DE0FDA3E0907E
:1002D1000028CDF0A3ED8014EFB4181AD29090004D
:1002E1001DE0FFA3E0900028CFF0A3EFF0900026DF
:0802F100E4F0A37432F0D20026
:0102F90022E2
:0405E100410037009E
:0100030022DA
:0E05E50042002D000042002B000041002A14AD
:0100040022D9
:03000B0002050DDE
:10050D00C0E0C0F0C083C082C0D075D008758A919C
:10051D00758CFF90002474FFF5F012066E45F07097
:10052D002ED3900029E09400900028E09400401014
:10053D00D2A6A3E024FFF0900028E034FFF0B2A68D
:10054D00900026E0FFA3E0900024CFF0A3EFF0D0C1
:0A055D00D0D082D083D0F0D0E0327D
:1006D000438E80758901758A91758CFFD28CD2A961
:1006E000D2AFE4900024F0A3F0A3F0A37432F0E4BE
:0506F000A3F0A3F022BD
:1003AA000202FAE493A3F8E493A34003F68001F26D
:1003BA0008DFF48029E493A3F85407240CC8C33354
:1003CA00C4540F4420C8834004F456800146F6DF23
:1003DA00E4800B01020408102040809005BDE47EF1
:1003EA00019360BCA3FF543F30E509541FFEE49318
:1003FA00A360010ECF54C025E060A840B8E493A3DF
:10040A00FAE493A3F8E493A3C8C582C8CAC583CA09
:10041A00F0A3C8C582C8CAC583CADFE9DEE780BEC1
:0105F3000007
:10065500BB010689828A83E0225002E722BBFE02A3
:09066500E32289828A83E49322D6
:10066E00A3F8E0C5F025F0F0E5821582700215833F
:06067E00E0C838F0E8229C
:00000001FF
