:030000000206A352
:0C06A300787FE4F6D8FD7581200206EA9D
:1007B50090000FE0FD7C007F107E00120A3590004E
:1007C5000BE0FCA3E0FDE4FFFE120A35900000E01B
:1007D500FCA3E0FD7F027E00120A35900009E0FCD3
:1007E500A3E0FD7F047E00120A35900002E0FCA321
:1007F500E0FD7F067E00120A35900006E0FCA3E0CE
:10080500FD7F087E00120A35900004E0FCA3E0FDA0
:100815007F0A7E00120A35900010E0FCA3E0FD7F00
:100825000C7E00120A3590000DE0FD7C007F127EE3
:0408350000020A357E
:10089800208011900012E0700590000E04F0900086
:1008A800127401F0308012900012E0B4010690003A
:1008B8000E7401F0E4900012F0208111900013E012
:1008C800700590000E04F09000137401F03081124E
:1008D800900013E0B4010690000E7401F0E490005B
:0B08E80013F0208403C29122D2912261
:10004600E4900027F0A3F0A3120397000000007FBE
:10005600F47E01120A0E1208F3120B24120A5A7FBA
:10006600647E00120A9F900028E004F0700690005B
:1000760027E004F0D3900028E0941D900027E09438
:1000860000400A12072FE4900027F0A3F0D3900057
:1000960037E09414900036E094004010900035E06C
:1000A60024FFF0900034E034FFF0800E900035E03D
:1000B60004F07006900034E004F0900034E0FEA3F3
:1000C600E0FFC39401EE9400500A900034E4F0A3DC
:1000D60004F08012D3EF9432EE940040099000347D
:1000E600E4F0A37432F0120898900013E0FF700752
:1000F600900012E0FE600890000D7401F0800AEF97
:100106007007EE700490000DF0900008E0B4011B3B
:1001160090000DE0B40114900036E4F0A37404F0EE
:1001260090000F7401F0E4900008F0900015E07064
:100136000302022B90000BE0FEA3E0FBAA06E4F903
:10014600F8900009E0FEA3E0FFE4FCFD12026E90C9
:10015600002912038B900006E0FEA3E0FBAA06E44A
:10016600F9F8900029E0FCA3E0FDA3E0FEA3E0FF80
:100176001202F9900010EEF0A3EFF090000BE0FEF3
:10018600A3E0FBAA06E4F9F8900009E0FEA3E0FF6D
:10019600E4FCFD12026E90002912038B900002E02F
:1001A600FEA3E0FFE4FCFD900029E0F8A3E0F9A33C
:1001B600E0FAA3E0FB12026E90002912038B900076
:1001C60029E0FCA3E0FDA3E0FEA3E0FFC006C00714
:1001D600900006E0FEA3E0FBAA06E4F9F8D007D0FB
:1001E600061202F990002912038BE47B107A0EF9AD
:1001F600F8900029E0FCA3E0FDA3E0FEA3E0FF12D7
:1002060002F9900004EEF0A3EFF07F047E00120ADC
:100216007F1205CE7F027E00120A7FE4900015F061
:1002260090000E04F090000EE070030200651207C5
:09023600B5E490000EF002006531
:100A9F00EF1FAC0670011E4C6010900031E004F0A7
:0A0AAF0070EE900030E004F080E6E5
:010AB900221A
:080A0E0090002EEEF0A3EFF0C2
:100A1600E4FBFAD390002FE09B90002EE09A400E64
:0E0A26007FDE7E01120A9F0BBB00010A80E5F5
:010A3400229F
:1003C80090002D7401F07F0A7E00120A0E7FC87E0D
:1003D80000120AD3EF64EE60030204A7FFFE120ABC
:1003E800D3EF7F00FEC007C0060F7E00120AD3EFCE
:1003F800FDD0E0FFD0E04D90000BCFF0A3EFF07FF1
:10040800067E00120AD3EF7F00FEC007C0067F07F2
:100418007E00120AD3EFFDD0E0FFD0E04D9000023D
:10042800CFF0A3EFF07F087E00120AD3EF7F00FE23
:10043800C007C0067F097E00120AD3EFFDD0E0FF97
:10044800D0E04D900006CFF0A3EFF07F0A7E0012B7
:100458000AD3EF7F00FEC007C0067F0B7E00120A9A
:10046800D3EFFDD0E0FFD0E04D900004CFF0A3EF34
:10047800F07F0C7E00120AD3EF7F00FEC007C00693
:100488007F0D7E00120AD3EFFDD0E0FFD0E04D9043
:100498000010CFF0A3EFF090002D7401F08033909E
:1004A800000B7406F0A37440F0900002E4F0A3740B
:1004B8000CF0900006E4F0A304F0900004E4F0A32C
:1004C800740CF09000107401F0A37468F0E49000CC
:1004D8002DF09000007417F0A374B6F0900009E4B2
:0A04E800F0A374E1F090002DE0FF96
:0104F20022E7
:1008F30090000F7401F01203C8EF704190000B04D5
:10090300F0A37490F09000007401F0A37490F09041
:100913000009E4F0A374B4F0900002E4F0A374C8F7
:10092300F0900006E4F0A37464F0900004E4F0A3F4
:1009330074C8F0900010748CF0A374A0F0E49000DD
:0B0943000DF0A304F0E4900008F02287
:1005CE0090002D7401F07F0A7E00120A0EE4FFFEE9
:1005DE00120AEB90000BE0FDE4FFFE120ABA900047
:1005EE000BA3E0FD7F017E00120ABA900000E0FD31
:1005FE007F027E00120ABA900000A3E0FD7F037E08
:10060E0000120ABA900009E0FD7F047E00120ABAB9
:10061E00900009A3E0FD7F057E00120ABA90000249
:10062E00E0FD7F067E00120ABA900002A3E0FD7F75
:10063E00077E00120ABA900006E0FD7F087E0012C7
:10064E000ABA900006A3E0FD7F097E00120ABA9056
:10065E000004E0FD7F0A7E00120ABA900004A3E0B7
:10066E00FD7F0B7E00120ABA900010E0FD7F0C7E1B
:10067E0000120ABA900010A3E0FD7F0D7E00120A50
:10068E00BA7DEE7FC87E00120ABAE490000EF0909A
:04069E00002DE0FF4C
:0106A2002235
:100B0000AE071FEE600DE4FCFD0DED70010C4C60B6
:030B1000EF80F67D
:010B130022BF
:0D0B3300E4F5C7F5C5F5C675C380F5C4220D
:100AD30075C78375C5018FC4EEF5C375C65A75C650
:070AE300A500AFC2120B33A6
:010AEA0022E9
:100ABA0075C78375C5028FC4EEF5C3AF058FC275BE
:090ACA00C65A75C6A500020B33E3
:100AEB0075C78375C5038FC4EEF5C375C65A75C636
:050AFB00A500020B3311
:1009A800C100410015004F0017FFFFFFFFFFFFFFC9
:1009B800FFFFFFFFFFFFFFFF410026004100160079
:0409C80041001400D6
:0F0B2400759A50759CFD438E1475AF01D2AF22A8
:030043000209DFD0
:1009DF00C0E0C0F0C083C082C0D075D008E59A30A7
:1009EF00E008539AFEAF9B120839E59A30E10553A0
:0F09FF009AFDC201D0D0D082D083D0F0D0E032A8
:070B14007F5A120B1B7FA5A5
:090B1B002001FDEFD201F59B223F
:10000E0090003DEBF0A3EAF0A3E9F090003DE0FB99
:10001E00A3E0FAA3E0F912023F601790003DA3E4BB
:10002E0075F001120258A9F0FA12023FFF120B1BD3
:03003E0080D92244
:100A3500AB07AA06120B147F05120B1B7F82120B44
:100A45001BEAFF120B1BAF03120B1BECFF120B1B58
:050A5500AF05020B1BC0
:100A7F00AD07AC06120B147F04120B1B7F80120BF9
:100A8F001B7F03120B1BECFF120B1BAF05020B1B83
:10083900900026E0146011146016146024240370DB
:1008490047EF645A70488012EFB4A502800C8039D2
:10085900900014EFF0E4900016F0900026E004F008
:1008690022900016E02417F582E43400F583EFF0B6
:10087900900016E004F0900014E0FF900016E0C329
:0F0889009F400B1204F3800100E4900026F02240
:1004F30090001BE0FEA3E0FDEDFF900019E0FD700E
:100503000590000B803EED640270030205CB900062
:1005130019E0FD640470030205CBEDB406059000F9
:10052300028021900019E0FDB408059000068014B4
:10053300EDB40A05900004800B900019E0FDB40CA3
:100543000D900010EEF0A3EFF09000158077EDB45E
:10055300141FC29074FF900036F0A3F0900034E4AF
:10056300F0A37432F09000087401F090000EF08054
:1005730057900019E0FFB41625C29090000BE0FDE0
:10058300A3E0900036CDF0A3EDF090000FE014F05F
:10059300900034E4F0A37432F090000E8027EFB49F
:1005A3001826D29090000BE0FFA3E0900036CFF026
:1005B300A3EFF090000FE004F0900034E4F0A37494
:0A05C30032F090000E7401F0D20037
:0105CD00220B
:0409CC0041004000A6
:10072F00B2B7900040E01460171460211460692480
:10073F0003707130820320836C9000407401F022AB
:10074F003082032083589000407402F022208218D8
:10075F00D29090000BE0FFA3E0900036CFF0A3EF14
:10076F00F090000FE0048019208320C29090000BBE
:10077F00E0FFA3E0900036CFF0A3EFF090000FE082
:10078F0014F0900034E4F0A37432F090000E740172
:10079F00F09000407403F02230830A308207E49017
:0607AF000040F0220022D0
:0E09D00042003B000042003900004100381494
:0100030022DA
:03000B0002094E99
:10094E00C0E0C0F0C083C082C0D075D008758A8B5D
:10095E00758CFC90003274FFF5F012025845F07061
:10096E002ED3900037E09400900036E094004010B3
:10097E00D2A6A3E024FFF0900036E034FFF0B2A63A
:10098E00900034E0FFA3E0900032CFF0A3EFF0D060
:0A099E00D0D082D083D0F0D0E03238
:100A5A00438E80758901758A8B758CFCD28CD2A9DC
:100A6A00D2AFE4900032F0A3F0A3F0A37432F0E422
:050A7A00A3F0A3F0222F
:1006AF00020046E493A3F8E493A34003F68001F21B
:1006BF0008DFF48029E493A3F85407240CC8C3334C
:1006CF00C4540F4420C8834004F456800146F6DF1B
:1006DF00E4800B01020408102040809009A8E47EFA
:1006EF00019360BCA3FF543F30E509541FFEE49310
:1006FF00A360010ECF54C025E060A840B8E493A3D7
:10070F00FAE493A3F8E493A3C8C582C8CAC583CA01
:10071F00F0A3C8C582C8CAC583CADFE9DEE780BEB9
:0109DE000018
:10023F00BB010689828A83E0225002E722BBFE02BD
:09024F00E32289828A83E49322F0
:10025800A3F8E0C5F025F0F0E58215827002158359
:06026800E0C838F0E822B6
:10026E00E88FF0A4CC8BF0A42CFCE98EF0A42CFC2F
:10027E008AF0EDA42CFCEA8EF0A4CDA8F08BF0A4AD
:10028E002DCC3825F0FDE98FF0A42CCD35F0FCEB0C
:10029E008EF0A4FEA9F0EB8FF0A4CFC5F02ECD39D1
:0F02AE00FEE43CFCEAA42DCE35F0FDE43CFC223E
:1002BD0075F008758200EF2FFFEE33FECD33CDCCF8
:1002CD0033CCC58233C5829BED9AEC99E58298407B
:1002DD000CF582EE9BFEED9AFDEC99FC0FD5F0D658
:1002ED00E4CEFBE4CDFAE4CCF9A88222B800C1B982
:1002FD000059BA002DEC8BF084CFCECDFCE5F0CBC0
:10030D00F97818EF2FFFEE33FEED33FDEC33FCEBF8
:10031D0033FB10D703994004EB99FB0FD8E5E4F9B3
:10032D00FA227818EF2FFFEE33FEED33FDEC33FCA0
:10033D00C933C910D7059BE99A4007EC9BFCE99A94
:10034D00F90FD8E0E4C9FAE4CCFB2275F010EF2FD9
:10035D00FFEE33FEED33FDCC33CCC833C810D707D9
:10036D009BEC9AE899400AED9BFDEC9AFCE899F814
:0E037D000FD5F0DAE4CDFBE4CCFAE4C8F922A7
:0C038B00ECF0A3EDF0A3EEF0A3EFF022E5
:10039700A8828583F0D083D0821203AE1203AE12F7
:1003A70003AE1203AEE473E493A3C583C5F0C5831C
:1003B700C8C582C8F0A3C583C5F0C583C8C582C8B0
:0103C7002213
:00000001FF
