:0300000002166382
:0C166300787FE4F6D8FD7581210216AAFC
:101D0200E49000DEF0A3F07FF47E0112218612231C
:101D1200B41213DD7F647E0012225A9000DFE004C9
:101D2200F070069000DEE004F0D39000DFE0941D36
:101D32009000DEE09400400A1219E7E49000DEF021
:0D1D4200A3F0121B5B121FAB12233E80C7E3
:10225A00EF1FAC0670011E4C60109000F5E004F010
:0A226A0070EE9000F4E004F080E64E
:012274002247
:082186009000F2EEF0A3EFF06F
:10218E00E4FBFAD39000F3E09B9000F2E09A400E4D
:0E219E007FDE7E0112225A0BBB00010A80E593
:0121AC002210
:10130200410014004100230041000200410074002A
:1013120042000300006050002400000000000000B2
:1013220000000000000000000000000000000000BB
:1013320000000000000000000000000000000000AB
:10134200000000000000000000000000000000009B
:10135200000000000000000000000000000000008B
:1013620000000000000000000042002100004200D6
:101372001AFFFF41001000420005000042001C005D
:101382000041001E0041002000420076271041006B
:10139200110041001700410007004100780142009E
:0313A20000000048
:0923A400900000EEF0A3EFF0221E
:10187D00900007E06079E4F07DEE7F64FE12228E29
:10188D00900011E0FD7F657E0012228E900017E022
:10189D00FD7F667E0012228E900005E0FF3395E0FD
:1018AD00AD077F677E0012228E900005A3E0FD7FBD
:1018BD00687E0012228E900003E0FF3395E0AD07A5
:1018CD007F697E0012228E900003A3E0FD7F6A7E69
:1018DD000012228E900018E0FD7F6B7E0012228E8A
:1018ED00900018A3E0FD7F6C7E0012228ED297220D
:101484007F647E001222A7EF64EE60030215297FB9
:1014940065FE1222A7900011EFF07F667E001222F3
:1014A400A7900017EFF07F677E001222A7EF7F005E
:1014B400FEC007C0067F687E001222A7EFFDD0E0C1
:1014C400FFD0E04D900005CFF0A3EFF07F697E00E0
:1014D4001222A7EF7F00FEC007C0067F6A7E0012BB
:1014E40022A7EFFDD0E0FFD0E04D900003CFF0A3A2
:1014F400EFF07F6B7E001222A7EF7F00FEC007C0D3
:10150400067F6C7E001222A7EFFDD0E0FFD0E04DF5
:10151400900018CFF0A3EFF0900011E0B401069012
:0615240000107401F0222A
:10223D00900003E0FEA3E0FF64024E6006EF64032E
:0D224D004E70099000117401F0121CB022B7
:0E235E00E4FFFE0FBF00010EEF64284E70F585
:01236C00224E
:10227500900005E0FEA3E0FF64024E7003D2A022A9
:09228500EF64014E7002D29022B8
:07221D00F0A3E4F0A304F0BC
:10222400900005E0FEA3E0FF64024E7003C2A0220A
:09223400EF64014E7002C2902219
:10212E0090001EE0B4010C900020E0B40105D2A195
:10213E00D2A622900005E0FEA3E0FF64024E7003DB
:0C214E00D2A122EF64014E7002D2A62242
:10215A0090001EE0B4010C900020E0B40105B2A189
:10216A00B2A622900005E0FEA3E0FF64024E7003CF
:0C217A00B2A122EF64014E7002B2A62256
:10152A009001171203180000000090011B12031803
:10153A0000000000900003E0FEA3E0FFEE6003025B
:10154A0015CEEF24FD600A04707A900075E00480DD
:10155A0005900075E014F090001CE0FEA3E0FFE4A3
:10156A00FCFD7BB4FAF9F81201B590011712030CCD
:10157A0090000AE0FEA3E0FFE4FCFD900117E0F80A
:10158A00A3E0F9A3E0FAA3E0FB1201B5E47BA07A99
:10159A008CF9F812024090011B12030C900117E01B
:1015AA00FCA3E0FDA3E0FEA3E0FF90007912030C88
:1015BA0090011BE0FCA3E0FDA3E0FEA3E0FF900086
:0415CA000C12030CF0
:0115CE0022FA
:101CB000900011E0604BE4900010F0A3F09000174A
:101CC000F0900003E0FCA3E0FD64024C700BA3F075
:101CD000A37402F01222758011ED64034C700B9016
:101CE0000005F0A37402F01222241217FC900018D1
:101CF000E0FCA3E0FD4C60097F327E00122101C2AE
:021D0000962229
:100D3D00900017E06003020EA1900003E0FEA3E017
:100D4D00FFEE6003020EA1EF24FE605A14605724DB
:100D5D00026003020EA1900005E07004A3E064019F
:100D6D007022900003F0A304F0A3E4F0A37402F04A
:100D7D0012222474FFFDFC7F327E00122101E490CB
:100D8D000017F022900005E07004A3E064026003F8
:100D9D00020EA190007504F0E412232B12000390B3
:100DAD0000787401F022900005E07004A3E0640166
:100DBD00704490001EE0B4011CC290D2A0900005BA
:100DCD00E4F0A37402F0900003E4F0A37402F09039
:100DDD00002014805A9000177401F0900010F090CC
:100DED000005E4F0A37402F0A314F0E4900078F091
:100DFD00120003D29722900005E07004A3E0640274
:100E0D006003020EA190001EE06401705990000372
:100E1D00E07004A3E064027026C2A0900020F09060
:100E2D000005F0A37402F0900003E4F0A37403F046
:100E3D00900076E0FCA3E0FD7F327E000221019060
:100E4D000003E07004A3E06403704990001EF0906D
:100E5D00007D04F0A3F0E4900005F0A3F0900003F2
:100E6D00F0A3F0022337900003E0FEA3E0FF64023D
:100E7D004E7008900075E004F0800CEF64034E7026
:100E8D0006900075E014F0E4900010F012232B1280
:050E9D000003D29622C3
:0623B40012236D0221D48A
:0C232B00900005F0A3F0900003F0A3F078
:072337009000237401F02265
:070003009000027401F022DD
:0623BA00E4900023F02274
:0623C000E4900002F0228F
:0623C600900023E0FF225D
:0623CC00900002E0FF2278
:0D238A00900075E0B401037F01227F002266
:10100200E49000ECF0A3F0A3F0A3F0900001120131
:101012003CFE90000212013CFDEDFF9000ECEEF070
:10102200A3EFF090000312013C6401600302112659
:1010320090000412013CFE90000512013CFDEDFF00
:101042009000EEEEF0A3EFF09000ECE0FEA3E0FFE4
:101052004E6024EF64024E601EEF64044E6018EF8F
:1010620064064E6012EF64084E600CEF640A4E6034
:1010720006EF640C4E700B9000EEE0FCA3E0FD0264
:101082000BD19000ECE0FEA3E0FFC3EE64809481FC
:101092004014D3EF9450EE648094815009A3E0FC95
:1010A200A3E0FD021B029000ECE0FEA3E0FF640E51
:1010B2004E600CEF641E4E6006EF642E4E700B9075
:1010C20000EEE0FCA3E0FD021C5D9000ECE0FEA35C
:1010D200E0FF64144E600CEF64164E6006EF641875
:1010E2004E70119000ECE0FEA3E0FFA3E0FCA3E051
:1010F200FD021D4F9000ECE0FEA3E0FF64F04E60A5
:1011020012EF64F24E600CEF64F44E6006EF64F688
:101112004E70119000ECE0FEA3E0FFA3E0FCA3E020
:04112200FD121D9904
:0111260022A6
:101D99009000F0EEF0A3EFF064F04E70047F028043
:101DA9002E9000F0E07004A3E064F270047F0780D5
:101DB9001E9000F0E07004A3E064F470047F0880D2
:101DC9000E9000F0E07004A3E064F670067F07FE51
:061DD900121F3202233745
:101C5D00E49000F0F0A3F0EF640E4E70089000F0E9
:101C6D00F0A3F08018EF641E4E6006EF642E4E70E8
:101C7D000C9000F0E4F0A37402F0121E6A90007450
:101C8D00E06012E4F07F04FE121F327FE87E031243
:101C9D0021861209C69000F0E0FEA3E0FF121F326C
:031CAD00022337D8
:101D4F009000F2ECF0A3EDF09000F0EEF0A3EFF0C6
:101D5F0064144E70030220999000F0E07004A3E029
:101D6F00641670047F03800E9000F0E07004A3E00F
:101D7F00641870067F02FE0215CF9000F2E0FFA3F9
:0A1D8F00E09000F2CFF0A3EFF02285
:10209900900003E07002A3E0702C900010E070261D
:1020A900900075E06401601E900003E4F0A304123F
:1020B900221D74FFFDFC7F327E00122101E4900095
:0720C90017F0900011F02256
:1015CF00900003E07002A3E06003021662E4900053
:1015DF0011F0EF64024E7033900075E02401FDE4CA
:1015EF0033FCD3ED9428EC648094805066ED940125
:1015FF00EC64809480405C900003E4F0A37402F0EC
:10160F00A3E4F0A304F01222758031EF64034E704F
:10161F0042900075E024FFFDE434FFFCC3ED94011C
:10162F00EC64809480402CED9428EC64809480507E
:10163F0022900003E4F0A3740312221D1217FC90F2
:10164F000018E0FCA3E0FD4C60097F327E00122100
:03165F0001C2972E
:011662002265
:101F6F0090001EE06401603312238AEF602D900011
:101F7F001E7401F0900005E4F0A304F0900003E458
:101F8F00F0A37402F0D290E4900020F0900076E07D
:0C1F9F00FCA3E0FD7F327E001221012235
:101A4C0020801190007DE0700590002304F0900040
:101A5C007D7401F030801290007DE0B4010690009E
:101A6C00237401F0E490007DF020811190007EE061
:101A7C00700590002304F090007E7401F030811208
:101A8C0090007EE0B401069000237401F0E4900015
:0B1A9C007EF0208403C29122D2912230
:101FAB00900003E07004A3E06401702F900005E043
:101FBB007004A3E0640170062080200223AD900022
:101FCB0005E07004A3E06402701120810E1223ADB2
:0C1FDB00C2947F017E00122186D2942265
:101DDF00E4900018F0A3F0900008F0A3F090001525
:101DEF00F0A3F090007912031800000000E49000B7
:101DFF0012F0A3F090000C12031800000000E49002
:101E0F00000AF0A3F0900075F0900002F09000230C
:061E1F00F0900014F02217
:1013DD00E49000E0F0A3F0FF121DDF12235E120770
:1013ED0074EF600302147B90001804F0A37490F066
:1013FD009000087401F0A37490F0900015E4F0A330
:10140D0074B4F090007912031800008CA0900012B3
:10141D00E4F0A37464F090000AE4F0A374C8F0A3A0
:10142D00120318000000C89000757401F0E49000DC
:10143D00E0F0A3F09000E0E0FEA3E0FFC39428EEFF
:10144D00648094805025EF25E0FFEE33FE74242F49
:10145D00F58274003EF583E4F0A3F09000E1E00422
:10146D00F070D19000E0E004F080C91209C6121EA0
:07147D006A12233702235E0F
:1022BF00EF25E0FFEE33FE74222FF58274003EF51A
:0722CF0083E0FEA3E0FF2203
:0416EF00AB07AA0695
:1016F300E4900127F0A3F0FFFEFDFCA31203180002
:10170300000000EB25E0FFEA33FE74222FF582741C
:10171300003EF583E0FFA3E0900127CFF0A3EFF0B5
:10172300900015E0FEA3E0FFE4FCFD7B64FAF9F80A
:101733001201B5C006C007900012E0FEA3E0FBAAA9
:1017430006E4F9F8D007D0061202409001291203EB
:101753000C900127E0FEA3E0FFE4FCFDA3E0F8A367
:10176300E0F9A3E0FAA3E0FB1201B5E47B0AFAF97E
:04177300F812024026
:01177700224F
:08121500900109EEF0A3EFF0D7
:10121D00E4FBFAA312031800000000E490010FF0A4
:10122D00A3F0A3F0A3F0A312031800000000900197
:10123D0009E07004A3E064017005FFFEFDFC227A55
:10124D00007B01D390010AE09B900109E09A4022B6
:10125D00AF03AE021222BF900111EEF0A3EFF0909A
:10126D000110E02FF090010FE03EF00BBB00010AE2
:10127D0080D1900015E0FEA3E0FFE4FCFD7B64FA55
:10128D00F9F81201B5C006C007900012E0FEA3E008
:10129D00FBAA06E4F9F8D007D0061202409001131C
:1012AD0012030C90010FE0FEA3E0FFE4FCFD9001A2
:1012BD0013E0F8A3E0F9A3E0FAA3E0FB1201B5A84F
:1012CD0004A905AA06AB0790000AE0FEA3E0FFE41F
:1012DD00FCFD1201B57B407A7E7905780012024043
:1012ED0090010B12030C90010BE0FCA3E0FDA3E0B9
:0412FD00FEA3E0FF6D
:0113010022C9
:10000E00900075E0FF7E001222BF900018EEF0A364
:10001E00EFF0900075E0FF7E001216EF900079125F
:10002E00030C900075E0FF7E0012121590000C027A
:02003E00030CB1
:100EA200EE6003021001EF24FE603024FB700302A7
:100EB2000F60147003020FB12408600302100112C4
:100EC200000E900075E0FD7C007F207E00121EAEB9
:100ED20012238AEFFD7C007F22804812000E9000D0
:100EE20018E0FCA3E0FDE4FFFE121EAE900008E055
:100EF200FCA3E0FD7F027E00121EAE900015E0FC16
:100F0200A3E0FD7F047E00121EAE90000AE0FCA367
:100F1200E0FD7F067E00121EAE900012E0FCA3E010
:100F2200FD7F087E00121EAE90000CE0FCA3E0FDE7
:100F3200A3E0FEA3E0FF90012F12030C7F0A7E00C4
:100F4200121778900079E0FCA3E0FDA3E0FEA3E095
:100F5200FF90012F12030C7F0E7E00021778E4909F
:100F6200013DF0A3F090013DE0FEA3E0FFC3941425
:100F7200EE648094804003021001EF25E0FDEE3321
:100F8200FCE42DFFEC3401FEA3F0A3EFF074242D5A
:100F9200F58274003CF583E0FCA3E0FD121EAE90E6
:100FA200013EE004F070BE90013DE004F080B69096
:100FB200013DE4F0A37414F090013DE0FEA3E0FFD4
:100FC200C39428EE648094805035EF25E0FDEE3323
:100FD200FCE42DFFEC3401FEA3F0A3EFF074242D0A
:100FE200F58274003CF583E0FCA3E0FD121EAE9096
:0F0FF200013EE004F070C190013DE004F080B9D1
:0110010022CC
:1011270012000E900018E0FCA3E0FDE4FFFE121E83
:10113700AE900008E0FCA3E0FD7F027E00121EAE29
:10114700900015E0FCA3E0FD7F047E00121EAE9028
:10115700000AE0FCA3E0FD7F067E00121EAE9000B1
:1011670012E0FCA3E0FD7F087E00121EAE90000C8B
:10117700E0FCA3E0FDA3E0FEA3E0FF90012F120334
:101187000C7F0A7E00121778900079E0FCA3E0FD3F
:10119700A3E0FEA3E0FF90012F12030C7F0E7E0059
:1011A700121778900075E0FD7C007F207E00121EEC
:1011B700AE12238AEFFD7C007F227E00121EAEE472
:1011C700900141F0A3F0900141E0FEA3E0FFC3943A
:1011D70028EE648094805035EF25E0FDEE33FCE483
:1011E7002DFFEC3401FEA3F0A3EFF074242DF5825C
:1011F70074003CF583E0FCA3E0FD121EAE900142B3
:0D120700E004F07006900141E004F080B9B1
:0112140022B7
:1022ED001223C6EF600E900000E0FEA3E0FF120E79
:0522FD00A21223BA2229
:10233E001223CCEF60091209C612187D1223C02297
:10077400E49000E2F0A3F0A3F0A3F0A3F07F0AFE5C
:100784001221867FC87E001222A7EF64EE60030266
:1007940009BDFFFE1222A7EF7F00FEC007C0060FAF
:1007A4007E001222A7EFFDD0E0FFD0E04D900018AC
:1007B400CFF0A3EFF07F027E001222A7EF7F00FEAE
:1007C400C007C0067F037E001222A7EFFDD0E0FF22
:1007D400D0E04D900008CFF0A3EFF07F047E00122C
:1007E40022A7EF7F00FEC007C0067F057E0012220D
:1007F400A7EFFDD0E0FFD0E04D900015CFF0A3EFC0
:10080400F07F067E001222A7EF7F00FEC007C0061D
:100814007F077E001222A7EFFDD0E0FFD0E04D90CD
:10082400000ACFF0A3EFF07F087E001222A7EF7F2B
:1008340000FEC007C0067F097E001222A7EFFDD08C
:10084400E0FFD0E04D900012CFF0A3EFF07F0C7EDC
:10085400001222A7EF7F00FEC006C0077F0B7E00B8
:100864001222A77E00EF7810C333CE33CED8F9FD21
:10087400D0E02DFFD0E03EFEC006C0077F0D7E0015
:100884001222A7EFFDD0E02DFFD0E03400FEC00718
:10089400C0067F0A7E001222A77E00EF7818C333B9
:1008A400CE33CED8F9FDD0E04EFED0E04DFFE4FCCF
:1008B400FD90000C12030C7F107E001222A7EF7F24
:1008C40000FEC006C0077F0F7E001222A77E00EF45
:1008D4007810C333CE33CED8F9FDD0E02DFFD0E06D
:1008E4003EFEC006C0077F117E001222A7EFFDD096
:1008F400E02DFFD0E03400FEC007C0067F0E7E006E
:100904001222A77E00EF7818C333CE33CED8F9FD78
:10091400D0E04EFED0E04DFFE4FCFD9000791203E0
:100924000C7F127E001222A7900075EFF09000E475
:10093400E4F0A37414F0E49000E2F0A3F09000E477
:10094400E0FEA3E0FF1222A7EF7F00FEC007C0066F
:100954009000E5E02401FF9000E4E03400FE122260
:10096400A7EFFDD0E0FCD0E04DFD9000E3E025E0F2
:10097400FF9000E2E033FE74242FF58274003EF50C
:1009840083ECF0A3EDF09000E5E02402F09000E4A5
:10099400E03400F09000E3E004F070069000E2E040
:1009A40004F0C39000E3E094289000E2E0648094B3
:1009B40080408A9000E67401F01214849000E6E00E
:0109C400FF33
:0109C500220F
:1009C600E49000F2F0A3F0A3F0A3F0A3F0FFFE1270
:1009D6002302900018E0FDE4FFFE12228E9000181C
:1009E600A3E0FD7F017E0012228E900008E0FD7FCD
:1009F600027E0012228E900008A3E0FD7F037E0097
:100A060012228E900015E0FD7F047E0012228E9049
:100A16000015A3E0FD7F057E0012228E90000AE0FD
:100A2600FD7F067E0012228E90000AA3E0FD7F075E
:100A36007E0012228E900012E0FD7F087E001222B8
:100A46008E900012A3E0FD7F097E0012228E900098
:100A56000CE0FCA3E0FDA3E0FEA3E0FF7818120281
:100A6600F9E4AD077F0AFE12228E90000CE0FCA38B
:100A7600E0FDA3E0FEA3E0FF78101202F9E4AD0763
:100A86007F0BFE12228E90000CE0FCA3E0FDA3E09B
:100A9600FEA3E0FF78081202F9E4AD077F0CFE1210
:100AA600228E90000CE0FCA3A3A3E0FFE4AD077F39
:100AB6000DFE12228E900079E0FCA3E0FDA3E0FE7D
:100AC600A3E0FF78181202F9E4AD077F0EFE1222AA
:100AD6008E900079E0FCA3E0FDA3E0FEA3E0FF78A2
:100AE600101202F9E4AD077F0FFE12228E900079F4
:100AF600E0FCA3E0FDA3E0FEA3E0FF78081202F904
:100B0600E4AD077F10FE12228E900079E0FCA3A3CD
:100B1600A3E0FFE4AD077F11FE12228E900075E080
:100B2600FD7F127E0012228E9000F4E4F0A374146E
:100B3600F0E49000F2F0A3F09000F2E0FCA3E0FDF8
:100B4600C39428EC648094805070ED25E0FFEC336C
:100B5600FE74242FF58274003EF583E0FD9000F4C8
:100B6600E0FEA3E0FF12228E9000F5E02401FF9044
:100B760000F4E03400FEC006C0079000F3E025E074
:100B8600FF9000F2E033FE74242FF58274003EF5E8
:100B960083A3E0FDD007D00612228E9000F5E02454
:100BA60002F09000F4E03400F09000F3E004F070FE
:100BB600069000F2E004F0020B3E7DEE7FC87E0058
:0A0BC60012228E9000F67401F0FF79
:010BD0002202
:100BD1009000F2ECF0A3EDF09000F0EEF0A3EFF056
:100BE1004E7020900018E0FEA3E0FF9000F2E0FCC0
:100BF100A3E0FD6F7002EC6E7003020D3C900018D3
:100C0100020CA89000F0E0FEA3E0FF64024E701F0A
:100C1100900008E0FCA3E0FD9000F2E0FAA3E0FB05
:100C21006D7002EA6C7003020D3C900008804FEF7A
:100C310064044E701F900015E0FEA3E0FF9000F2E7
:100C4100E0FCA3E0FD6F7002EC6E7003020D3C90BE
:100C5100001580539000F0E0FEA3E0FF64064E70A3
:100C61002390000AE0FCA3E0FD9000F2E0FAA3E08B
:100C7100FB6D7002EA6C7003020D3C90000AEAF011
:100C8100A3EB8027EF64084E7025900012E0FEA3CD
:100C9100E0FF9000F2E0FCA3E0FD6F7002EC6E70EB
:100CA10003020D3C900012ECF0A3EDF0020D369022
:100CB10000F0E07004A3E0640A70389000F2E0FEF6
:100CC100A3E0FFEE3395E0FDFC90000CE0F8A3E01B
:100CD100F9A3E0FAA3E0FBC31202E8605E9000F220
:100CE100E0FEA3E0FFEE3395E0FDFC90000C120363
:100CF1000C80429000F0E07004A3E0640C703C9022
:100D010000F2E0FEA3E0FFEE3395E0FDFC900079F8
:100D1100E0F8A3E0F9A3E0FAA3E0FBC31202E86064
:100D21001A9000F2E0FEA3E0FFEE3395E0FDFC90A7
:0C0D3100007912030C9000747401F02291
:041B0200AB05AA0481
:101B06007E007C007D021201699000F0EEF0A3EFEA
:101B1600F0E025E0FF9000F0E033FE74242FF5821C
:101B260074003EF583E0FEA3E06B7002EE6A60246B
:101B3600AD039000F1E025E0FF9000F0E033FE7485
:101B4600242FF58274003EF583EAF0A3EDF09000B1
:041B5600747401F0B2
:011B5A002268
:101E6A007D277C00ED25E0FFEC33FE74242FF582FC
:101E7A0074003EF583E0FEA3E04E700BED1D700189
:101E8A001CBCFFE0BDFFDDED2401FEE43C90002117
:101E9A00F0A3CEF0900024E0FFA3E0900076CFF00C
:031EAA00A3EFF0B3
:011EAD002212
:1017FC00900003E0FEA3E0FF64024E701D900075A4
:10180C00E025E02422F582E43400F583E0FDA3E03A
:10181C009000F4CDF0A3EDF08021EF64034E701B2B
:10182C00900075E025E02420F582E43400F583E097
:10183C00FFA3E09000F4CFF0A3EFF09000F4E0FEF3
:10184C00A3E0FFE4FCFD7BFF7AFFF9F8C31202D2A0
:10185C0070069000F4F0A3F09000F4E0FEA3E0FF1B
:10186C00900018EEF0A3EFF090001CEEF0A3EFF058
:01187C002249
:10231700AE071FEE600DE4FCFD0DED70010C4C6087
:03232700EF80F64E
:01232A002290
:0D239700E4F5C7F5C5F5C675C380F5C42291
:1022A70075C78375C5018FC4EEF5C375C65A75C664
:0722B700A500AFC21223973E
:0122BE0022FD
:10228E0075C78375C5028FC4EEF5C3AF058FC275D2
:09229E00C65A75C6A5000223977B
:1023020075C78375C5038FC4EEF5C375C65A75C606
:05231200A50002239765
:10205F0025733D25640D0A000000000000000000FC
:10206F000000000000000000000000000000000061
:10207F000000000000000000000000000000000051
:0A208F000000000000000000000047
:1013A500C1094F00F9FFFFFFFFFFFFFFFFFFFFFF31
:1013B500FFFFFFFF410108004100F8004100F70071
:0F236D00759A50759CFD438E1475AF01D2AF2247
:03004300021BB4E9
:101BB400C0E0C0F0C083C082C0D075D000C000C0F7
:0D1BC40001C002C003C004C005C006C00778
:101BD100E49000EBF053AFFEE59A30E00A539AFE31
:0D1BE100AF9B121AA78003539AFD43AF017A
:101BEE00D007D006D005D004D003D002D001D0004B
:0B1BFE00D0D0D082D083D0F0D0E032F5
:1022D60053AFFE539AFD8F9BAE9AEE5402FE60F802
:0622E600539AFD43AF0115
:0122EC0022CF
:0B1FE700900149EBF0A3EAF0A3E9F041
:101FF200E4FF53AFFE539AFD900149E0FBA3E0FAE0
:10200200A3E0F98F8275830012013C600DF59BE518
:102012009A30E1FB539AFD0F80DE539AFD43AF01E4
:01202200229B
:101E2500900133EBF0A3EAF0A3E9F0A3ECF0A3ED06
:011E3500F0BC
:101E3600E4FDFCD3900137E09DEC6480F890013618
:101E4600E0648098401D900133E0FBA3E0FAA3E034
:101E5600F98D828C8312013CFF1222D60DBD000142
:031E66000C80D01D
:011E69002256
:10197B0090007FEBF0A3EAF0A3E9F0A3ECF0A3ED6A
:01198B00F06B
:10198C00E4FE78847C007D017BFF7A2079677F32CE
:10199C001201169000B974FFF0A37420F0A3745FC9
:1019AC00F090007FE0F9A3E0FAA3E09000BCC9F04E
:1019BC00A3EAF0A3E9F0900082E0FFA3E09000BF5F
:1019CC00CFF0A3EFF07B017A0079841204747B01D1
:0B19DC007A007984AD07AC06021E25DE
:101AA700900108E01460111460161460222403707A
:101AB70043EF645A70448010EFB4A502800A803562
:101AC7009000F7EFF0E4A3F0900108E004F0229013
:101AD70000F8E024F9F582E43400F583EFF0900094
:101AE700F8E004F09000F7E0FFA3E0C39F400B127B
:0B1AF700234E800100E4900108F02263
:10234E007B017A0079F97D0F7C00121002D20922EE
:10202300759850AE038E9CEFB40105438780800BF7
:10203300EF700553877F80037FFF22EDB4010543D3
:102043008E04800BED7005538EFB80037FFE2243CD
:0C2053008E01438E10D2ACD2AF7F002271
:0E237C00C2ACC2998F993099FDC299D2AC22A1
:0B20D00090014CEBF0A3EAF0A3E9F054
:1020DB00E4FFC2AC90014CE0FBA3E0FAA3E0F98F64
:1020EB008275830012013C600AF5993099FDC29903
:0520FB000F80E1D2ACF2
:0121000022BC
:0413C5004101500092
:1021F9002082047F0280052083077F037E00021569
:10220900CF208503021F6F208603022099208703B0
:0422190012223D222E
:1019E700900150E014602014603A146041240370A1
:1019F7005230820C308309308506308603208744B5
:101A07009001507401F0227F147E001221863082EB
:101A17000C308309308506308603208720900150DB
:101A27007402F0221221F99001507403F0223083DE
:101A37001330821030850D30860A308707E4900115
:051A470050F022002216
:101C0900900150E014601D14603324027044308246
:101C19000C308309308506308603208736900150C1
:101C29007401F02230820C30830930850630860336
:101C39002087191221F99001507402F02230831380
:101C490030821030850D30860A308707E4900150C4
:041C5900F022002253
:101EF200E490014FF030820C308309308506308641
:101F02000320871C7F147E0012218630820C3083CE
:101F12000930850630860320870690014F7401F050
:0F1F220090014FE0B401081221F9E490014FF053
:011F3100228D
:0E13C90042013B00004201390000410138148E
:01000A0022D3
:0513D70042011F0000AF
:03000B000218FDDB
:1018FD00C0E0C0F0C083C082C0D075D008758A8B9F
:10190D00758CFC90012174FFF5F012019F45F0706C
:10191D0052D3900126E09400900125E09400401EE2
:10192D0012212E12215A900126E024FFF09001255C
:10193D00E034FFF090011FE4F0A304F08016900155
:10194D001FE07004A3E06401700A120D3D90011FA9
:10195D00E4F0A3F0900123E0FFA3E0900121CFF08C
:0E196D00A3EFF0D0D0D082D083D0F0D0E03203
:1021D400438E80758901758A8B758CFCD28CD2A94B
:1021E400D2AFE4900121F0A3F0A3F0A37432F0E4A1
:0521F400A3F0A3F0229E
:101B5B00D3900126E09414900125E094004010905E
:101B6B000124E024FFF0900123E034FFF0800E907D
:101B7B000124E004F07006900123E004F0900123AF
:101B8B00E0FEA3E0FFC39401EE9400500990012303
:101B9B00E4F0A304F022D3EF9432EE9400400990CA
:091BAB000123E4F0A37432F022DE
:0723AD00C28CC2A9020D3D24
:10210100C28CC2A9D3EF9400EE9400400890012341
:10211100EEF0A3EFF0D3ED9400EC9400400AAF058C
:0D212100900125ECF0A3EFF0D28CD2A922A2
:1017780090012DEEF0A3EFF07F5A1222D67FA5122A
:1017880022D67F071222D67F821222D690012DE020
:10179800FF1222D690012DA3E0FF1222D690012F2E
:1017A800E0FCA3E0FDA3E0FEA3E0FF78181202F935
:1017B800E41222D690012FE0FCA3E0FDA3E0FEA3F3
:1017C800E0FF78101202F9E41222D690012FE0FC13
:1017D800A3E0FDA3E0FEA3E0FF78081202F9E412FB
:1017E80022D690012FE0FCA3E0FDA3E0FEA3E0FFDA
:0417F800E40222D60F
:101EAE00900145EEF0A3EFF0A3ECF0A3EDF07F5A16
:101EBE001222D67FA51222D67F051222D67F82123B
:101ECE0022D6900145E0FF1222D6900145A3E0FFF5
:101EDE001222D6900147E0FF1222D6900147A3E0CE
:041EEE00FF0222D6F7
:101F32009000F2EEF0A3EFF07F5A1222D67FA512A4
:101F420022D67F041222D67F801222D67F0312224B
:101F5200D69000F2E0FF1222D69000F2A3E0FF1228
:0D1F620022D69000F2E0FEA3E0FF0223A4CF
:10166F00021D02E493A3F8E493A34003F68001F272
:10167F0008DFF48029E493A3F85407240CC8C3337C
:10168F00C4540F4420C8834004F456800146F6DF4B
:10169F00E4800B0102040810204080901302E47EC6
:1016AF00019360BCA3FF543F30E509541FFEE49340
:1016BF00A360010ECF54C025E060A840B8E493A307
:1016CF00FAE493A3F8E493A3C8C582C8CAC583CA32
:1016DF00F0A3C8C582C8CAC583CADFE9DEE780BEEA
:0113DC000010
:10004600E709F608DFFA8046E709F208DFFA803E9C
:1000560088828C83E709F0A3DFFA8032E309F60889
:10006600DFFA8078E309F208DFFA807088828C83F1
:10007600E309F0A3DFFA806489828A83E0A3F608A5
:10008600DFFA805889828A83E0A3F208DFFA804C7F
:1000960080D280FA80C680D4806980F28033801056
:1000A60080A680EA809A80A880DA80E280CA8033BF
:1000B60089828A83ECFAE493A3C8C582C8CCC58337
:1000C600CCF0A3C8C582C8CCC583CCDFE9DEE78007
:1000D6000D89828A83E493A3F608DFF9ECFAA9F086
:1000E600EDFB2289828A83ECFAE0A3C8C582C8CCDC
:1000F600C583CCF0A3C8C582C8CCC583CCDFEADEF5
:10010600E880DB89828A83E493A3F208DFF980CC56
:1001160088F0EF60010E4E60C388F0ED2402B4044F
:100126000050B9F582EB2402B4040050AF232345F6
:0601360082239000967385
:10013C00BB010CE58229F582E5833AF583E0225078
:10014C0006E92582F8E622BBFE06E92582F8E222C2
:0D015C00E58229F582E5833AF583E49322DC
:10016900C2D5EC30E709B2D5E4C39DFDE49CFCEEB1
:1001790030E715B2D5E4C39FFFE49EFE120374C3B2
:10018900E49DFDE49CFC800312037430D507C3E4AD
:060199009FFFE49EFE2220
:10019F00A3F8E0C5F025F0F0E58215827002158313
:0601AF00E0C838F0E82270
:1001B500E88FF0A4CC8BF0A42CFCE98EF0A42CFCE9
:1001C5008AF0EDA42CFCEA8EF0A4CDA8F08BF0A467
:1001D5002DCC3825F0FDE98FF0A42CCD35F0FCEBC6
:1001E5008EF0A4FEA9F0EB8FF0A4CFC5F02ECD398B
:0F01F500FEE43CFCEAA42DCE35F0FDE43CFC22F8
:1002040075F008758200EF2FFFEE33FECD33CDCCB1
:1002140033CCC58233C5829BED9AEC99E582984034
:100224000CF582EE9BFEED9AFDEC99FC0FD5F0D611
:10023400E4CEFBE4CDFAE4CCF9A88222B800C1B93B
:100244000059BA002DEC8BF084CFCECDFCE5F0CB79
:10025400F97818EF2FFFEE33FEED33FDEC33FCEBB2
:1002640033FB10D703994004EB99FB0FD8E5E4F96D
:10027400FA227818EF2FFFEE33FEED33FDEC33FC5A
:10028400C933C910D7059BE99A4007EC9BFCE99A4E
:10029400F90FD8E0E4C9FAE4CCFB2275F010EF2F93
:1002A400FFEE33FEED33FDCC33CCC833C810D70793
:1002B4009BEC9AE899400AED9BFDEC9AFCE899F8CE
:0E02C4000FD5F0DAE4CDFBE4CCFAE4C8F92261
:1002D200EB9FF5F0EA9E42F0E99D42F0EC6480C8A3
:0602E20064809845F02243
:1002E800EB9FF5F0EA9E42F0E99D42F0E89C45F06C
:0102F80022E3
:1002F900E8600FECC313FCED13FDEE13FEEF13FFE3
:03030900D8F12206
:0C030C00ECF0A3EDF0A3EEF0A3EFF02264
:10031800A8828583F0D083D08212032F12032F1274
:10032800032F12032FE473E493A3C583C5F0C58399
:10033800C8C582C8F0A3C583C5F0C583C8C582C82F
:010348002292
:10040F00E51024B9F582E43400F583E0051022905D
:10041F0000B63007039000B9E475F0011203C9026A
:10042F0003492000E97F2ED2008018EF540F24904B
:10043F00D43440D4FF30040BEF24BFB41A00500360
:10044F002461FFE511600215110514E51470020512
:10045F001330070E9000B6E475F0011203C9EF02D6
:10046F0003620221AD7403D2078003E4C207F510C3
:10047F009000B61203E0E4F511F513F514E51160E1
:10048F00077F2012045280F57512FFC201C200C20D
:10049F0002C203C205C206C20812041EFF700D304D
:1004AF0007057F00120463AF14AE1322B4255FC299
:1004BF00D5C20412041EFF24D0B40A00501A75F0DE
:1004CF000A781130D50508B6FF0106C6A426F62016
:1004DF00D5047002D20380D924CFB41A00EF500490
:1004EF00C2E5D204020664D20180C6D20080C0D217
:1004FF000280BCD2D580BAD20580B47F20120452BC
:10050F002002077401B5110040F112040FFF12040D
:10051F005202048CD208D206809512040FFB1204EB
:10052F000FFA12040FF94A4B700679357A077BFFE1
:10053F0020022EE511602A7E008E82758300120143
:10054F003C60060EEE651270F0C2D5EBC0E0EAC05B
:10055F00E0E9C0E0EE1206ABD0E0F9D0E0FAD0E06F
:10056F00FB120349FF60AAEBC0E0EAC0E0E9C0E07C
:10057F00120452D0E02401F9D0E03400FAD0E0FBAD
:10058F00E5120460DCD512D980877BFF7A0679A744
:10059F00D202809C791080027908C206C2088008B6
:1005AF00D2D5790A8004790AC2D5E512047002F512
:1005BF0012E4FAFDFEFF12040FFC7B082001131258
:1005CF00040FFD7B1030000A12040FFE12040FFF00
:1005DF007B20EC3382D592D55013C3E43000069FB5
:1005EF00FFE49EFEE42001039DFDE49CFCE4CBF8B8
:1005FF00C201EC700CCFCECDCCE824F8F870F380AC
:10060F0017C3EF33FFEE33FEED33FDEC33FCEB336B
:10061F00FB994002FB0FD8E9EB300105F8D0E0C49D
:10062F0048B201C0E00AEC4D4E4F78207B0070C2FB
:10063F00EAB5120040BCC0E01206ADD0F0D0E02009
:10064F000104C4C0E0C4B201C0F012043BD0F0D525
:10065F00F0EB02048C1203E905295305A35804FAA1
:10066F004C04F64205A74F05AF4405AF49050F43AC
:08067F0005B5550599460599E2
:100687004505994707555004FE2D05022E05252BD4
:10069700050623052320073E2A04BE480000051D42
:1006A7003F3F3F00790AA2D5200314300509B9104E
:1006B700020404B9080104A2D5200602500104204F
:1006C70002689202B511005034C0E07F2030031950
:1006D7007F30A20272067205500F120704C202C2CF
:1006E70006C205C2087F30800F300503E9C0E0125B
:1006F7000452300503D0E0F9D0E0B511CC3005172E
:100707007F30B9100C1204527F583004077F78806D
:1007170003B908031204523002057F2D0204527FE9
:10072700202008F87F2B2006F322920280CF286E24
:10073700756C6C2900D20112040F3001F8C20178E0
:100747001130D50108F60204BE2D50434958120452
:100757000F2403B405004001E490075093120443AB
:0D076700743A120443D2037511040205A375
:10034900BB010689828A83E0225002E722BBFE02B2
:09035900E32289828A83E49322E5
:10036200BB010689828A83F0225002F722BBFE017A
:02037200F32274
:10037400BC000BBE0029EF8DF084FFADF022E4CC6D
:10038400F875F008EF2FFFEE33FEEC33FCEE9DEC36
:10039400984005FCEE9DFE0FD5F0E9E4CEFD22ED7C
:1003A400F8F5F0EE8420D21CFEADF075F008EF2FC6
:1003B400FFED33FD4007985006D5F0F222C398FDB7
:0503C4000FD5F0EA2254
:1003C900F8E0FBA3A3E0F925F0F0E58215827002BD
:0703D9001583E0FA38F02261
:0903E000EBF0A3EAF0A3E9F0221E
:1003E900D083D082F8E4937012740193700DA3A3A3
:1003F90093F8740193F5828883E4737402936860B7
:06040900EFA3A3A380DFB6
:1021AD00EFB40A07740D1221B8740A309811A8996A
:1021BD00B8130CC2983098FDA899C298B811F63092
:0721CD0099FDC299F599226A
:00000001FF
