:0300000002199A48
:0C199A00787FE4F6D8FD7581220219E187
:10201200E4900079F0A3F07FF47E011224431226AB
:102022004312179F7F647E0012250090007AE0041D
:10203200F07006900079E004F0D390007AE0941DED
:10204200900079E09400400A121C3CE4900079F080
:10205200A3F0121F641223B8121D8C1212681226EA
:032062002980C111
:10250000EF1FAC0670011E4C60109000BCE004F0A0
:0A25100070EE9000BBE004F080E6DE
:01251A00229E
:082443009000B9EEF0A3EFF0E8
:10244B00E4FBFAD39000BAE09B9000B9E09A400EFF
:0E245B007FDE7E011225000BBB00010A80E52A
:012469002250
:100BDE0070756C736553657474696E674E756D00D0
:100BEE0070756C736553657474696E674672657162
:100BFE00006D6F746F7253746570416E676C650033
:100C0E006D6F746F72526564756347656172526180
:100C1E0074696F006D6F746F72526F746174696F67
:100C2E006E416E676C6500736372657750697463AD
:100C3E00680062616C6C53637265770063757272E3
:100C4E00656E74506F736974696F6E006973537457
:100C5E00617274506F736974696F6E005374617250
:100C6E00745365636F6E644D6F746F72206D6F7425
:100C7E006F72416374696F6E0046696E6973685076
:100C8E00756C7365204D4F544F52464C41475F4F24
:100C9E004E450D0A0046696E69736850756C736532
:100CAE00204D4F544F52464C41475F54574F0D0AFB
:100CBE0000536574506172616D65746572005365A1
:100CCE0074526F746174696F6E416E676C65004823
:100CDE00616E646C6552657475726E0048616E6407
:100CEE006C654D6F746F720048616E646C65427511
:100CFE007474756F6E006572726F7200496E6974EE
:100D0E004D6F746F7200436F6E74726F6C4D6F74B3
:100D1E006F723A6261636B7761726400436F6E74D7
:100D2E00726F6C4D6F746F723A666F727761726428
:100D3E00006D6F746F722072756E6E696E670D0A3C
:100D4E00006D6F746F72416374696F6E00526573DC
:100D5E00657420706172616D65746572732E2E2ECE
:100D6E000D0A005573652064656661756C7420709C
:100D7E006172616D65746572730D0A00526561640E
:100D8E0020706172616D65746572732066726F6D2D
:100D9E0020454550524F4D0D0A00696E646578002E
:100DAE00726F746174696F6E416E676C654E756DAE
:040DBE0062657200F8
:1013A3004100100041001E004100000041006F0099
:1013B30042000100006050001F0000000000000018
:1013C300000000000000000000000000000000001A
:1013D300000000000000000000000000000000000A
:1013E30000000000000000000000000000000000FA
:1013F30000000000000000000000000000000000EA
:1014030000000000000000000042001C0000420039
:1014130015FFFF41000D00420003000042001700CA
:0E142300004100190041001B0042007127101B
:1014CC007BFF7A0B79DE900013E0FEA3E0FFE4FCD7
:1014DC00FD12221B7BFF7A0B79EE900005E0FEA338
:1014EC00E0FFE4FCFD12221B7BFF7A0B79FF9000DE
:1014FC0011E0FEA3E0FFE4FCFD12221B7BFF7A0C43
:10150C00790E90000EE0FEA3E0FFE4FCFD12221B1E
:10151C007BFF7A0C7922900073E0FCA3E0FDA3E042
:10152C00FEA3E0FF12221B7BFF7A0C79359000079B
:10153C00E0FEA3E0FFE4FCFD12221B7BFF7A0C799A
:10154C0040900009E0FCA3E0FDA3E0FEA3E0FF1245
:10155C00221B7BFF7A0C794A900070E0FFE4FCFDC3
:10156C00FE12221B12261CE4FCFDFE7BFF7A0C797A
:10157C005A12221BE490007DF0A3F090007DE0FC59
:10158C00A3E0FD2401FFE43CFEC006C007ED25E00E
:10159C00FFEC33FE741F2FF58274003EF583E0FEE2
:1015AC00A3E0FFE4FCFD90008112030CD007D006F1
:1015BC0012234D90007EE004F0700690007DE00454
:1015CC00F0C390007EE0942890007DE064809480CD
:0215DC0040A924
:0115DE0022EA
:1025BC00900003E07004A3E064027003C2A022C286
:0225CC0090225B
:07251B00F0A3E4F0A304F0BB
:10252200900003E07004A3E064027003D2A022D200
:022532009022F5
:10249100900019E0B4010C90001BE0B40105D2A139
:1024A100D2A622900003E07004A3E064027003D27C
:0524B100A122D2A622C9
:1024B600900019E0B4010C90001BE0B40105B2A134
:1024C600B2A622900003E07004A3E064027003B297
:0524D600A122B2A622C4
:1018530090019512031800000000900199120318DB
:1018630000000000900001E0FEA3E0FFEE60030231
:1018730018F7EF24FD600A04707A900070E004808A
:1018830005900070E014F0900017E0FEA3E0FFE481
:10189300FCFD7BB4FAF9F81201B590019512030C23
:1018A300900007E0FEA3E0FFE4FCFD900195E0F863
:1018B300A3E0F9A3E0FAA3E0FB1201B5E47BA07A6D
:1018C3008CF9F812024090019912030C900195E0F3
:1018D300FCA3E0FDA3E0FEA3E0FF90007312030C62
:1018E300900199E0FCA3E0FDA3E0FEA3E0FF9000DC
:0418F3000912030CC7
:0118F70022CE
:101D8C0090000DE0605DE4F07BFF7A0C796A9000C6
:101D9C0001E0FEA3E0FFEE3395E0FDFC12221B9068
:101DAC000001E07004A3E0640270051225BC800FF2
:101DBC00900001E07004A3E06403700D12252290E2
:101DCC000013E0FCA3E0FD8013900001E07004A37D
:101DDC00E06401700E12252274FFFDFC7F327E0040
:041DEC001224162285
:10110700900001E0FEA3E0FFEE6003021267EF2408
:10111700FE605A14605724026003021267900003AE
:10112700E07004A3E0640170237BFF7A0C798712D7
:101137000040900003E4F0A37402F0900001E4F093
:10114700A304F0D2A074FFFDFC021200900003E09C
:101157007004A3E0640260030212677BFF7A0C79D4
:10116700A31200409000707401F002125090000327
:10117700E07004A3E06401703C900019E0B401251D
:10118700D290C2A0900003E4F0A37402F090000193
:10119700E4F0A37402F090001B14F0900071E0FCDF
:1011A700A3E0FD805490000D7401F0900003E4F07B
:1011B700A37402F022900003E07004A3E0640260CD
:1011C70003021267900019E06401705C900001E06F
:1011D7007004A3E064027028D2A090001BF0900076
:1011E70003F0A37402F0900001E4F0A37403F0C2CB
:1011F70097900071E0FCA3E0FD7F327E0002241689
:10120700900001E07004A3E064037054900019F0AB
:1012170090007704F0A3F0E4900003F0A3F09000AF
:1012270001F0A3F0D2978032900001E0FEA3E0FF27
:1012370064024E7008900070E004F0800CEF6403C5
:101247004E7006900070E014F0E490000DF09000EE
:1012570003F0A3F0900001F0A3F01200031226554B
:011267002264
:092643001225FF1224DB02264CD3
:0700030090001E7401F022C1
:072655009000007401F02267
:06265C00E490001EF022D4
:06266200E4900000F022EC
:0626680090001EE0FF22BD
:06266E00900000E0FF22D5
:0D261C00900070E0B401037F01227F0022D6
:100DC200E49000AEF0A3F0A3F0A3F09000011201B2
:100DD2003CFE90000212013CFDEDFF9000AEEEF0F1
:100DE200A3EFF090000312013C64016003020F9A2A
:100DF20090000412013CFE90000512013CFDEDFF43
:100E02009000B0EEF0A3EFF09000AEE0FCA3E0FDA6
:100E12004C6024ED64024C601EED64044C6018EDDD
:100E220064064C6012ED64084C600CED640A4C6080
:100E320006ED640C4C70297BFF7A0C79BF9000B0F0
:100E4200E0FFA3E09000BBCFF0A3EFF01218F89000
:100E520000AEE0FEA3E0FFA3E0FCA3E0FD020F9BD7
:100E62009000AEE0FCA3E0FDC3EC648094814032CC
:100E7200D3ED9450EC6480948150277BFF7A0C79F7
:100E8200CCA3E0FFA3E09000BBCFF0A3EFF01218D9
:100E9200F89000AEE0FEA3E0FFA3E0FCA3E0FD02B9
:100EA2001CB19000AEE0FCA3E0FD640E4C600CEDC2
:100EB200641E4C6006ED642E4C70297BFF7A0C791F
:100EC200DD9000B0E0FFA3E09000BBCFF0A3EFF015
:100ED2001218F89000AEE0FEA3E0FFA3E0FCA3E04E
:100EE200FD0220659000AEE0FEA3E0FF64144E60B8
:100EF2000CEF64164E6006EF64184E702F7BFF7A7B
:100F02000C79EA9000AEE0FCA3E0FDA3E0FFA3E0D1
:100F12009000BBCFF0A3EFF01218F89000AEE0FE05
:100F2200A3E0FFA3E0FCA3E0FD021AAF9000AEE055
:100F3200FEA3E0FF64F04E6012EF64F24E600CEF2D
:100F420064F44E6006EF64F64E702F7BFF7A0C79E4
:100F5200F69000AEE0FCA3E0FDA3E0FFA3E090006A
:100F6200BBCFF0A3EFF01218F89000AEE0FEA3E0C2
:100F7200FFA3E0FCA3E0FD0221077BFF7A0D7904C9
:100F82009000AEE0FCA3E0FDA3E0FFA3E09000BB75
:080F9200CFF0A3EFF01218F8F4
:010F9A002234
:102107009000B2EEF0A3EFF064F04E70047F02800F
:102117002E9000B2E07004A3E064F270047F0780A1
:102127001E9000B2E07004A3E064F470047F08809E
:102137000E9000B2E07004A3E064F670067F07FE1D
:0621470012000E0200036D
:10206500E49000B2F0A3F0EF640E4E70089000B259
:10207500F0A3F08018EF641E4E6006EF642E4E70DC
:102085000C9000B2E4F0A37402F0121EAE90006F43
:10209500E06012E4F07F04FE12000E7FE87E03127A
:1020A50024431209CC9000B2E0FEA3E0FF12000E1B
:0320B50002000323
:101AAF009000B4ECF0A3EDF09000B2EEF0A3EFF0E5
:101ABF0064144E70217BFF7A0D790A9000B2E0FC1E
:101ACF00A3E0FDA3E0FFA3E09000BBCFF0A3EFF0F6
:101ADF001218F80223E89000B2E0FCA3E0FD6416B0
:101AEF004C701A7BFF7A0D7914A3E0FFA3E09000EE
:101AFF00BBCFF0A3EFF01218F87F0380259000B250
:101B0F00E0FCA3E0FD64184C701D7BFF7A0D792A71
:101B1F00A3E0FFA3E09000BBCFF0A3EFF01218F803
:081B2F007F027E001216CC2299
:1023E800900001E07002A3E0702390000DE0701DE2
:1023F800900070E064016015900001E4F0A30412FD
:0E240800251B74FFFDFC7F327E00122416227D
:0816CC009000B6EEF0A3EFF070
:1016D400E4A3F0A3F0900001E07002A3E070069090
:1016E400000DE060207BFF7A0D793F1200407BFF04
:1016F4007A0D794F900001E0FEA3E0FFEE3395E010
:10170400FDFC02221B9000B6E0FEA3E0FF64024E43
:10171400703C900070E02401FDE433FC9000B8F0CC
:10172400A3EDF0D39428EC64809480506DE0940190
:101734009000B8E0648094804060900001E4F0A3DD
:101744007402F0A3E4F0A304F01225BC803AEF6421
:10175400034E7034900070E024FFFFE434FFFE90E9
:1017640000B8F0A3EFF0C39401EE64809480402AA3
:10177400E094289000B8E064809480501D900001AB
:10178400E4F0A3740312251B121BBB900013E0FCAE
:0A179400A3E0FD7F327E0012241650
:01179E002228
:10225F00900019E06401603312261CEF602D90008E
:10226F00197401F0900003E4F0A304F0900001E46E
:10227F00F0A37402F0C290E490001BF0900071E0A4
:0C228F00FCA3E0FD7F327E00122416222A
:101E5300208011900077E0700590001E04F0900040
:101E6300777401F0308012900077E0B4010690009F
:101E73001E7401F0E4900077F0208111900078E067
:101E8300700590001E04F09000787401F030811208
:101E9300900078E0B4010690001E7401F0E4900015
:0B1EA30078F0208403C29122D291222B
:1023B800900001E07004A3E064017023900003E042
:1023C8007004A3E064017005208014800F9000035E
:1023D800E07004A3E0640270062081031225EF2256
:1020B8007BFF7A0D795B120040E4900013F0A3F0E7
:1020C800900005F0A3F0900011F0A3F090007312B7
:1020D800031800000000E490000EF0A3F09000093F
:1020E80012031800000000E4900007F0A3F090002D
:0F20F80070F0900000F090001EF0900010F022A9
:10179F00E490007BF0A3F0FF1220B81214CC1207D4
:1017AF0074EF60030218477BFF7A0D7971120040C6
:1017BF009000137401F0A37490F09000057401F081
:1017CF00A37490F0900011E4F0A374B4F090007340
:1017DF0012031800008CA090000EE4F0A37464F0C4
:1017EF00900007E4F0A374C8F0A3120318000000E0
:1017FF00C89000707401F0E490007BF0A3F09000AB
:10180F007BE0FEA3E0FFC39428EE64809480502514
:10181F00EF25E0FFEE33FE741F2FF58274003EF5C7
:10182F0083E4F0A3F090007CE004F070D190007B93
:10183F00E004F080C91209CC121EAE12000312127E
:04184F00680214CC4B
:10256500EF25E0FFEE33FE741D2FF58274003EF576
:0725750083E0FEA3E0FF225A
:041A2600AB07AA065A
:101A2A00E4900081F0A3F0FFFEFDFCA3120318006E
:101A3A00000000EB25E0FFEA33FE741D2FF58274E7
:101A4A00003EF583E0FFA3E0900081CFF0A3EFF022
:101A5A00900011E0FEA3E0FFE4FCFD7B64FAF9F8D4
:101A6A001201B5C006C00790000EE0FEA3E0FBAA73
:101A7A0006E4F9F8D007D006120240900083120358
:101A8A000C900081E0FEA3E0FFE4FCFDA3E0F8A3D4
:101A9A00E0F9A3E0FAA3E0FB1201B5E47B0AFAF944
:041AAA00F8120240EC
:011AAE002215
:0815DF00900081EEF0A3EFF093
:1015E700E4FBFAA312031800000000E4900087F060
:1015F700A3F0A3F0A3F0A3120318000000009000CB
:1016070081E07004A3E064017005FFFEFDFC227A0F
:10161700007B01D3900082E09B900081E09A4022FA
:10162700AF03AE02122565900089EEF0A3EFF090AC
:101637000088E02FF0900087E03EF00BBB00010A26
:1016470080D1900011E0FEA3E0FFE4FCFD7B64FA8B
:10165700F9F81201B5C006C00790000EE0FEA3E03E
:10166700FBAA06E4F9F8D007D00612024090008BD7
:1016770012030C900087E0FEA3E0FFE4FCFD90005E
:101687008BE0F8A3E0F9A3E0FAA3E0FB1201B5A809
:1016970004A905AA06AB07900007E0FEA3E0FFE454
:1016A700FCFD1201B57B407A7E7905780012024075
:1016B70090008312030C900083E0FCA3E0FDA3E0FD
:0416C700FEA3E0FF9F
:0116CB0022FC
:10126800122668EF70030213A27BFF7A0C794A906A
:101278000070E0FFE4FCFDFE12221B900070E0FF0E
:101288007E00122565900013EEF0A3EFF090007039
:10129800E0FF7E00121A2690007312030C90007073
:1012A800E0FF7E001215DF90000912030C90001376
:1012B800E0FCA3E0FDE4FFFE1221D7900005E0FC6E
:1012C800A3E0FD7F027E001221D7900011E0FCA36D
:1012D800E0FD7F047E001221D7900007E0FCA3E028
:1012E800FD7F067E001221D790000EE0FCA3E0FDF2
:1012F8007F087E001221D7900009E0FCA3E0FDA33F
:10130800E0FEA3E0FF90008312030C7F0A7E001228
:101318001B37900073E0FCA3E0FDA3E0FEA3E0FF11
:1013280090008312030C7F0E7E00121B3790007012
:10133800E0FD7C007F207E001221D712261CEFFDE5
:101348007C007F227E001221D7E490007DF0A3F07C
:1013580090007DE0FEA3E0FFC39428EE64809480B3
:101368005035EF25E0FDEE33FCE42DFFEC3401FEB3
:10137800A3F0A3EFF0741F2DF58274003CF583E011
:10138800FCA3E0FD1221D790007EE004F0700690E7
:0A139800007DE004F080B912265C2D
:0113A2002228
:0D26290012266EEF60061209CC1226622206
:10077400E490007DF0A3F0A3F0A3F0A3F07F0AFEC1
:100784001224437BFF7A0D798A1200407FC87E00D1
:1007940012254DEF64EE60030209C6FFFE12254DDB
:1007A400EF7F00FEC007C0060F7E0012254DEFFD4F
:1007B400D0E0FFD0E04D900013CFF0A3EFF07F0224
:1007C4007E0012254DEF7F00FEC007C0067F037E2A
:1007D4000012254DEFFDD0E0FFD0E04D900005CF95
:1007E400F0A3EFF07F047E0012254DEF7F00FEC0E2
:1007F40007C0067F057E0012254DEFFDD0E0FFD037
:10080400E04D900011CFF0A3EFF07F067E0012259B
:100814004DEF7F00FEC007C0067F077E0012254D06
:10082400EFFDD0E0FFD0E04D900007CFF0A3EFF054
:100834007F087E0012254DEF7F00FEC007C0067FB3
:10084400097E0012254DEFFDD0E0FFD0E04D900071
:100854000ECFF0A3EFF07F0C7E0012254DEF7F004A
:10086400FEC006C0077F0B7E0012254D7E00EF7888
:1008740010C333CE33CED8F9FDD0E02DFFD0E03E07
:10088400FEC006C0077F0D7E0012254DEFFDD0E0AF
:100894002DFFD0E03400FEC007C0067F0A7E0012A0
:1008A400254D7E00EF7818C333CE33CED8F9FDD072
:1008B400E04EFED0E04DFFE4FCFD90000912030C75
:1008C4007F107E0012254DEF7F00FEC006C0077F1B
:1008D4000F7E0012254D7E00EF7810C333CE33CE49
:1008E400D8F9FDD0E02DFFD0E03EFEC006C0077F62
:1008F400117E0012254DEFFDD0E02DFFD0E0340035
:10090400FEC007C0067F0E7E0012254D7E00EF78E4
:1009140018C333CE33CED8F9FDD0E04EFED0E04D2F
:10092400FFE4FCFD90007312030C7F127E0012257D
:100934004D900070EFF090007FE4F0A37414F0E4A5
:1009440090007DF0A3F090007FE0FEA3E0FF12256D
:100954004DEF7F00FEC007C006900080E02401FF39
:1009640090007FE03400FE12254DEFFDD0E0FCD076
:10097400E04DFD90007EE025E0FF90007DE033FE39
:10098400741F2FF58274003EF583ECF0A3EDF09014
:100994000080E02402F090007FE03400F090007EBC
:1009A400E004F0700690007DE004F0C390007EE067
:1009B400942890007DE064809480408A9000817443
:0709C40001F0900081E0FF4B
:0109CB002209
:1009CC00E49000B4F0A3F0A3F0A3F0A3F07F0AFE30
:1009DC00122443E4FFFE122593900013E0FDE4FF84
:1009EC00FE122534900013A3E0FD7F017E0012253A
:1009FC0034900005E0FD7F027E0012253490000546
:100A0C00A3E0FD7F037E00122534900011E0FD7FF2
:100A1C00047E00122534900011A3E0FD7F057E00BA
:100A2C00122534900007E0FD7F067E0012253490DD
:100A3C000007A3E0FD7F077E0012253490000EE036
:100A4C00FD7F087E0012253490000EA3E0FD7F0987
:100A5C007E00122534900009E0FCA3E0FDA3E0FE2B
:100A6C00A3E0FF78181202F9E4AD077F0AFE122505
:100A7C0034900009E0FCA3E0FDA3E0FEA3E0FF78C6
:100A8C00101202F9E4AD077F0BFE12253490000919
:100A9C00E0FCA3E0FDA3E0FEA3E0FF78081202F95E
:100AAC00E4AD077F0CFE122534900009E0FCA3A3F3
:100ABC00A3E0FFE4AD077F0DFE122534900073E038
:100ACC00FCA3E0FDA3E0FEA3E0FF78181202F9E41A
:100ADC00AD077F0EFE122534900073E0FCA3E0FD01
:100AEC00A3E0FEA3E0FF78101202F9E4AD077F0F3C
:100AFC00FE122534900073E0FCA3E0FDA3E0FEA3FE
:100B0C00E0FF78081202F9E4AD077F10FE122534DD
:100B1C00900073E0FCA3A3A3E0FFE4AD077F11FEFC
:100B2C00122534900070E0FD7F127E001225349067
:100B3C0000B6E4F0A37414F0E49000B4F0A3F090C9
:100B4C0000B4E0FCA3E0FDC39428EC6480948050D6
:100B5C0070ED25E0FFEC33FE741F2FF58274003E20
:100B6C00F583E0FD9000B6E0FEA3E0FF1225349083
:100B7C0000B7E02401FF9000B6E03400FEC006C0D0
:100B8C00079000B5E025E0FF9000B4E033FE741F41
:100B9C002FF58274003EF583A3E0FDD007D006123A
:100BAC0025349000B7E02402F09000B6E03400F059
:100BBC009000B5E004F070069000B4E004F0020B75
:100BCC004B7DEE7FC87E001225349000B87401F086
:010BDC00FF19
:010BDD0022F5
:100F9B009000B4ECF0A3EDF09000B2EEF0A3EFF004
:100FAB004E7020900013E0FEA3E0FF9000B4E0FC35
:100FBB00A3E0FD6F7002EC6E70030211069000133C
:100FCB000210729000B2E0FEA3E0FF64024E701FAD
:100FDB00900005E0FCA3E0FD9000B4E0FAA3E0FB79
:100FEB006D7002EA6C7003021106900005804FEFE2
:100FFB0064044E701F900011E0FEA3E0FF9000B45C
:10100B00E0FCA3E0FD6F7002EC6E70030211069022
:10101B00001180539000B2E0FEA3E0FF64064E7017
:10102B0023900007E0FCA3E0FD9000B4E0FAA3E0FE
:10103B00FB6D7002EA6C7003021106900007EAF078
:10104B00A3EB8027EF64084E702590000EE0FEA303
:10105B00E0FF9000B4E0FCA3E0FD6F7002EC6E705B
:10106B000302110690000EECF0A3EDF002110090BC
:10107B0000B2E07004A3E0640A70389000B4E0FEA4
:10108B00A3E0FFEE3395E0FDFC900009E0F8A3E050
:10109B00F9A3E0FAA3E0FBC31202E8605E9000B490
:1010AB00E0FEA3E0FFEE3395E0FDFC900009120398
:1010BB000C80429000B2E07004A3E0640C703C9092
:1010CB0000B4E0FEA3E0FFEE3395E0FDFC9000736F
:1010DB00E0F8A3E0F9A3E0FAA3E0FBC31202E86097
:1010EB001A9000B4E0FEA3E0FFEE3395E0FDFC9018
:0C10FB00007312030C90006F7401F022CF
:081CB1009000B2ECF0A3EDF08D
:101CB9007E007C007D02120169A3EEF0A3EFF07BA8
:101CC900FF7A0D79A89000B4E0FEA3E0FFEE33950A
:101CD900E0FDFC12221B9000B5E025E0FF9000B466
:101CE900E033FE741F2FF58274003EF583E0FCA3F8
:101CF900E0FD9000B2E0FAA3E0FB6D7002EA6C60CF
:101D090015741F2FF58274003EF583EAF0A3EBF0FA
:061D190090006F7401F060
:011D1F0022A1
:101EAE007D277C00ED25E0FFEC33FE741F2FF582BD
:101EBE0074003EF583E0FEA3E04E700BED1D700145
:101ECE001CBCFFE0BDFFDDED2401FEE43C90001CD8
:101EDE00F0A3CEF07BFF7A0D79AE90001CE0FEA34E
:101EEE00E0FFEE3395E0FDFC12221B90001FE0FF99
:0A1EFE00A3E0900071CFF0A3EFF015
:011F080022B6
:101BBB00900001E0FEA3E0FF64024E701D900070E8
:101BCB00E025E0241DF582E43400F583E0FDA3E07D
:101BDB009000BACDF0A3EDF08021EF64034E701BA3
:101BEB00900070E025E0241BF582E43400F583E0DF
:101BFB00FFA3E09000BACFF0A3EFF09000BAE0FEA5
:101C0B00A3E0FFE4FCFD7BFF7AFFF9F8C31202D2DD
:101C1B0070069000BAF0A3F09000BAE0FEA3E0FFCC
:101C2B00900013EEF0A3EFF0900017EEF0A3EFF09F
:011C3B002286
:1025A800AE071FEE600DE4FCFD0DED70010C4C60F4
:0325B800EF80F6BB
:0125BB0022FD
:0D263600E4F5C7F5C5F5C675C380F5C422EF
:10254D0075C78375C5018FC4EEF5C375C65A75C6BB
:07255D00A500AFC2122636F3
:012564002254
:1025340075C78375C5028FC4EEF5C3AF058FC27529
:09254400C65A75C6A50002263630
:1025930075C78375C5038FC4EEF5C375C65A75C673
:0525A300A50002263630
:1023130025733D25640D0A00000000000000000045
:1023230000000000000000000000000000000000AA
:10233300000000000000000000000000000000009A
:0A2343000000000000000000000090
:10143100C1124F0185FFFFFFFFFFFFFFFFFFFFFF0E
:10144100FFFFFFFF4101940041018400410183003E
:0F25FF00759A50759CFD438E1475AF01D2AF22B3
:03004300021FBDDC
:101FBD00C0E0C0F0C083C082C0D075D000C000C0EA
:0D1FCD0001C002C003C004C005C006C0076B
:101FDA00E49000ADF053AFFEE59A30E00A539AFE62
:0D1FEA00AF9B121F098003539AFD43AF0106
:101FF700D007D006D005D004D003D002D001D0003E
:0B200700D0D0D082D083D0F0D0E032E7
:10257C0053AFFE539AFD8F9BAE9AEE5402FE60F859
:06258C00539AFD43AF016C
:012592002226
:0B229B009001ADEBF0A3EAF0A3E9F026
:1022A600E4FF53AFFE539AFD9001ADE0FBA3E0FAC5
:1022B600A3E0F98F8275830012013C600DF59BE562
:1022C6009A30E1FB539AFD0F80DE539AFD43AF012E
:0122D60022E5
:10214D009001A3EBF0A3EAF0A3E9F0A3ECF0A3ED6B
:01215D00F091
:10215E00E4FDFCD39001A7E09DEC6480F89001A60D
:10216E00E0648098401D9001A3E0FBA3E0FAA3E099
:10217E00F98D828C8312013CFF12257C0DBD00016E
:03218E000C80D0F2
:01219100222B
:101D200090014CEBF0A3EAF0A3E9F0A3ECF0A3EDF3
:011D3000F0C2
:101D3100E4FE78517C017D017BFF7A23791B7F32A0
:101D41001201169000C074FFF0A37423F0A3741362
:101D5100F090014CE0F9A3E0FAA3E09000C3C9F0D0
:101D6100A3EAF0A3E9F090014FE0FFA3E09000C6E1
:101D7100CFF0A3EFF07B017A0179511204747B015A
:0B1D81007A017951AD07AC0602214D3C
:101F0900900194E014601114601614602224037087
:101F190043EF645A70448010EFB4A502800A8035FB
:101F2900900183EFF0E4A3F0900194E004F0229093
:101F39000184E02485F582E43401F583EFF0900112
:101F490084E004F0900183E0FFA3E0C39F400B12FB
:0B1F590025DF800100E4900194F022DD
:1025DF007B017A0179857D0F7C00120DC2D2122208
:1022D700759850AE038E9CEFB40105438780800B41
:1022E700EF700553877F80037FFF22EDB40105431D
:1022F7008E04800BED7005538EFB80037FFE224317
:0C2307008E01438E10D2ACD2AF7F0022BA
:0E260E00C2ACC2998F993099FDC299D2AC220C
:0B2387009000E5EBF0A3EAF0A3E9F002
:10239200E4FFC2AC9000E5E0FBA3E0FAA3E0F98F12
:1023A2008275830012013C600AF5993099FDC29949
:0523B2000F80E1D2AC38
:0123B7002203
:041451004101B000A5
:101C3C00B2B79001B0E014601D14602D14605224F2
:101C4C0003706030820930830630850320865590FE
:101C5C0001B07401F02230820930830630850320F4
:101C6C00863B9001B07402F0222082047F02800532
:101C7C002083097F037E001216CC800E208505126E
:101C8C00225F80062086031223E89001B07403F0D3
:101C9C002230831030820D30850A308607E49001A3
:051CAC00B0F02200224F
:0E1455004201AB00004201A900004101A814B1
:01000A0022D3
:1025CE0053746F7050756C736554696D65720D0A36
:0125DE0000FC
:03000B00021DF0E3
:101DF000C0E0C0F0C083C082C0D075D008758A8BA7
:101E0000758CFC90019D74FFF5F012019F45F070F8
:101E100037D39001A2E094009001A1E09400401615
:101E20001224919001A2E024FFF09001A1E034FF80
:101E3000F01224B6800312110790019FE0FFA3E087
:101E400090019DCFF0A3EFF0D0D0D082D083D0F01E
:031E5000D0E032AD
:1024DB00438E80758901758A8B758CFCD28CD2A941
:1024EB00D2AFE490019DF0A3F0A3F0A37432F0E41B
:0524FB00A3F0A3F02294
:101F6400D39001A2E094149001A1E0940040109059
:101F740001A0E024FFF090019FE034FFF0800E9078
:101F840001A0E004F0700690019FE004F090019F2E
:101F9400E0FEA3E0FFC39401EE9400500990019F7A
:101FA400E4F0A304F022D3EF9432EE9400400990BD
:091FB400019FE4F0A37432F02255
:1025EF00C28CC2A91211077BFF7A2579CE02004057
:10241600C28CC2A9D3EF9400EE9400400890019FAD
:10242600EEF0A3EFF0D3ED9400EC9400400AAF0574
:0D2436009001A1ECF0A3EFF0D28CD2A9220E
:101B3700900081EEF0A3EFF07F5A12257C7FA5126B
:101B4700257C7F0712257C7F8212257C900081E00F
:101B5700FF12257C900081A3E0FF12257C90008373
:101B6700E0FCA3E0FDA3E0FEA3E0FF78181202F972
:101B7700E412257C900083E0FCA3E0FDA3E0FEA334
:101B8700E0FF78101202F9E412257C900083E0FC54
:101B9700A3E0FDA3E0FEA3E0FF78081202F9E41238
:101BA700257C900083E0FCA3E0FDA3E0FEA3E0FF1B
:041BB700E402257CA3
:1021D700900081EEF0A3EFF0A3ECF0A3EDF07F5AAF
:1021E70012257C7FA512257C7F0512257C7F821214
:1021F700257C900081E0FF12257C900081A3E0FF01
:1022070012257C900083E0FF12257C900083A3E0D9
:04221700FF02257C21
:10000E009000B4EEF0A3EFF07F5A12257C7FA5127C
:10001E00257C7F0412257C7F8012257C7F03122590
:10002E007C9000B4E0FF12257C9000B4A3E0FF02A8
:02003E00257C1F
:10219200257320616464723D252D233458206461C7
:1021A200743D252D2334580D0A0025732061646483
:1021B200723D252D233458206461743D25640D0A37
:1021C2000025733D256C640D0A00252D3032643ADA
:0521D20025640D0A0068
:10146300606400E8000000000000000000000000CD
:101473000000000000000000000000000000000069
:101483000000000000000000000000000000000059
:101493000000000000000000000000000000000049
:1014A3000000000000000000000000000000000039
:1014B3000000000000000000000000000000000029
:0814C300000000000000000021
:09264C007BFD7D01E4FF0222D7B1
:1018F8009000B6EBF0A3EAF0A3E9F0A3ECF0A3EDB7
:10190800F0A3E0FEA3E0FF64EE4E9000C0703374D5
:10191800FFF0A37421F0A37492F09000B6E0F9A34D
:10192800E0FAA3E09000C3C9F0A3EAF0A3E9F090BD
:1019380000B9E0FDA3E09000C6CDF0A3EDF0A3EE62
:10194800803A74FFF0A37421F0A374ACF09000B651
:10195800E0F9A3E0FAA3E09000C3C9F0A3EAF0A37A
:10196800E9F09000B9E0FFA3E09000C6CFF0A3EF44
:10197800F09000BBE0FFA3E09000C8CFF0A3EFF029
:101988007B017A0079E81204747B017A0079E80215
:021998002387A3
:10221B009000BAEBF0A3EAF0A3E9F09000C074FFD2
:10222B00F0A37421F0A374C3F09000BAE0F9A3E01B
:10223B00FAA3E09000C3C9F0A3EAF0A3E9F0A3125C
:10224B00030C7B017A0079E81204747B017A007924
:04225B00E8022387EB
:10234D009000C074FFF0A37421F0A374CCF0A3EE41
:10235D00F0A3EFF0900081E0FCA3E0FDA3E0FEA36D
:10236D00E0FF9000C512030C7B017A0079E812049E
:0A237D00747B017A0079E8022387DF
:0300400002238711
:1019A600022012E493A3F8E493A34003F68001F225
:1019B60008DFF48029E493A3F85407240CC8C33342
:1019C600C4540F4420C8834004F456800146F6DF11
:1019D600E4800B01020408102040809013A3E47EEB
:1019E600019360BCA3FF543F30E509541FFEE49306
:1019F600A360010ECF54C025E060A840B8E493A3CD
:101A0600FAE493A3F8E493A3C8C582C8CAC583CAF7
:101A1600F0A3C8C582C8CAC583CADFE9DEE780BEAF
:0114CB000020
:10004600E709F608DFFA8046E709F208DFFA803E9C
:1000560088828C83E709F0A3DFFA8032E309F60889
:10006600DFFA8078E309F208DFFA807088828C83F1
:10007600E309F0A3DFFA806489828A83E0A3F608A5
:10008600DFFA805889828A83E0A3F208DFFA804C7F
:1000960080D280FA80C680D4806980F28033801056
:1000A60080A680EA809A80A880DA80E280CA8033BF
:1000B60089828A83ECFAE493A3C8C582C8CCC58337
:1000C600CCF0A3C8C582C8CCC583CCDFE9DEE78007
:1000D6000D89828A83E493A3F608DFF9ECFAA9F086
:1000E600EDFB2289828A83ECFAE0A3C8C582C8CCDC
:1000F600C583CCF0A3C8C582C8CCC583CCDFEADEF5
:10010600E880DB89828A83E493A3F208DFF980CC56
:1001160088F0EF60010E4E60C388F0ED2402B4044F
:100126000050B9F582EB2402B4040050AF232345F6
:0601360082239000967385
:10013C00BB010CE58229F582E5833AF583E0225078
:10014C0006E92582F8E622BBFE06E92582F8E222C2
:0D015C00E58229F582E5833AF583E49322DC
:10016900C2D5EC30E709B2D5E4C39DFDE49CFCEEB1
:1001790030E715B2D5E4C39FFFE49EFE120374C3B2
:10018900E49DFDE49CFC800312037430D507C3E4AD
:060199009FFFE49EFE2220
:10019F00A3F8E0C5F025F0F0E58215827002158313
:0601AF00E0C838F0E82270
:1001B500E88FF0A4CC8BF0A42CFCE98EF0A42CFCE9
:1001C5008AF0EDA42CFCEA8EF0A4CDA8F08BF0A467
:1001D5002DCC3825F0FDE98FF0A42CCD35F0FCEBC6
:1001E5008EF0A4FEA9F0EB8FF0A4CFC5F02ECD398B
:0F01F500FEE43CFCEAA42DCE35F0FDE43CFC22F8
:1002040075F008758200EF2FFFEE33FECD33CDCCB1
:1002140033CCC58233C5829BED9AEC99E582984034
:100224000CF582EE9BFEED9AFDEC99FC0FD5F0D611
:10023400E4CEFBE4CDFAE4CCF9A88222B800C1B93B
:100244000059BA002DEC8BF084CFCECDFCE5F0CB79
:10025400F97818EF2FFFEE33FEED33FDEC33FCEBB2
:1002640033FB10D703994004EB99FB0FD8E5E4F96D
:10027400FA227818EF2FFFEE33FEED33FDEC33FC5A
:10028400C933C910D7059BE99A4007EC9BFCE99A4E
:10029400F90FD8E0E4C9FAE4CCFB2275F010EF2F93
:1002A400FFEE33FEED33FDCC33CCC833C810D70793
:1002B4009BEC9AE899400AED9BFDEC9AFCE899F8CE
:0E02C4000FD5F0DAE4CDFBE4CCFAE4C8F92261
:1002D200EB9FF5F0EA9E42F0E99D42F0EC6480C8A3
:0602E20064809845F02243
:1002E800EB9FF5F0EA9E42F0E99D42F0E89C45F06C
:0102F80022E3
:1002F900E8600FECC313FCED13FDEE13FEEF13FFE3
:03030900D8F12206
:0C030C00ECF0A3EDF0A3EEF0A3EFF02264
:10031800A8828583F0D083D08212032F12032F1274
:10032800032F12032FE473E493A3C583C5F0C58399
:10033800C8C582C8F0A3C583C5F0C583C8C582C82F
:010348002292
:10040F00E51524C0F582E43400F583E0051522904C
:10041F0000BD3010039000C0E475F0011203C90253
:10042F0003492009E97F2ED2098018EF540F249039
:10043F00D43440D4FF300D0BEF24BFB41A00500357
:10044F002461FFE516600215160519E519700205FE
:10045F001830100E9000BDE475F0011203C9EF02C1
:10046F00036202246A7403D2108003E4C210F515EC
:10047F009000BD1203E0E4F516F518F519E51660C6
:10048F00077F2012045280F57517FFC20AC209C2F6
:10049F000BC20CC20EC20FC21112041EFF700D3020
:1004AF0010057F00120463AF19AE1822B4255FC286
:1004BF00D5C20D12041EFF24D0B40A00501A75F0D5
:1004CF000A781630D50508B6FF0106C6A426F62011
:1004DF00D5047002D20C80D924CFB41A00EF500487
:1004EF00C2E5D20D020664D20A80C6D20980C0D2FC
:1004FF000B80BCD2D580BAD20E80B47F20120452AA
:10050F00200B077401B5160040F112040FFF1204FF
:10051F005202048CD211D20F809512040FFB1204D9
:10052F000FFA12040FF94A4B700679357A077BFFE1
:10053F00200B2EE516602A7E008E82758300120135
:10054F003C60060EEE651770F0C2D5EBC0E0EAC056
:10055F00E0E9C0E0EE1206ABD0E0F9D0E0FAD0E06F
:10056F00FB120349FF60AAEBC0E0EAC0E0E9C0E07C
:10057F00120452D0E02401F9D0E03400FAD0E0FBAD
:10058F00E5170460DCD517D980877BFF7A0679A73A
:10059F00D20B809C791080027908C20FC21180089B
:1005AF00D2D5790A8004790AC2D5E517047002F50D
:1005BF0017E4FAFDFEFF12040FFC7B08200A13124A
:1005CF00040FFD7B1030090A12040FFE12040FFFF7
:1005DF007B20EC3382D592D55013C3E43009069FAC
:1005EF00FFE49EFEE4200A039DFDE49CFCE4CBF8AF
:1005FF00C20AEC700CCFCECDCCE824F8F870F380A3
:10060F0017C3EF33FFEE33FEED33FDEC33FCEB336B
:10061F00FB994002FB0FD8E9EB300A05F8D0E0C494
:10062F0048B20AC0E00AEC4D4E4F78207B0070C2F2
:10063F00EAB5170040BCC0E01206ADD0F0D0E02004
:10064F000A04C4C0E0C4B20AC0F012043BD0F0D513
:10065F00F0EB02048C1203E905295305A35804FAA1
:10066F004C04F64205A74F05AF4405AF49050F43AC
:08067F0005B5550599460599E2
:100687004505994707555004FE2D05022E05252BD4
:10069700050623052320073E2A04BE480000051D42
:1006A7003F3F3F00790AA2D5200C14300E09B9103C
:1006B700020404B9080104A2D5200F025001042046
:1006C7000B68920BB516005034C0E07F20300C1930
:1006D7007F30A20B720F720E500F120704C20BC2AB
:1006E7000FC20EC2117F30800F300E03E9C0E01237
:1006F7000452300E03D0E0F9D0E0B516CC300E1717
:100707007F30B9100C1204527F58300D077F788064
:1007170003B90803120452300B057F2D0204527FE0
:10072700202011F87F2B200FF322920B80CF286E09
:10073700756C6C2900D20A12040F300AF8C20A78C5
:100747001630D50108F60204BE2D5043495812044D
:100757000F2403B405004001E490075093120443AB
:0D076700743A120443D20C7516040205A367
:10034900BB010689828A83E0225002E722BBFE02B2
:09035900E32289828A83E49322E5
:10036200BB010689828A83F0225002F722BBFE017A
:02037200F32274
:10037400BC000BBE0029EF8DF084FFADF022E4CC6D
:10038400F875F008EF2FFFEE33FEEC33FCEE9DEC36
:10039400984005FCEE9DFE0FD5F0E9E4CEFD22ED7C
:1003A400F8F5F0EE8420D21CFEADF075F008EF2FC6
:1003B400FFED33FD4007985006D5F0F222C398FDB7
:0503C4000FD5F0EA2254
:1003C900F8E0FBA3A3E0F925F0F0E58215827002BD
:0703D9001583E0FA38F02261
:0903E000EBF0A3EAF0A3E9F0221E
:1003E900D083D082F8E4937012740193700DA3A3A3
:1003F90093F8740193F5828883E4737402936860B7
:06040900EFA3A3A380DFB6
:10246A00EFB40A07740D122475740A309811A899EA
:10247A00B8130CC2983098FDA899C298B811F630D2
:07248A0099FDC299F59922AA
:00000001FF
