:03000000020251A8
:0C025100787FE4F6D8FD75812002029849
:1002DD00900021E0FD7C007F107E001205799000DA
:1002ED001DE0FCA3E0FDE4FFFE120579900013E094
:1002FD00FCA3E0FD7F027E0012057990001BE0FC5F
:10030D00A3E0FD7F047E00120579900015E0FCA3AB
:10031D00E0FD7F067E00120579900019E0FCA3E058
:10032D00FD7F087E00120579900017E0FCA3E0FD2B
:10033D007F0A7E00120579900022E0FCA3E0FD7F8C
:10034D000C7E0012057990001FE0FD7C007F127E6F
:04035D00000205791C
:100003007FF47E011205521204341206437F647E8C
:10001300001205BE900001E060167F047E00120509
:100023009E12017C7F027E0012059EE4900001F087
:10003300900020E060D71202DDE4900020F080CD34
:1005BE00EF1FAC0670011E4C601090002DE004F091
:0A05CE0070EE90002CE004F080E6CF
:0105D8002200
:0805520090002AEEF0A3EFF087
:10055A00E4FBFAD390002BE09B90002AE09A400E2D
:0E056A007FDE7E011205BE0BBB00010A80E59C
:010578002260
:100046009000297401F07F0A7E001205527FC87E57
:10005600001205F2EF64EE6003020171FFFE120565
:10006600F2EF7F00FEC007C0060F7E001205F2EF1A
:10007600FDD0E0FFD0E04D90001DCFF0A3EFF07F64
:10008600027E001205F2EF7F00FEC007C0067F0366
:100096007E001205F2EFFDD0E0FFD0E04D90001398
:1000A600CFF0A3EFF07F047E001205F2EF7F00FE93
:1000B600C007C0067F057E001205F2EFFDD0E0FF07
:1000C600D0E04D90001BCFF0A3EFF07F067E00122C
:1000D60005F2EF7F00FEC007C0067F077E0012050F
:1000E600F2EFFDD0E0FFD0E04D900015CFF0A3EF8A
:1000F600F07F087E001205F2EF7F00FEC007C00603
:100106007F097E001205F2EFFDD0E0FFD0E04D90B2
:100116000019CFF0A3EFF07F0A7E001205F2EF7F01
:1001260000FEC007C0067F0B7E001205F2EFFDD071
:10013600E0FFD0E04D900017CFF0A3EFF07F0C7EEC
:10014600001205F2EF7F00FEC007C0067F0D7E009D
:100156001205F2EFFDD0E0FFD0E04D900022CFF087
:10016600A3EFF09000297401F08005E4900029F0D7
:05017600900029E0FFEC
:01017B002261
:100434009000217401F0120046EF704190001D04F9
:10044400F0A37490F09000137401F0A37490F090F2
:10045400001BE4F0A374B4F0900015E4F0A374C896
:10046400F0900019E4F0A37464F0900017E4F0A392
:1004740074C8F0900022748CF0A374A0F0E490008F
:060484001FF0A304F022AA
:10017C009000297401F07F0A7E00120552E4FFFE04
:10018C0012060A90001DE0FDE4FFFE1205D9900056
:10019C001DA3E0FD7F017E001205D9900013E0FD48
:1001AC007F027E001205D9900013A3E0FD7F037E31
:1001BC00001205D990001BE0FD7F047E001205D9CA
:1001CC0090001BA3E0FD7F057E001205D990001561
:1001DC00E0FD7F067E001205D9900015A3E0FD7F9F
:1001EC00077E001205D9900019E0FD7F087E0012F1
:1001FC0005D9900019A3E0FD7F097E001205D99066
:10020C000017E0FD7F0A7E001205D9900017A3E0CD
:10021C00FD7F0B7E001205D9900022E0FD7F0C7E45
:10022C00001205D9900022A3E0FD7F0D7E0012057F
:10023C00D97DEE7FC87E001205D9E4900020F090A5
:04024C000029E0FFA6
:01025000228B
:10061F00AE071FEE600DE4FCFD0DED70010C4C609C
:03062F00EF80F663
:0106320022A5
:0D065200E4F5C7F5C5F5C675C380F5C422F3
:1005F20075C78375C5018FC4EEF5C375C65A75C636
:07060200A500AFC212065271
:0106090022CE
:1005D90075C78375C5028FC4EEF5C3AF058FC275A4
:0905E900C65A75C6A500020652AF
:10060A0075C78375C5038FC4EEF5C375C65A75C61B
:05061A00A500020652DC
:10048A00C100410001004F0003FFFFFFFFFFFFFF14
:10049A00FFFFFFFFFFFFFFFF4100120041000200C4
:0404AA00410000000D
:0F064300759A50759CFD758E1475AF01D2AF225C
:030043000204F4C0
:1004F400C0E0C0F0C083C082C0D075D008E59A3097
:10050400E008539AFEAF9B1203D5E59A30E10553F8
:0F0514009AFDC201D0D0D082D083D0F0D0E03297
:070633007F5A12063A7FA571
:09063A002001FDEFD201F59B2225
:1004C10090002EEBF0A3EAF0A3E9F090002EE0FB00
:1004D100A3E0FAA3E0F9120523601790002EA3E42C
:1004E10075F00112053CA9F0FA120523FF12063A34
:0304F10080D9228D
:10057900AB07AA061206337F0512063A7F821206D6
:100589003AEAFF12063AAF0312063AECFF12063AAC
:05059900AF0502063A67
:10059E00AD07AC061206337F0412063A7F801206B0
:1005AE003A7F0312063AECFF12063AAF0502063AFC
:1003D500900012E014601114601614602424037058
:1003E50047EF645A70488012EFB4A502800C80393B
:1003F500900000EFF0E4900002F0900012E004F0AD
:1004050022900002E02403F582E43400F583EFF046
:10041500900002E004F0900000E0FF900002E0C3CD
:0F0425009F400B120361800100E4900012F0224F
:10036100900007E0FEA3E0FDEDFF9000207401F096
:10037100900005E0FD700590001D8033EDB402058D
:10038100900013802A900005E0FDB4040590001B45
:10039100801DEDB406059000158014900005E0FD68
:1003A100B408059000198007EDB40A10900017EE0B
:1003B100F0A3EFF09000017401F08015900005E0CA
:1003C100B40C0E900022EEF0A3EFF0900001740146
:0303D100F0D20067
:0103D4002206
:0404AE0041003100D8
:01065F002278
:0E04B2004200270000420025000041002414F3
:010660002277
:10025D00020003E493A3F8E493A34003F68001F2B4
:10026D0008DFF48029E493A3F85407240CC8C333A2
:10027D00C4540F4420C8834004F456800146F6DF71
:10028D00E4800B010204081020408090048AE47E73
:10029D00019360BCA3FF543F30E509541FFEE49366
:1002AD00A360010ECF54C025E060A840B8E493A32D
:1002BD00FAE493A3F8E493A3C8C582C8CAC583CA58
:1002CD00F0A3C8C582C8CAC583CADFE9DEE780BE10
:0104C000003B
:10052300BB010689828A83E0225002E722BBFE02D6
:09053300E32289828A83E4932209
:10053C00A3F8E0C5F025F0F0E58215827002158372
:06054C00E0C838F0E822CF
:00000001FF
