:0300000002199E44
:0C199E00787FE4F6D8FD7581220219E57F
:10203000E490007AF0A3F07FF47E0112246112266E
:10204000611217A37F647E0012251E90007BE004BE
:10205000F0700690007AE004F0D390007BE0941DCD
:1020600090007AE09400400A121BBFE490007AF0DE
:10207000A3F0121F821223D6121CC312126812265A
:032080004780C1D5
:10251E00EF1FAC0670011E4C60109000BDE004F081
:0A252E0070EE9000BCE004F080E6BF
:012538002280
:082461009000BAEEF0A3EFF0C9
:10246900E4FBFAD39000BBE09B9000BAE09A400EDF
:0E2479007FDE7E0112251E0BBB00010A80E5EE
:012487002232
:100BDE0070756C736553657474696E674E756D00D0
:100BEE0070756C736553657474696E674672657162
:100BFE00006D6F746F7253746570416E676C650033
:100C0E006D6F746F72526564756347656172526180
:100C1E0074696F006D6F746F72526F746174696F67
:100C2E006E416E676C6500736372657750697463AD
:100C3E00680062616C6C53637265770063757272E3
:100C4E00656E74506F736974696F6E006973537457
:100C5E00617274506F736974696F6E005374617250
:100C6E00745365636F6E644D6F746F72206D6F7425
:100C7E006F72416374696F6E0046696E6973685076
:100C8E00756C7365204D4F544F52464C41475F4F24
:100C9E004E450D0A0046696E69736850756C736532
:100CAE00204D4F544F52464C41475F54574F0D0AFB
:100CBE0000536574506172616D65746572005365A1
:100CCE0074526F746174696F6E416E676C65004823
:100CDE00616E646C6552657475726E0048616E6407
:100CEE006C654D6F746F720048616E646C65427511
:100CFE007474756F6E006572726F7200496E6974EE
:100D0E004D6F746F7200436F6E74726F6C4D6F74B3
:100D1E006F723A6261636B7761726400436F6E74D7
:100D2E00726F6C4D6F746F723A666F727761726428
:100D3E00006D6F746F722072756E6E696E670D0A3C
:100D4E00006D6F746F72416374696F6E00526573DC
:100D5E00657420706172616D65746572732E2E2ECE
:100D6E000D0A005573652064656661756C7420709C
:100D7E006172616D65746572730D0A00526561640E
:100D8E0020706172616D65746572732066726F6D2D
:100D9E0020454550524F4D0D0A00696E646578002E
:100DAE00726F746174696F6E416E676C654E756DAE
:040DBE0062657200F8
:1013A3004100110041001F00410000004100700096
:1013B3004200010000605000200000000000000017
:1013C300000000000000000000000000000000001A
:1013D300000000000000000000000000000000000A
:1013E30000000000000000000000000000000000FA
:1013F30000000000000000000000000000000000EA
:1014030000000000000000000042001D0000420038
:1014130016FFFF41000D00420003000042001800C8
:101423000041001A0041001C0042007227104100D5
:021433000E00A9
:0700030090000E7401F022D1
:06268100E490000EF022BF
:0626870090000EE0FF22AE
:1014D0007BFF7A0B79DE900014E0FEA3E0FFE4FCD2
:1014E000FD1222397BFF7A0B79EE900005E0FEA316
:1014F000E0FFE4FCFD1222397BFF7A0B79FF9000BC
:1015000012E0FEA3E0FFE4FCFD1222397BFF7A0C1F
:10151000790E90000FE0FEA3E0FFE4FCFD122239FB
:101520007BFF7A0C7922900074E0FCA3E0FDA3E03D
:10153000FEA3E0FF1222397BFF7A0C793590000779
:10154000E0FEA3E0FFE4FCFD1222397BFF7A0C7978
:1015500040900009E0FCA3E0FDA3E0FEA3E0FF1241
:1015600022397BFF7A0C794A900071E0FFE4FCFDA0
:10157000FE12223912263AE4FCFDFE7BFF7A0C793A
:101580005A122239E490007EF0A3F090007EE0FC35
:10159000A3E0FD2401FFE43CFEC006C007ED25E00A
:1015A000FFEC33FE74202FF58274003EF583E0FEDD
:1015B000A3E0FFE4FCFD90008212030CD007D006EC
:1015C00012236B90007FE004F0700690007EE00430
:1015D000F0C390007FE0942890007EE064809480C7
:0215E00040A920
:0115E20022E6
:1025DA00900003E07004A3E064027003C2A022C268
:0225EA0090223D
:07253900F0A3E4F0A304F09D
:10254000900003E07004A3E064027003D2A022D2E2
:022550009022D7
:1024AF0090001AE0B4010C90001CE0B40105D2A119
:1024BF00D2A622900003E07004A3E064027003D25E
:0524CF00A122D2A622AB
:1024D40090001AE0B4010C90001CE0B40105B2A114
:1024E400B2A622900003E07004A3E064027003B279
:0524F400A122B2A622A6
:101857009001961203180000000090019A120318D5
:1018670000000000900001E0FEA3E0FFEE6003022D
:1018770018FBEF24FD600A04707A900071E0048081
:1018870005900071E014F0900018E0FEA3E0FFE47B
:10189700FCFD7BB4FAF9F81201B590019612030C1E
:1018A700900007E0FEA3E0FFE4FCFD900196E0F85E
:1018B700A3E0F9A3E0FAA3E0FB1201B5E47BA07A69
:1018C7008CF9F812024090019A12030C900196E0ED
:1018D700FCA3E0FDA3E0FEA3E0FF90007412030C5D
:1018E70090019AE0FCA3E0FDA3E0FEA3E0FF9000D7
:0418F7000912030CC3
:0118FB0022CA
:101CC30090000DE06069122687EF6063122681E4BD
:101CD30090000DF07BFF7A0C796A900001E0FEA37F
:101CE300E0FFEE3395E0FDFC122239900001E07035
:101CF30004A3E0640270051225DA800F900001E06E
:101D03007004A3E06403700D122540900014E0FCFE
:101D1300A3E0FD8013900001E07004A3E064017070
:101D23000E12254074FFFDFC7F327E001224342204
:10110700900001E0FEA3E0FFEE6003021267EF2408
:10111700FE605A14605724026003021267900003AE
:10112700E07004A3E0640170237BFF7A0C798712D7
:101137000040900003E4F0A37402F0900001E4F093
:10114700A304F0D2A074FFFDFC021200900003E09C
:101157007004A3E0640260030212677BFF7A0C79D4
:10116700A31200409000717401F002125090000326
:10117700E07004A3E06401703C90001AE0B401251C
:10118700D290C2A0900003E4F0A37402F090000193
:10119700E4F0A37402F090001C14F0900072E0FCDD
:1011A700A3E0FD805490000D7401F0900003E4F07B
:1011B700A37402F022900003E07004A3E0640260CD
:1011C7000302126790001AE06401705C900001E06E
:1011D7007004A3E064027028D2A090001CF0900075
:1011E70003F0A37402F0900001E4F0A37403F0C2CB
:1011F70097900072E0FCA3E0FD7F327E000224346A
:10120700900001E07004A3E06403705490001AF0AA
:1012170090007804F0A3F0E4900003F0A3F09000AE
:1012270001F0A3F0D2978032900001E0FEA3E0FF27
:1012370064024E7008900071E004F0800CEF6403C4
:101247004E7006900071E014F0E490000DF09000ED
:1012570003F0A3F0900001F0A3F012267312267A90
:011267002264
:0926610012261D1224F902266A5A
:0726730090001F7401F0222A
:07267A009000007401F02242
:06268D00E490001FF022A2
:06269300E4900000F022BB
:0626990090001FE0FF228B
:06269F00900000E0FF22A4
:0D263A00900071E0B401037F01227F0022B7
:100DC200E49000AFF0A3F0A3F0A3F09000011201B1
:100DD2003CFE90000212013CFDEDFF9000AFEEF0F0
:100DE200A3EFF090000312013C64016003020F9A2A
:100DF20090000412013CFE90000512013CFDEDFF43
:100E02009000B1EEF0A3EFF09000AFE0FCA3E0FDA4
:100E12004C6024ED64024C601EED64044C6018EDDD
:100E220064064C6012ED64084C600CED640A4C6080
:100E320006ED640C4C70297BFF7A0C79BF9000B1EF
:100E4200E0FFA3E09000BCCFF0A3EFF01218FC90FB
:100E520000AFE0FEA3E0FFA3E0FCA3E0FD020F9BD6
:100E62009000AFE0FCA3E0FDC3EC648094814032CB
:100E7200D3ED9450EC6480948150277BFF7A0C79F7
:100E8200CCA3E0FFA3E09000BCCFF0A3EFF01218D8
:100E9200FC9000AFE0FEA3E0FFA3E0FCA3E0FD02B4
:100EA2001D339000AFE0FCA3E0FD640E4C600CED3E
:100EB200641E4C6006ED642E4C70297BFF7A0C791F
:100EC200DD9000B1E0FFA3E09000BCCFF0A3EFF013
:100ED2001218FC9000AFE0FEA3E0FFA3E0FCA3E049
:100EE200FD0220839000AFE0FEA3E0FF64144E6099
:100EF2000CEF64164E6006EF64184E702F7BFF7A7B
:100F02000C79EA9000AFE0FCA3E0FDA3E0FFA3E0D0
:100F12009000BCCFF0A3EFF01218FC9000AFE0FEFF
:100F2200A3E0FFA3E0FCA3E0FD021AB39000AFE050
:100F3200FEA3E0FF64F04E6012EF64F24E600CEF2D
:100F420064F44E6006EF64F64E702F7BFF7A0C79E4
:100F5200F69000AFE0FCA3E0FDA3E0FFA3E0900069
:100F6200BCCFF0A3EFF01218FC9000AFE0FEA3E0BC
:100F7200FFA3E0FCA3E0FD0221257BFF7A0D7904AB
:100F82009000AFE0FCA3E0FDA3E0FFA3E09000BC73
:080F9200CFF0A3EFF01218FCF0
:010F9A002234
:102125009000B3EEF0A3EFF064F04E70047F0280F0
:102135002E9000B3E07004A3E064F270047F078082
:102145001E9000B3E07004A3E064F470047F08807F
:102155000E9000B3E07004A3E064F670067F07FEFE
:0621650012000E022673B9
:10208300E49000B3F0A3F0EF640E4E70089000B339
:10209300F0A3F08018EF641E4E6006EF642E4E70BE
:1020A3000C9000B3E4F0A37402F0121ECC90007005
:1020B300E06012E4F07F04FE12000E7FE87E03125C
:1020C30024611209CC9000B3E0FEA3E0FF12000EDE
:0320D3000226736F
:101AB3009000B5ECF0A3EDF09000B3EEF0A3EFF0DF
:101AC30064144E70217BFF7A0D790A9000B3E0FC19
:101AD300A3E0FDA3E0FFA3E09000BCCFF0A3EFF0F1
:101AE3001218FC0224069000B3E0FCA3E0FD641688
:101AF3004C701A7BFF7A0D7914A3E0FFA3E09000EA
:101B0300BCCFF0A3EFF01218FC7F0380259000B345
:101B1300E0FCA3E0FD64184C701D7BFF7A0D792A6D
:101B2300A3E0FFA3E09000BCCFF0A3EFF01218FCFA
:081B33007F027E001216D02291
:10240600900001E07002A3E0702390000DE0701DC3
:10241600900071E064016015900001E4F0A30412DD
:0E242600253974FFFDFC7F327E001224342223
:0816D0009000B7EEF0A3EFF06B
:1016D800E4A3F0A3F0900001E07002A3E07006908C
:1016E800000DE060207BFF7A0D793F1200407BFF00
:1016F8007A0D794F900001E0FEA3E0FFEE3395E00C
:10170800FDFC0222399000B7E0FEA3E0FF64024E20
:10171800703C900071E02401FDE433FC9000B9F0C6
:10172800A3EDF0D39428EC64809480506DE094018C
:101738009000B9E0648094804060900001E4F0A3D8
:101748007402F0A3E4F0A304F01225DA803AEF64FF
:10175800034E7034900071E024FFFFE434FFFE90E4
:1017680000B9F0A3EFF0C39401EE64809480402A9E
:10177800E094289000B9E064809480501D900001A6
:10178800E4F0A37403122539121C42900014E0FC03
:0A179800A3E0FD7F327E001224342E
:0117A2002224
:10227D0090001AE06401603312263AEF602D900051
:10228D001A7401F0900003E4F0A304F0900001E44F
:10229D00F0A37402F0C290E490001CF0900072E084
:0C22AD00FCA3E0FD7F327E0012243422EE
:101E7100208011900078E0700590001F04F0900020
:101E8100787401F0308012900078E0B4010690007F
:101E91001F7401F0E4900078F0208111900079E046
:101EA100700590001F04F09000797401F0308112E8
:101EB100900079E0B4010690001F7401F0E49000F5
:0B1EC10079F0208403C29122D291220C
:1023D600900001E07004A3E064017023900003E024
:1023E6007004A3E064017005208014800F90000340
:1023F600E07004A3E06402700620810312260D2219
:1020D6007BFF7A0D795B120040E4900014F0A3F0C8
:1020E600900005F0A3F0900012F0A3F09000741297
:1020F600031800000000E490000FF0A3F090000920
:1021060012031800000000E4900007F0A3F090000E
:0F21160071F0900000F090001FF0900011F02287
:1017A300E490007CF0A3F0FF1220D61214D01207AD
:1017B30074EF600302184B7BFF7A0D7971120040BE
:1017C3009000147401F0A37490F09000057401F07C
:1017D300A37490F0900012E4F0A374B4F09000743A
:1017E30012031800008CA090000FE4F0A37464F0BF
:1017F300900007E4F0A374C8F0A3120318000000DC
:10180300C89000717401F0E490007CF0A3F09000A4
:101813007CE0FEA3E0FFC39428EE6480948050250F
:10182300EF25E0FFEE33FE74202FF58274003EF5C2
:1018330083E4F0A3F090007DE004F070D190007C8D
:10184300E004F080C91209CC121ECC1226731212C6
:04185300680214D043
:10258300EF25E0FFEE33FE741E2FF58274003EF557
:0725930083E0FEA3E0FF223C
:041A2A00AB07AA0656
:101A2E00E4900082F0A3F0FFFEFDFCA31203180069
:101A3E00000000EB25E0FFEA33FE741E2FF58274E2
:101A4E00003EF583E0FFA3E0900082CFF0A3EFF01D
:101A5E00900012E0FEA3E0FFE4FCFD7B64FAF9F8CF
:101A6E001201B5C006C00790000FE0FEA3E0FBAA6E
:101A7E0006E4F9F8D007D006120240900084120353
:101A8E000C900082E0FEA3E0FFE4FCFDA3E0F8A3CF
:101A9E00E0F9A3E0FAA3E0FB1201B5E47B0AFAF940
:041AAE00F8120240E8
:011AB2002211
:0815E300900082EEF0A3EFF08E
:1015EB00E4FBFAA312031800000000E4900088F05B
:1015FB00A3F0A3F0A3F0A3120318000000009000C7
:10160B0082E07004A3E064017005FFFEFDFC227A0A
:10161B00007B01D3900083E09B900082E09A4022F4
:10162B00AF03AE0212258390008AEEF0A3EFF09089
:10163B000089E02FF0900088E03EF00BBB00010A20
:10164B0080D1900012E0FEA3E0FFE4FCFD7B64FA86
:10165B00F9F81201B5C006C00790000FE0FEA3E039
:10166B00FBAA06E4F9F8D007D00612024090008CD2
:10167B0012030C900088E0FEA3E0FFE4FCFD900059
:10168B008CE0F8A3E0F9A3E0FAA3E0FB1201B5A804
:10169B0004A905AA06AB07900007E0FEA3E0FFE450
:1016AB00FCFD1201B57B407A7E7905780012024071
:1016BB0090008412030C900084E0FCA3E0FDA3E0F7
:0416CB00FEA3E0FF9B
:0116CF0022F8
:10126800122699EF70030213A27BFF7A0C794A9039
:101278000071E0FFE4FCFDFE122239900071E0FFEE
:101288007E00122583900014EEF0A3EFF090007119
:10129800E0FF7E00121A2A90007412030C9000716D
:1012A800E0FF7E001215E390000912030C90001471
:1012B800E0FCA3E0FDE4FFFE1221F5900005E0FC50
:1012C800A3E0FD7F027E001221F5900012E0FCA34E
:1012D800E0FD7F047E001221F5900007E0FCA3E00A
:1012E800FD7F067E001221F590000FE0FCA3E0FDD3
:1012F8007F087E001221F5900009E0FCA3E0FDA321
:10130800E0FEA3E0FF90008412030C7F0A7E001227
:101318001B3B900074E0FCA3E0FDA3E0FEA3E0FF0C
:1013280090008412030C7F0E7E00121B3B9000710C
:10133800E0FD7C007F207E001221F512263AEFFDA9
:101348007C007F227E001221F5E490007EF0A3F05D
:1013580090007EE0FEA3E0FFC39428EE64809480B2
:101368005035EF25E0FDEE33FCE42DFFEC3401FEB3
:10137800A3F0A3EFF074202DF58274003CF583E010
:10138800FCA3E0FD1221F590007FE004F0700690C8
:0A139800007EE004F080B912268DFB
:0113A2002228
:0D26470012269FEF60061209CC1226932286
:10077400E490007EF0A3F0A3F0A3F0A3F07F0AFEC0
:100784001224617BFF7A0D798A1200407FC87E00B3
:1007940012256BEF64EE60030209C6FFFE12256B9F
:1007A400EF7F00FEC007C0060F7E0012256BEFFD31
:1007B400D0E0FFD0E04D900014CFF0A3EFF07F0223
:1007C4007E0012256BEF7F00FEC007C0067F037E0C
:1007D4000012256BEFFDD0E0FFD0E04D900005CF77
:1007E400F0A3EFF07F047E0012256BEF7F00FEC0C4
:1007F40007C0067F057E0012256BEFFDD0E0FFD019
:10080400E04D900012CFF0A3EFF07F067E0012259A
:100814006BEF7F00FEC007C0067F077E0012256BCA
:10082400EFFDD0E0FFD0E04D900007CFF0A3EFF054
:100834007F087E0012256BEF7F00FEC007C0067F95
:10084400097E0012256BEFFDD0E0FFD0E04D900053
:100854000FCFF0A3EFF07F0C7E0012256BEF7F002B
:10086400FEC006C0077F0B7E0012256B7E00EF786A
:1008740010C333CE33CED8F9FDD0E02DFFD0E03E07
:10088400FEC006C0077F0D7E0012256BEFFDD0E091
:100894002DFFD0E03400FEC007C0067F0A7E0012A0
:1008A400256B7E00EF7818C333CE33CED8F9FDD054
:1008B400E04EFED0E04DFFE4FCFD90000912030C75
:1008C4007F107E0012256BEF7F00FEC006C0077FFD
:1008D4000F7E0012256B7E00EF7810C333CE33CE2B
:1008E400D8F9FDD0E02DFFD0E03EFEC006C0077F62
:1008F400117E0012256BEFFDD0E02DFFD0E0340017
:10090400FEC007C0067F0E7E0012256B7E00EF78C6
:1009140018C333CE33CED8F9FDD0E04EFED0E04D2F
:10092400FFE4FCFD90007412030C7F127E0012257C
:100934006B900071EFF0900080E4F0A37414F0E485
:1009440090007EF0A3F0900080E0FEA3E0FF12256B
:100954006BEF7F00FEC007C006900081E02401FF1A
:10096400900080E03400FE12256BEFFDD0E0FCD057
:10097400E04DFD90007FE025E0FF90007EE033FE37
:1009840074202FF58274003EF583ECF0A3EDF09013
:100994000081E02402F0900080E03400F090007FB9
:1009A400E004F0700690007EE004F0C390007FE065
:1009B400942890007EE064809480408A9000827441
:0709C40001F0900082E0FF4A
:0109CB002209
:1009CC00E49000B5F0A3F0A3F0A3F0A3F07F0AFE2F
:1009DC00122461E4FFFE1225B1900014E0FDE4FF47
:1009EC00FE122552900014A3E0FD7F017E0012251B
:1009FC0052900005E0FD7F027E001225529000050A
:100A0C00A3E0FD7F037E00122552900012E0FD7FD3
:100A1C00047E00122552900012A3E0FD7F057E009B
:100A2C00122552900007E0FD7F067E0012255290A1
:100A3C000007A3E0FD7F077E0012255290000FE017
:100A4C00FD7F087E0012255290000FA3E0FD7F0968
:100A5C007E00122552900009E0FCA3E0FDA3E0FE0D
:100A6C00A3E0FF78181202F9E4AD077F0AFE122505
:100A7C0052900009E0FCA3E0FDA3E0FEA3E0FF78A8
:100A8C00101202F9E4AD077F0BFE122552900009FB
:100A9C00E0FCA3E0FDA3E0FEA3E0FF78081202F95E
:100AAC00E4AD077F0CFE122552900009E0FCA3A3D5
:100ABC00A3E0FFE4AD077F0DFE122552900074E019
:100ACC00FCA3E0FDA3E0FEA3E0FF78181202F9E41A
:100ADC00AD077F0EFE122552900074E0FCA3E0FDE2
:100AEC00A3E0FEA3E0FF78101202F9E4AD077F0F3C
:100AFC00FE122552900074E0FCA3E0FDA3E0FEA3DF
:100B0C00E0FF78081202F9E4AD077F10FE122552BF
:100B1C00900074E0FCA3A3A3E0FFE4AD077F11FEFB
:100B2C00122552900071E0FD7F127E00122552902A
:100B3C0000B7E4F0A37414F0E49000B5F0A3F090C7
:100B4C0000B5E0FCA3E0FDC39428EC6480948050D5
:100B5C0070ED25E0FFEC33FE74202FF58274003E1F
:100B6C00F583E0FD9000B7E0FEA3E0FF1225529064
:100B7C0000B8E02401FF9000B7E03400FEC006C0CE
:100B8C00079000B6E025E0FF9000B5E033FE74203E
:100B9C002FF58274003EF583A3E0FDD007D006123A
:100BAC0025529000B8E02402F09000B7E03400F039
:100BBC009000B6E004F070069000B5E004F0020B73
:100BCC004B7DEE7FC87E001225529000B97401F067
:010BDC00FF19
:010BDD0022F5
:100F9B009000B5ECF0A3EDF09000B3EEF0A3EFF002
:100FAB004E7020900014E0FEA3E0FF9000B5E0FC33
:100FBB00A3E0FD6F7002EC6E70030211069000143B
:100FCB000210729000B3E0FEA3E0FF64024E701FAC
:100FDB00900005E0FCA3E0FD9000B5E0FAA3E0FB78
:100FEB006D7002EA6C7003021106900005804FEFE2
:100FFB0064044E701F900012E0FEA3E0FF9000B55A
:10100B00E0FCA3E0FD6F7002EC6E70030211069022
:10101B00001280539000B3E0FEA3E0FF64064E7015
:10102B0023900007E0FCA3E0FD9000B5E0FAA3E0FD
:10103B00FB6D7002EA6C7003021106900007EAF078
:10104B00A3EB8027EF64084E702590000FE0FEA302
:10105B00E0FF9000B5E0FCA3E0FD6F7002EC6E705A
:10106B000302110690000FECF0A3EDF002110090BB
:10107B0000B3E07004A3E0640A70389000B5E0FEA2
:10108B00A3E0FFEE3395E0FDFC900009E0F8A3E050
:10109B00F9A3E0FAA3E0FBC31202E8605E9000B58F
:1010AB00E0FEA3E0FFEE3395E0FDFC900009120398
:1010BB000C80429000B3E07004A3E0640C703C9091
:1010CB0000B5E0FEA3E0FFEE3395E0FDFC9000746D
:1010DB00E0F8A3E0F9A3E0FAA3E0FBC31202E86097
:1010EB001A9000B5E0FEA3E0FFEE3395E0FDFC9017
:0C10FB00007412030C9000707401F022CD
:081D33009000B3ECF0A3EDF009
:101D3B007E007C007D02120169A3EEF0A3EFF07B25
:101D4B00FF7A0D79A89000B5E0FEA3E0FFEE339586
:101D5B00E0FDFC1222399000B6E025E0FF9000B5C3
:101D6B00E033FE74202FF58274003EF583E0FCA374
:101D7B00E0FD9000B3E0FAA3E0FB6D7002EA6C604B
:101D8B001574202FF58274003EF583EAF0A3EBF077
:061D9B009000707401F0DD
:011DA100221F
:101ECC007D277C00ED25E0FFEC33FE74202FF5829E
:101EDC0074003EF583E0FEA3E04E700BED1D700127
:101EEC001CBCFFE0BDFFDDED2401FEE43C90001DB9
:101EFC00F0A3CEF07BFF7A0D79AE90001DE0FEA32F
:101F0C00E0FFEE3395E0FDFC122239900020E0FF5B
:0A1F1C00A3E0900072CFF0A3EFF0F5
:011F26002298
:101C4200900001E0FEA3E0FF64024E701D9000715F
:101C5200E025E0241EF582E43400F583E0FDA3E0F4
:101C62009000BBCDF0A3EDF08021EF64034E701B1A
:101C7200900071E025E0241CF582E43400F583E055
:101C8200FFA3E09000BBCFF0A3EFF09000BBE0FE1B
:101C9200A3E0FFE4FCFD7BFF7AFFF9F8C31202D256
:101CA20070069000BBF0A3F09000BBE0FEA3E0FF43
:101CB200900014EEF0A3EFF0900018EEF0A3EFF016
:011CC20022FF
:1025C600AE071FEE600DE4FCFD0DED70010C4C60D6
:0325D600EF80F69D
:0125D90022DF
:0D265400E4F5C7F5C5F5C675C380F5C422D1
:10256B0075C78375C5018FC4EEF5C375C65A75C69D
:07257B00A500AFC2122654B7
:012582002236
:1025520075C78375C5028FC4EEF5C3AF058FC2750B
:09256200C65A75C6A500022654F4
:1025B10075C78375C5038FC4EEF5C375C65A75C655
:0525C100A500022654F4
:1023310025733D25640D0A00000000000000000027
:10234100000000000000000000000000000000008C
:10235100000000000000000000000000000000007C
:0A2361000000000000000000000072
:10143500C1124F0186FFFFFFFFFFFFFFFFFFFFFF09
:10144500FFFFFFFF41019500410185004101840037
:0F261D00759A50759CFD438E1475AF01D2AF2294
:03004300021FDBBE
:101FDB00C0E0C0F0C083C082C0D075D000C000C0CC
:0D1FEB0001C002C003C004C005C006C0074D
:101FF800E49000AEF053AFFEE59A30E00A539AFE43
:0D200800AF9B121F278003539AFD43AF01C9
:10201500D007D006D005D004D003D002D001D0001F
:0B202500D0D0D082D083D0F0D0E032C9
:10259A0053AFFE539AFD8F9BAE9AEE5402FE60F83B
:0625AA00539AFD43AF014E
:0125B0002208
:0B22B9009001AEEBF0A3EAF0A3E9F007
:1022C400E4FF53AFFE539AFD9001AEE0FBA3E0FAA6
:1022D400A3E0F98F8275830012013C600DF59BE544
:1022E4009A30E1FB539AFD0F80DE539AFD43AF0110
:0122F40022C7
:10216B009001A4EBF0A3EAF0A3E9F0A3ECF0A3ED4C
:01217B00F073
:10217C00E4FDFCD39001A8E09DEC6480F89001A7ED
:10218C00E0648098401D9001A4E0FBA3E0FAA3E07A
:10219C00F98D828C8312013CFF12259A0DBD000132
:0321AC000C80D0D4
:0121AF00220D
:101DA20090014DEBF0A3EAF0A3E9F0A3ECF0A3ED70
:011DB200F040
:101DB300E4FE78527C017D017BFF7A2379397F32FF
:101DC3001201169000C174FFF0A37423F0A37431C1
:101DD300F090014DE0F9A3E0FAA3E09000C4C9F04C
:101DE300A3EAF0A3E9F0900150E0FFA3E09000C75D
:101DF300CFF0A3EFF07B017A0179521204747B01D7
:0B1E03007A017952AD07AC0602216B9A
:101F2700900195E014601114601614602224037068
:101F370043EF645A70448010EFB4A502800A8035DD
:101F4700900184EFF0E4A3F0900195E004F0229073
:101F57000185E02486F582E43401F583EFF09001F2
:101F670085E004F0900184E0FFA3E0C39F400B12DB
:0B1F770025FD800100E4900195F022A0
:1025FD007B017A0179867D0F7C00120DC2D21222E9
:1022F500759850AE038E9CEFB40105438780800B23
:10230500EF700553877F80037FFF22EDB4010543FE
:102315008E04800BED7005538EFB80037FFE2243F8
:0C2325008E01438E10D2ACD2AF7F00229C
:0E262C00C2ACC2998F993099FDC299D2AC22EE
:0B23A5009000E6EBF0A3EAF0A3E9F0E3
:1023B000E4FFC2AC9000E6E0FBA3E0FAA3E0F98FF3
:1023C0008275830012013C600AF5993099FDC2992B
:0523D0000F80E1D2AC1A
:0123D50022E5
:041455004101B100A0
:101BBF00B2B79001B1E01460201460331460602458
:101BCF0003706E30820C3083093085063086032017
:101BDF0087609001B17401F02230820C308309309C
:101BEF0085063086032087439001B17402F02220CE
:101BFF0082047F0280052083097F037E001216D0A6
:101C0F00801620850512227D800E2086051224065F
:101C1F0080062087031200039001B17403F0223075
:101C2F00831030820D30850A308607E49001B1F0C1
:031C3F002200225E
:0E1459004201AC00004201AA00004101A914AA
:01000A0022D3
:1025EC0053746F7050756C736554696D65720D0A18
:0125FC0000DE
:03000B00021E0EC4
:101E0E00C0E0C0F0C083C082C0D075D008758A8B88
:101E1E00758CFC90019E74FFF5F012019F45F070D9
:101E2E0037D39001A3E094009001A2E094004016F5
:101E3E001224AF9001A3E024FFF09001A2E034FF42
:101E4E00F01224D480031211079001A0E0FFA3E04A
:101E5E0090019ECFF0A3EFF0D0D0D082D083D0F0FF
:031E6E00D0E0328F
:1024F900438E80758901758A8B758CFCD28CD2A923
:10250900D2AFE490019EF0A3F0A3F0A37432F0E4FB
:05251900A3F0A3F02275
:101F8200D39001A3E094149001A2E0940040109039
:101F920001A1E024FFF09001A0E034FFF0800E9058
:101FA20001A1E004F070069001A0E004F09001A00D
:101FB200E0FEA3E0FFC39401EE940050099001A05B
:101FC200E4F0A304F022D3EF9432EE94004009909F
:091FD20001A0E4F0A37432F02236
:10260D00C28CC2A91211077BFF7A2579EC0200401A
:10243400C28CC2A9D3EF9400EE940040089001A08E
:10244400EEF0A3EFF0D3ED9400EC9400400AAF0556
:0D2454009001A2ECF0A3EFF0D28CD2A922EF
:101B3B00900082EEF0A3EFF07F5A12259A7FA51248
:101B4B00259A7F0712259A7F8212259A900082E0B0
:101B5B00FF12259A900082A3E0FF12259A90008431
:101B6B00E0FCA3E0FDA3E0FEA3E0FF78181202F96E
:101B7B00E412259A900084E0FCA3E0FDA3E0FEA311
:101B8B00E0FF78101202F9E412259A900084E0FC31
:101B9B00A3E0FDA3E0FEA3E0FF78081202F9E41234
:101BAB00259A900084E0FCA3E0FDA3E0FEA3E0FFF8
:041BBB00E402259A81
:1021F500900082EEF0A3EFF0A3ECF0A3EDF07F5A90
:1022050012259A7FA512259A7F0512259A7F82129B
:10221500259A900082E0FF12259A900082A3E0FFA4
:1022250012259A900084E0FF12259A900084A3E07D
:04223500FF02259AE5
:10000E009000B5EEF0A3EFF07F5A12259A7FA5125D
:10001E00259A7F0412259A7F8012259A7F03122536
:10002E009A9000B5E0FF12259A9000B5A3E0FF026A
:02003E00259A01
:1021B000257320616464723D252D233458206461A9
:1021C000743D252D2334580D0A0025732061646465
:1021D000723D252D233458206461743D25640D0A19
:1021E0000025733D256C640D0A00252D3032643ABC
:0521F00025640D0A004A
:10146700606400E9000000000000000000000000C8
:101477000000000000000000000000000000000065
:101487000000000000000000000000000000000055
:101497000000000000000000000000000000000045
:1014A7000000000000000000000000000000000035
:1014B7000000000000000000000000000000000025
:0814C70000000000000000001D
:09266A007BFD7D01E4FF0222F575
:1018FC009000B7EBF0A3EAF0A3E9F0A3ECF0A3EDB2
:10190C00F0A3E0FEA3E0FF64EE4E9000C1703374D0
:10191C00FFF0A37421F0A374B0F09000B7E0F9A32A
:10192C00E0FAA3E09000C4C9F0A3EAF0A3E9F090B8
:10193C0000BAE0FDA3E09000C7CDF0A3EDF0A3EE5C
:10194C00803A74FFF0A37421F0A374CAF09000B72E
:10195C00E0F9A3E0FAA3E09000C4C9F0A3EAF0A375
:10196C00E9F09000BAE0FFA3E09000C7CFF0A3EF3E
:10197C00F09000BCE0FFA3E09000C9CFF0A3EFF023
:10198C007B017A0079E91204747B017A0079E9020F
:02199C0023A581
:102239009000BBEBF0A3EAF0A3E9F09000C174FFB2
:10224900F0A37421F0A374E1F09000BBE0F9A3E0DE
:10225900FAA3E09000C4C9F0A3EAF0A3E9F0A3123D
:10226900030C7B017A0079E91204747B017A007905
:04227900E90223A5AE
:10236B009000C174FFF0A37421F0A374EAF0A3EE04
:10237B00F0A3EFF0900082E0FCA3E0FDA3E0FEA34E
:10238B00E0FF9000C612030C7B017A0079E912047E
:0A239B00747B017A0079E90223A5A2
:030040000223A5F3
:1019AA00022030E493A3F8E493A34003F68001F203
:1019BA0008DFF48029E493A3F85407240CC8C3333E
:1019CA00C4540F4420C8834004F456800146F6DF0D
:1019DA00E4800B01020408102040809013A3E47EE7
:1019EA00019360BCA3FF543F30E509541FFEE49302
:1019FA00A360010ECF54C025E060A840B8E493A3C9
:101A0A00FAE493A3F8E493A3C8C582C8CAC583CAF3
:101A1A00F0A3C8C582C8CAC583CADFE9DEE780BEAB
:0114CF00001C
:10004600E709F608DFFA8046E709F208DFFA803E9C
:1000560088828C83E709F0A3DFFA8032E309F60889
:10006600DFFA8078E309F208DFFA807088828C83F1
:10007600E309F0A3DFFA806489828A83E0A3F608A5
:10008600DFFA805889828A83E0A3F208DFFA804C7F
:1000960080D280FA80C680D4806980F28033801056
:1000A60080A680EA809A80A880DA80E280CA8033BF
:1000B60089828A83ECFAE493A3C8C582C8CCC58337
:1000C600CCF0A3C8C582C8CCC583CCDFE9DEE78007
:1000D6000D89828A83E493A3F608DFF9ECFAA9F086
:1000E600EDFB2289828A83ECFAE0A3C8C582C8CCDC
:1000F600C583CCF0A3C8C582C8CCC583CCDFEADEF5
:10010600E880DB89828A83E493A3F208DFF980CC56
:1001160088F0EF60010E4E60C388F0ED2402B4044F
:100126000050B9F582EB2402B4040050AF232345F6
:0601360082239000967385
:10013C00BB010CE58229F582E5833AF583E0225078
:10014C0006E92582F8E622BBFE06E92582F8E222C2
:0D015C00E58229F582E5833AF583E49322DC
:10016900C2D5EC30E709B2D5E4C39DFDE49CFCEEB1
:1001790030E715B2D5E4C39FFFE49EFE120374C3B2
:10018900E49DFDE49CFC800312037430D507C3E4AD
:060199009FFFE49EFE2220
:10019F00A3F8E0C5F025F0F0E58215827002158313
:0601AF00E0C838F0E82270
:1001B500E88FF0A4CC8BF0A42CFCE98EF0A42CFCE9
:1001C5008AF0EDA42CFCEA8EF0A4CDA8F08BF0A467
:1001D5002DCC3825F0FDE98FF0A42CCD35F0FCEBC6
:1001E5008EF0A4FEA9F0EB8FF0A4CFC5F02ECD398B
:0F01F500FEE43CFCEAA42DCE35F0FDE43CFC22F8
:1002040075F008758200EF2FFFEE33FECD33CDCCB1
:1002140033CCC58233C5829BED9AEC99E582984034
:100224000CF582EE9BFEED9AFDEC99FC0FD5F0D611
:10023400E4CEFBE4CDFAE4CCF9A88222B800C1B93B
:100244000059BA002DEC8BF084CFCECDFCE5F0CB79
:10025400F97818EF2FFFEE33FEED33FDEC33FCEBB2
:1002640033FB10D703994004EB99FB0FD8E5E4F96D
:10027400FA227818EF2FFFEE33FEED33FDEC33FC5A
:10028400C933C910D7059BE99A4007EC9BFCE99A4E
:10029400F90FD8E0E4C9FAE4CCFB2275F010EF2F93
:1002A400FFEE33FEED33FDCC33CCC833C810D70793
:1002B4009BEC9AE899400AED9BFDEC9AFCE899F8CE
:0E02C4000FD5F0DAE4CDFBE4CCFAE4C8F92261
:1002D200EB9FF5F0EA9E42F0E99D42F0EC6480C8A3
:0602E20064809845F02243
:1002E800EB9FF5F0EA9E42F0E99D42F0E89C45F06C
:0102F80022E3
:1002F900E8600FECC313FCED13FDEE13FEEF13FFE3
:03030900D8F12206
:0C030C00ECF0A3EDF0A3EEF0A3EFF02264
:10031800A8828583F0D083D08212032F12032F1274
:10032800032F12032FE473E493A3C583C5F0C58399
:10033800C8C582C8F0A3C583C5F0C583C8C582C82F
:010348002292
:10040F00E51524C1F582E43400F583E0051522904B
:10041F0000BE3010039000C1E475F0011203C90251
:10042F0003492009E97F2ED2098018EF540F249039
:10043F00D43440D4FF300D0BEF24BFB41A00500357
:10044F002461FFE516600215160519E519700205FE
:10045F001830100E9000BEE475F0011203C9EF02C0
:10046F0003620224887403D2108003E4C210F515CE
:10047F009000BE1203E0E4F516F518F519E51660C5
:10048F00077F2012045280F57517FFC20AC209C2F6
:10049F000BC20CC20EC20FC21112041EFF700D3020
:1004AF0010057F00120463AF19AE1822B4255FC286
:1004BF00D5C20D12041EFF24D0B40A00501A75F0D5
:1004CF000A781630D50508B6FF0106C6A426F62011
:1004DF00D5047002D20C80D924CFB41A00EF500487
:1004EF00C2E5D20D020664D20A80C6D20980C0D2FC
:1004FF000B80BCD2D580BAD20E80B47F20120452AA
:10050F00200B077401B5160040F112040FFF1204FF
:10051F005202048CD211D20F809512040FFB1204D9
:10052F000FFA12040FF94A4B700679357A077BFFE1
:10053F00200B2EE516602A7E008E82758300120135
:10054F003C60060EEE651770F0C2D5EBC0E0EAC056
:10055F00E0E9C0E0EE1206ABD0E0F9D0E0FAD0E06F
:10056F00FB120349FF60AAEBC0E0EAC0E0E9C0E07C
:10057F00120452D0E02401F9D0E03400FAD0E0FBAD
:10058F00E5170460DCD517D980877BFF7A0679A73A
:10059F00D20B809C791080027908C20FC21180089B
:1005AF00D2D5790A8004790AC2D5E517047002F50D
:1005BF0017E4FAFDFEFF12040FFC7B08200A13124A
:1005CF00040FFD7B1030090A12040FFE12040FFFF7
:1005DF007B20EC3382D592D55013C3E43009069FAC
:1005EF00FFE49EFEE4200A039DFDE49CFCE4CBF8AF
:1005FF00C20AEC700CCFCECDCCE824F8F870F380A3
:10060F0017C3EF33FFEE33FEED33FDEC33FCEB336B
:10061F00FB994002FB0FD8E9EB300A05F8D0E0C494
:10062F0048B20AC0E00AEC4D4E4F78207B0070C2F2
:10063F00EAB5170040BCC0E01206ADD0F0D0E02004
:10064F000A04C4C0E0C4B20AC0F012043BD0F0D513
:10065F00F0EB02048C1203E905295305A35804FAA1
:10066F004C04F64205A74F05AF4405AF49050F43AC
:08067F0005B5550599460599E2
:100687004505994707555004FE2D05022E05252BD4
:10069700050623052320073E2A04BE480000051D42
:1006A7003F3F3F00790AA2D5200C14300E09B9103C
:1006B700020404B9080104A2D5200F025001042046
:1006C7000B68920BB516005034C0E07F20300C1930
:1006D7007F30A20B720F720E500F120704C20BC2AB
:1006E7000FC20EC2117F30800F300E03E9C0E01237
:1006F7000452300E03D0E0F9D0E0B516CC300E1717
:100707007F30B9100C1204527F58300D077F788064
:1007170003B90803120452300B057F2D0204527FE0
:10072700202011F87F2B200FF322920B80CF286E09
:10073700756C6C2900D20A12040F300AF8C20A78C5
:100747001630D50108F60204BE2D5043495812044D
:100757000F2403B405004001E490075093120443AB
:0D076700743A120443D20C7516040205A367
:10034900BB010689828A83E0225002E722BBFE02B2
:09035900E32289828A83E49322E5
:10036200BB010689828A83F0225002F722BBFE017A
:02037200F32274
:10037400BC000BBE0029EF8DF084FFADF022E4CC6D
:10038400F875F008EF2FFFEE33FEEC33FCEE9DEC36
:10039400984005FCEE9DFE0FD5F0E9E4CEFD22ED7C
:1003A400F8F5F0EE8420D21CFEADF075F008EF2FC6
:1003B400FFED33FD4007985006D5F0F222C398FDB7
:0503C4000FD5F0EA2254
:1003C900F8E0FBA3A3E0F925F0F0E58215827002BD
:0703D9001583E0FA38F02261
:0903E000EBF0A3EAF0A3E9F0221E
:1003E900D083D082F8E4937012740193700DA3A3A3
:1003F90093F8740193F5828883E4737402936860B7
:06040900EFA3A3A380DFB6
:10248800EFB40A07740D122493740A309811A899AE
:10249800B8130CC2983098FDA899C298B811F630B4
:0724A80099FDC299F599228C
:00000001FF
