:03000000020423D4
:0C042300787FE4F6D8FD75812002046AA1
:1005350090000FE0FD7C007F107E001207E4900024
:100545000BE0FCA3E0FDE4FFFE1207E4900000E0F1
:10055500FCA3E0FD7F027E001207E4900009E0FCA9
:10056500A3E0FD7F047E001207E4900002E0FCA3F7
:10057500E0FD7F067E001207E4900006E0FCA3E0A4
:10058500FD7F087E001207E4900004E0FCA3E0FD77
:100595007F0A7E001207E4900010E0FCA3E0FD7FD7
:1005A5000C7E001207E490000DE0FD7C007F127EBA
:0405B500000207E455
:10061800208011900012E0700590000E04F0900008
:10062800127401F0308012900012E0B401069000BC
:100638000E7401F0E4900012F0208111900013E094
:10064800700590000E04F09000137401F0308112D0
:10065800900013E0B4010690000E7401F0E49000DD
:0B06680013F0208403C29122D29122E3
:10017100E4900027F0A3F07FF47E011207BD120680
:10018100731208D31208097F647E0012084E900092
:1001910028E004F07006900027E004F0D3900028D6
:1001A100E0941D900027E09400400A1204AFE4900F
:1001B1000027F0A3F0D3900033E09414900032E0D4
:1001C10094004010900031E024FFF0900030E034C2
:1001D100FFF0800E900031E004F07006900030E0F6
:1001E10004F0900030E0FEA3E0FFC39401EE940020
:1001F100500A900030E4F0A304F08012D3EF94325F
:10020100EE94004009900030E4F0A37432F012063D
:1002110018900013E0FF7007900012E0FE60089054
:10022100000D7401F0800AEF7007EE700490000D6C
:10023100F0900008E0B4011B90000DE0B4011490AF
:100241000032E4F0A37404F090000F7401F0E49024
:100251000008F0900015E060167F047E0012082E61
:100261001202847F027E0012082EE4900015F090A5
:10027100000EE07003020188120535E490000EF0D3
:03028100020188EF
:10084E00EF1FAC0670011E4C601090002DE004F0FE
:0A085E0070EE90002CE004F080E63C
:01086800226D
:0807BD0090002AEEF0A3EFF01A
:1007C500E4FBFAD390002BE09B90002AE09A400EC0
:0E07D5007FDE7E0112084E0BBB00010A80E59C
:0107E30022F3
:100046009000297401F07F0A7E001207BD7FC87EEA
:1000560000120882EF64EE6003020125FFFE12081B
:1000660082EF7F00FEC007C0060F7E00120882EFF7
:10007600FDD0E0FFD0E04D90000BCFF0A3EFF07F76
:10008600067E00120882EF7F00FEC007C0067F07CB
:100096007E00120882EFFDD0E0FFD0E04D90000216
:1000A600CFF0A3EFF07F087E00120882EF7F00FEFC
:1000B600C007C0067F097E00120882EFFDD0E0FF70
:1000C600D0E04D900006CFF0A3EFF07F0A7E00123D
:1000D6000882EF7F00FEC007C0067F0B7E00120875
:1000E60082EFFDD0E0FFD0E04D900004CFF0A3EF0B
:1000F600F07F0C7E00120882EF7F00FEC007C0066C
:100106007F0D7E00120882EFFDD0E0FFD0E04D901B
:100116000010CFF0A3EFF09000297401F080339027
:10012600000B7406F0A37440F0900002E4F0A37490
:100136000CF0900006E4F0A304F0900004E4F0A3B1
:10014600740CF09000107401F0A37468F0E4900051
:1001560029F09000007417F0A374B6F0900009E43B
:0A016600F0A374E1F0900029E0FF1F
:01017000226C
:1006730090000F7401F0120046EF704190000B04DC
:10068300F0A37490F09000007401F0A37490F090C4
:100693000009E4F0A374B4F0900002E4F0A374C87A
:1006A300F0900006E4F0A37464F0900004E4F0A377
:1006B30074C8F0900010748CF0A374A0F0E4900060
:0B06C3000DF0A304F0E4900008F0220A
:100284009000297401F07F0A7E001207BDE4FFFE8E
:1002940012089A90000BE0FDE4FFFE12086990003A
:1002A4000BA3E0FD7F017E00120869900000E0FDD1
:1002B4007F027E00120869900000A3E0FD7F037EA8
:1002C40000120869900009E0FD7F047E00120869AD
:1002D400900009A3E0FD7F057E00120869900002EA
:1002E400E0FD7F067E00120869900002A3E0FD7F16
:1002F400077E00120869900006E0FD7F087E001268
:100304000869900006A3E0FD7F097E001208699049
:100314000004E0FD7F0A7E00120869900004A3E057
:10032400FD7F0B7E00120869900010E0FD7F0C7EBB
:1003340000120869900010A3E0FD7F0D7E001208F2
:10034400697DEE7FC87E00120869E490000EF0908B
:040354000029E0FF9D
:010358002282
:1008AF00AE071FEE600DE4FCFD0DED70010C4C600A
:0308BF00EF80F6D1
:0108C2002213
:0D08E200E4F5C7F5C5F5C675C380F5C42261
:1008820075C78375C5018FC4EEF5C375C65A75C6A3
:07089200A500AFC21208E24D
:01089900223C
:1008690075C78375C5028FC4EEF5C3AF058FC27511
:09087900C65A75C6A5000208E28A
:10089A0075C78375C5038FC4EEF5C375C65A75C689
:0508AA00A5000208E2B8
:10072800C100410015004F0017FFFFFFFFFFFFFF4B
:10073800FFFFFFFFFFFFFFFF4100260041001600FB
:040748004100140058
:0F08D300759A50759CFD438E1475AF01D2AF22FC
:0300430002075F52
:10075F00C0E0C0F0C083C082C0D075D008E59A3029
:10076F00E008539AFEAF9B1205B9E59A30E10553A5
:0F077F009AFDC201D0D0D082D083D0F0D0E0322A
:0708C3007F5A1208CA7FA54D
:0908CA002001FDEFD201F59B2293
:10000E00900039EBF0A3EAF0A3E9F0900039E0FBA1
:10001E00A3E0FAA3E0F912078E6017900039A3E46B
:10002E0075F0011207A7A9F0FA12078EFF1208CA7F
:03003E0080D92244
:1007E400AB07AA061208C37F051208CA7F82120843
:1007F400CAEAFF1208CAAF031208CAECFF1208CAF9
:05080400AF050208CA67
:10082E00AD07AC061208C37F041208CA7F801208F7
:10083E00CA7F031208CAECFF1208CAAF050208CA23
:1005B900900026E01460111460161460242403705E
:1005C90047EF645A70488012EFB4A502800C803955
:1005D900900014EFF0E4900016F0900026E004F08B
:1005E90022900016E02417F582E43400F583EFF039
:1005F900900016E004F0900014E0FF900016E0C3AC
:0F0609009F400B120359800100E4900026F0225D
:1003590090001BE0FEA3E0FDEDFF90000E7401F09C
:10036900900019E0FD700590000B803EED6402706D
:1003790003020420900019E0FD64047003020420C4
:10038900EDB406059000028021900019E0FDB40843
:10039900059000068014EDB40A05900004800B90C6
:1003A9000019E0FDB40C0D900010EEF0A3EFF090F1
:1003B9000015801AEDB4141BC29074FF900032F03E
:1003C900A3F0900030E4F0A37432F09000087401B7
:1003D900F08044900019E0FFB41618C29090000B09
:1003E900E0FDA3E0900032CDF0A3EDF090000FE026
:1003F90014801AEFB41820D29090000BE0FFA3E00C
:10040900900032CFF0A3EFF090000FE004F09000DD
:0904190030E4F0A37432F0D200CB
:0104220022B7
:04074C0041003C002C
:1004AF00B2B790003CE01460171460211460692407
:1004BF0003707130820320836C90003C7401F02232
:1004CF0030820320835890003C7402F0222082185F
:1004DF00D29090000BE0FFA3E0900032CFF0A3EF9B
:1004EF00F090000FE0048019208320C29090000B41
:1004FF00E0FFA3E0900032CFF0A3EFF090000FE009
:10050F0014F0900030E4F0A37432F090000E7401F8
:10051F00F090003C7403F02230830A308207E4909D
:06052F00003CF022002256
:0E075000420037000042003500004100341422
:0100030022DA
:03000B000206CE1C
:1006CE00C0E0C0F0C083C082C0D075D008758A8BE0
:1006DE00758CFC90002E74FFF5F01207A745F07094
:1006EE002ED3900033E09400900032E0940040103E
:1006FE00D2A6A3E024FFF0900032E034FFF0B2A6C1
:10070E00900030E0FFA3E090002ECFF0A3EFF0D0EA
:0A071E00D0D082D083D0F0D0E032BA
:10080900438E80758901758A8B758CFCD28CD2A92F
:10081900D2AFE490002EF0A3F0A3F0A37432F0E479
:05082900A3F0A3F02282
:10042F00020171E493A3F8E493A34003F68001F271
:10043F0008DFF48029E493A3F85407240CC8C333CE
:10044F00C4540F4420C8834004F456800146F6DF9D
:10045F00E4800B0102040810204080900728E47EFE
:10046F00019360BCA3FF543F30E509541FFEE49392
:10047F00A360010ECF54C025E060A840B8E493A359
:10048F00FAE493A3F8E493A3C8C582C8CAC583CA84
:10049F00F0A3C8C582C8CAC583CADFE9DEE780BE3C
:01075E00009A
:10078E00BB010689828A83E0225002E722BBFE0269
:09079E00E32289828A83E493229C
:1007A700A3F8E0C5F025F0F0E58215827002158305
:0607B700E0C838F0E82262
:00000001FF
