:03000000020251A8
:0C025100787FE4F6D8FD75812002029849
:1002DD00900021E0FD7C007F107E001205F490005F
:1002ED001DE0FCA3E0FDE4FFFE1205F4900013E019
:1002FD00FCA3E0FD7F027E001205F490001BE0FCE4
:10030D00A3E0FD7F047E001205F4900015E0FCA330
:10031D00E0FD7F067E001205F4900019E0FCA3E0DD
:10032D00FD7F087E001205F4900017E0FCA3E0FDB0
:10033D007F0A7E001205F4900022E0FCA3E0FD7F11
:10034D000C7E001205F490001FE0FD7C007F127EF4
:04035D00000205F4A1
:10053D0020801190001FE0700590002004F09000C5
:10054D001F7401F030801290001FE0B4010690007E
:10055D00207401F0E490001FF0208403C29122D298
:02056D009122D9
:10048A007FF47E011205CD1204341206D8120654E6
:10049A007F647E0012063912053D900001E0601665
:1004AA007F047E0012061912017C7F027E0012066A
:1004BA0019E4900001F0900020E060D41202DDE41B
:0604CA00900020F080CA42
:10063900EF1FAC0670011E4C601090002DE004F015
:0A06490070EE90002CE004F080E653
:010653002284
:0805CD0090002AEEF0A3EFF00C
:1005D500E4FBFAD390002BE09B90002AE09A400EB2
:0E05E5007FDE7E011206390BBB00010A80E5A5
:0105F30022E5
:100046009000297401F07F0A7E001205CD7FC87EDC
:1000560000120687EF64EE6003020171FFFE1206CE
:1000660087EF7F00FEC007C0060F7E00120687EFEF
:10007600FDD0E0FFD0E04D90001DCFF0A3EFF07F64
:10008600027E00120687EF7F00FEC007C0067F03D0
:100096007E00120687EFFDD0E0FFD0E04D90001302
:1000A600CFF0A3EFF07F047E00120687EF7F00FEFD
:1000B600C007C0067F057E00120687EFFDD0E0FF71
:1000C600D0E04D90001BCFF0A3EFF07F067E00122C
:1000D6000687EF7F00FEC007C0067F077E00120678
:1000E60087EFFDD0E0FFD0E04D900015CFF0A3EFF5
:1000F600F07F087E00120687EF7F00FEC007C0066D
:100106007F097E00120687EFFDD0E0FFD0E04D901C
:100116000019CFF0A3EFF07F0A7E00120687EF7F6B
:1001260000FEC007C0067F0B7E00120687EFFDD0DB
:10013600E0FFD0E04D900017CFF0A3EFF07F0C7EEC
:1001460000120687EF7F00FEC007C0067F0D7E0007
:10015600120687EFFDD0E0FFD0E04D900022CFF0F1
:10016600A3EFF09000297401F08005E4900029F0D7
:05017600900029E0FFEC
:01017B002261
:100434009000217401F0120046EF704190001D04F9
:10044400F0A37490F09000137401F0A37490F090F2
:10045400001BE4F0A374B4F0900015E4F0A374C896
:10046400F0900019E4F0A37464F0900017E4F0A392
:1004740074C8F0900022748CF0A374A0F0E490008F
:060484001FF0A304F022AA
:10017C009000297401F07F0A7E001205CDE4FFFE89
:10018C0012069F90001DE0FDE4FFFE12066E90002B
:10019C001DA3E0FD7F017E0012066E900013E0FDB2
:1001AC007F027E0012066E900013A3E0FD7F037E9B
:1001BC000012066E90001BE0FD7F047E0012066E9E
:1001CC0090001BA3E0FD7F057E0012066E900015CB
:1001DC00E0FD7F067E0012066E900015A3E0FD7F09
:1001EC00077E0012066E900019E0FD7F087E00125B
:1001FC00066E900019A3E0FD7F097E0012066E903A
:10020C000017E0FD7F0A7E0012066E900017A3E037
:10021C00FD7F0B7E0012066E900022E0FD7F0C7EAF
:10022C000012066E900022A3E0FD7F0D7E001206E8
:10023C006E7DEE7FC87E0012066EE4900020F0907A
:04024C000029E0FFA6
:01025000228B
:1006B400AE071FEE600DE4FCFD0DED70010C4C6007
:0306C400EF80F6CE
:0106C7002210
:0D06E700E4F5C7F5C5F5C675C380F5C4225E
:1006870075C78375C5018FC4EEF5C375C65A75C6A0
:07069700A500AFC21206E747
:01069E002239
:10066E0075C78375C5028FC4EEF5C3AF058FC2750E
:09067E00C65A75C6A5000206E784
:10069F0075C78375C5038FC4EEF5C375C65A75C686
:0506AF00A5000206E7B2
:1004D000C100410001004F0003FFFFFFFFFFFFFFCE
:1004E000FFFFFFFFFFFFFFFF41001200410002007E
:0404F00041000000C7
:0F06D800759A50759CFD438E1475AF01D2AF22F9
:0300430002056F44
:10056F00C0E0C0F0C083C082C0D075D008E59A301B
:10057F00E008539AFEAF9B1203D5E59A30E105537D
:0F058F009AFDC201D0D0D082D083D0F0D0E0321C
:0706C8007F5A1206CF7FA547
:0906CF002001FDEFD201F59B2290
:10000E0090002EEBF0A3EAF0A3E9F090002EE0FBB7
:10001E00A3E0FAA3E0F912059E601790002EA3E468
:10002E0075F0011205B7A9F0FA12059EFF1206CF60
:03003E0080D92244
:1005F400AB07AA061206C87F051206CF7F82120631
:10060400CFEAFF1206CFAF031206CFECFF1206CFDC
:05061400AF050206CF56
:10061900AD07AC061206C87F041206CF7F8012060A
:10062900CF7F031206CFECFF1206CFAF050206CF2C
:1003D500900012E014601114601614602424037058
:1003E50047EF645A70488012EFB4A502800C80393B
:1003F500900000EFF0E4900002F0900012E004F0AD
:1004050022900002E02403F582E43400F583EFF046
:10041500900002E004F0900000E0FF900002E0C3CD
:0F0425009F400B120361800100E4900012F0224F
:10036100900007E0FEA3E0FDEDFF9000207401F096
:10037100900005E0FD700590001D8033EDB402058D
:10038100900013802A900005E0FDB4040590001B45
:10039100801DEDB406059000158014900005E0FD68
:1003A100B408059000198007EDB40A10900017EE0B
:1003B100F0A3EFF09000017401F08015900005E0CA
:1003C100B40C0E900022EEF0A3EFF0900001740146
:0303D100F0D20067
:0103D4002206
:0404F4004100330090
:0100030022DA
:0E04F8004200270000420025000041002414AD
:0100040022D9
:03000B00020507E4
:10050700C0E0C0F0C083C082C0D075D008758ACD66
:10051700758CD490003174FFF5F01205B745F07073
:100527000A900031F0A37409F0B2A6D0D0D082D0DF
:0605370083D0F0D0E03299
:10065400438E80758901758ACD758CD4D28CD2A9CC
:0A066400D2AFE4900031F0A3F022C1
:10025D0002048AE493A3F8E493A34003F68001F229
:10026D0008DFF48029E493A3F85407240CC8C333A2
:10027D00C4540F4420C8834004F456800146F6DF71
:10028D00E4800B01020408102040809004D0E47E2D
:10029D00019360BCA3FF543F30E509541FFEE49366
:1002AD00A360010ECF54C025E060A840B8E493A32D
:1002BD00FAE493A3F8E493A3C8C582C8CAC583CA58
:1002CD00F0A3C8C582C8CAC583CADFE9DEE780BE10
:0105060000F4
:10059E00BB010689828A83E0225002E722BBFE025B
:0905AE00E32289828A83E493228E
:1005B700A3F8E0C5F025F0F0E582158270021583F7
:0605C700E0C838F0E82254
:00000001FF
