:0300000002036197
:0C036100787FE4F6D8FD7581200203A827
:1003ED00900021E0FD7C007F107E0012066E9000D3
:1003FD001DE0FCA3E0FDE4FFFE12066E900013E08D
:10040D00FCA3E0FD7F027E0012066E90001BE0FC57
:10041D00A3E0FD7F047E0012066E900015E0FCA3A4
:10042D00E0FD7F067E0012066E900019E0FCA3E051
:10043D00FD7F087E0012066E900017E0FCA3E0FD24
:10044D007F0A7E0012066E900022E0FCA3E0FD7F85
:10045D000C7E0012066E90001FE0FD7C007F127E68
:04046D000002066E15
:1005B70020801190001FE0700590002004F090004B
:1005C7001F7401F030801290001FE0B40106900004
:1005D700207401F0E490001FF0208403C29122D21E
:0205E70091225F
:100218007FF47E0112064712052A12075D12069323
:100228007F647E001206D8B2B7D3900029E09414F8
:10023800900028E094004010900027E024FFF09000
:100248000026E034FFF0800E900027E004F07006EE
:10025800900026E004F0900026E0FEA3E0FFC3949F
:1002680001EE9400500A900026E4F0A304F08012F6
:10027800D3EF9432EE94004009900026E4F0A37482
:1002880032F01205B7900001E060167F047E00127C
:1002980006B81201437F027E001206B8E4900001FE
:1002A800F0900020E070030202281203EDE49000B1
:0502B80020F002022805
:1006D800EF1FAC0670011E4C6010900033E004F070
:0A06E80070EE900032E004F080E6AE
:0106F20022E5
:08064700900030EEF0A3EFF08B
:10064F00E4FBFAD3900031E09B900030E09A400E2B
:0E065F007FDE7E011206D80BBB00010A80E58B
:01066D00226A
:1000460090002F7401F07F0A7E001206477FC87E5B
:100056000012070CEF64EE6003020125FFFE120793
:100066000CEF7F00FEC007C0060F7E0012070CEFE4
:10007600FDD0E0FFD0E04D90001DCFF0A3EFF07F64
:10008600067E0012070CEF7F00FEC007C0067F0742
:100096007E0012070CEFFDD0E0FFD0E04D9000157A
:1000A600CFF0A3EFF07F087E0012070CEF7F00FE73
:1000B600C007C0067F097E0012070CEFFDD0E0FFE7
:1000C600D0E04D900019CFF0A3EFF07F0A7E00122A
:1000D600070CEF7F00FEC007C0067F0B7E001207ED
:1000E6000CEFFDD0E0FFD0E04D900017CFF0A3EF6E
:1000F600F07F0C7E0012070CEF7F00FEC007C006E3
:100106007F0D7E0012070CEFFDD0E0FFD0E04D9092
:100116000022CFF0A3EFF090002F7401F08005E4E9
:1001260090002FF09000137417F0A374B6F09000AF
:0C0136001BE4F0A374E1F090002FE0FF48
:01014200229A
:10052A009000217401F0120046EF704190001D0402
:10053A00F0A37490F09000137401F0A37490F090FB
:10054A00001BE4F0A374B4F0900015E4F0A374C89F
:10055A00F0900019E4F0A37464F0900017E4F0A39B
:10056A0074C8F0900022748CF0A374A0F0E4900098
:06057A001FF0A304F022B3
:1001430090002F7401F07F0A7E00120647E4FFFE41
:1001530012072490001DE0FDE4FFFE1206F3900059
:100163001DA3E0FD7F017E001206F3900013E0FD66
:100173007F027E001206F3900013A3E0FD7F037E4F
:10018300001206F390001BE0FD7F047E001206F3CD
:1001930090001BA3E0FD7F057E001206F39000157F
:1001A300E0FD7F067E001206F3900015A3E0FD7FBD
:1001B300077E001206F3900019E0FD7F087E00120F
:1001C30006F3900019A3E0FD7F097E001206F39069
:1001D3000017E0FD7F0A7E001206F3900017A3E0EC
:1001E300FD7F0B7E001206F3900022E0FD7F0C7E64
:1001F300001206F3900022A3E0FD7F0D7E0012069D
:10020300F37DEE7FC87E001206F3E4900020F090A9
:04021300002FE0FFD9
:0102170022C4
:10073900AE071FEE600DE4FCFD0DED70010C4C6081
:03074900EF80F648
:01074C00228A
:0D076C00E4F5C7F5C5F5C675C380F5C422D8
:10070C0075C78375C5018FC4EEF5C375C65A75C61A
:07071C00A500AFC212076C3B
:0107230022B3
:1006F30075C78375C5028FC4EEF5C3AF058FC27589
:09070300C65A75C6A50002076C78
:1007240075C78375C5038FC4EEF5C375C65A75C600
:05073400A50002076CA6
:10058000C100410001004F0003FFFFFFFFFFFFFF1D
:10059000FFFFFFFFFFFFFFFF4100120041000200CD
:0405A0004100000016
:0F075D00759A50759CFD438E1475AF01D2AF2273
:030043000205E9CA
:1005E900C0E0C0F0C083C082C0D075D008E59A30A1
:1005F900E008539AFEAF9B120471E59A30E1055366
:0F0609009AFDC201D0D0D082D083D0F0D0E032A1
:07074D007F5A1207547FA53B
:090754002001FDEFD201F59B220A
:10000E00900034EBF0A3EAF0A3E9F0900034E0FBAB
:10001E00A3E0FAA3E0F91206186017900034A3E4E7
:10002E0075F001120631A9F0FA120618FF120754E4
:03003E0080D92244
:10066E00AB07AA0612074D7F051207547F821207A9
:10067E0054EAFF120754AF03120754ECFF1207544B
:05068E00AF0502075456
:1006B800AD07AC0612074D7F041207547F8012075E
:1006C800547F03120754ECFF120754AF0502075476
:10047100900012E0146011146016146024240370BB
:1004810047EF645A70488012EFB4A502800C80399E
:10049100900000EFF0E4900002F0900012E004F010
:1004A10022900002E02403F582E43400F583EFF0AA
:1004B100900002E004F0900000E0FF900002E0C331
:0F04C1009F400B1202BD800100E4900012F02258
:1002BD00900007E0FEA3E0FDEDFF9000207401F03B
:1002CD00900005E0FD700590001D803BED6402700F
:1002DD000302035E900005E0FD64046074EDB40656
:1002ED00059000158021900005E0FDB408059000F3
:1002FD00198014EDB40A05900017800B900005E0ED
:10030D00FDB40C10900022EEF0A3EFF090000174FC
:10031D0001F0803DED64146038900005E0FFB416E7
:10032D0012C29090001DE0FDA3E0900028CDF0A337
:10033D00ED8014EFB4181AD29090001DE0FFA3E0E9
:10034D00900028CFF0A3EFF0900026E4F0A37432D4
:03035D00F0D200DB
:01036000227A
:0405A40041003700DB
:0100030022DA
:0E05A80042002D000042002B000041002A14EA
:0100040022D9
:03000B000204D01C
:1004D000C0E0C0F0C083C082C0D075D008758A8BE0
:1004E000758CFC90002474FFF5F012063145F07015
:1004F0002ED3900029E09400900028E09400401052
:10050000D2A6A3E024FFF0900028E034FFF0B2A6CA
:10051000900026E0FFA3E0900024CFF0A3EFF0D0FE
:0A052000D0D082D083D0F0D0E032BA
:10069300438E80758901758A8B758CFCD28CD2A9A7
:1006A300D2AFE4900024F0A3F0A3F0A37432F0E4FB
:0506B300A3F0A3F022FA
:10036D00020218E493A3F8E493A34003F68001F28C
:10037D0008DFF48029E493A3F85407240CC8C33391
:10038D00C4540F4420C8834004F456800146F6DF60
:10039D00E4800B0102040810204080900580E47E6B
:1003AD00019360BCA3FF543F30E509541FFEE49355
:1003BD00A360010ECF54C025E060A840B8E493A31C
:1003CD00FAE493A3F8E493A3C8C582C8CAC583CA47
:1003DD00F0A3C8C582C8CAC583CADFE9DEE780BEFF
:0105B6000044
:10061800BB010689828A83E0225002E722BBFE02E0
:09062800E32289828A83E4932213
:10063100A3F8E0C5F025F0F0E5821582700215837C
:06064100E0C838F0E822D9
:00000001FF
